:020000040800F2
:10000000E005002001010008D3130008AD1200082C
:10001000D113000899010008DD1700080000000056
:10002000000000000000000000000000D7130008DE
:10003000DF01000800000000D5130008D9130008F4
:100040001B0100081B0100081B0100081B01000820
:100050001B0100081B0100081B0100081B01000810
:100060001B010008E10100081B0100081B0100083A
:100070009D010008A90100081B0100081B010008E0
:100080001B0100081B0100081B0100081B010008E0
:100090001B0100081B0100081B0100081B010008D0
:1000A0001B0100081B0100081B0100081B010008C0
:1000B0001B0100081B0100081B0100081B010008B0
:1000C0001B0100081B0100081B0100081B010008A0
:1000D0001B0100081B0100081B0100089117000804
:1000E0001B0100081B0100081B010008DFF80CD0F1
:1000F00000F040F800480047B5190008E00500206E
:100100000648804706480047FEE7FEE7FEE7FEE7B1
:10011000FEE7FEE7FEE7FEE7FEE7FEE73B1400082A
:10012000ED000008D2B201E000F8012B491EFBD21D
:1001300070470022F6E710B513460A4604461946F2
:10014000FFF7F0FF204610BD30B50B4601460020FA
:100150002022012409E021FA02F59D4205D303FA89
:1001600002F5491B04FA02F52844151EA2F101020A
:10017000F1DC30BD064C074D06E0E06840F00103BD
:1001800094E8070098471034AC42F6D3FFF7B2FF6B
:10019000001A0008201A0008FEE70000014800F0DD
:1001A00093B800009C010020014800F08DB80000C9
:1001B0005801002030B590F840500124AC40C56B88
:1001C0006C60046863604368102B036803D0996017
:1001D0000068C26030BD9A600068C16030BD704781
:1001E000082000F0A1B972B6FEE710B590F8211012
:1001F0000022022905D00421816380F820200120FB
:1002000010BD01680B6823F00E030B6001680B68DA
:1002100023F001030B6090F84030C46B012101FA18
:1002200003F3636080F8211080F82020104610BD91
:1002300010B590F821100024022903D00421816315
:1002400001243DE001680A6822F00E020A6001689C
:100250000A6822F001020A601A4A0168914201D13B
:10026000012121E0174A1432914201D110211BE0F3
:10027000144A2832914201D1891515E0114A3C32C5
:10028000914201D189140FE00E4A5032914202D1BD
:100290004FF4803108E00B4A6432914202D14FF4AE
:1002A000801101E04FF08071064A083A5160012147
:1002B00080F82110002180F82010416B01B188479F
:1002C000204610BD080002402DE9F05FC16B0C68AC
:1002D00001680B68D0F840C0042202FA0CF2494DC4
:1002E000DFF824A1494E4A4FDFF828B1DFF828E1B2
:1002F00022422CD05A072AD50A68920603D40A68EB
:1003000022F004020A600168A94201D1042219E026
:10031000514501D1402215E0B14202D14FF4806233
:1003200010E0B94202D14FF480420BE0594502D1AE
:100330004FF4802206E0714502D14FF4800201E0C3
:100340004FF080622F4908394A60C16A3BE04FF0A4
:10035000020808FA0CF818EA040F4FF000094FF0F1
:10036000010235D05FEA837832D50B689B0605D44D
:100370000B6823F00A030B6080F821200168A94272
:1003800001D1022219E0514501D1202215E0B142EC
:1003900002D14FF4007210E0B94202D14FF4005282
:1003A0000BE0594502D14FF4003206E0714502D10D
:1003B0004FF4001201E04FF00072124908394A6010
:1003C00080F82090816A00291AD0BDE8F05F0847C4
:1003D000082505FA0CF5254212D01B0710D50B682D
:1003E00023F00E030B6090F84010C36B02FA01F18A
:1003F0005960826380F8212080F82090016BE2E749
:10040000BDE8F09F080002401C000240300002409E
:1004100044000240580002406C00024030B528B34E
:1004200008C8134914221944B1FBF2F18900C163D1
:1004300010498163022141771A6843F6F0718A43BB
:10044000D0E900142143D0E902452C43214304693B
:1004500021434469214384692143114319600021E8
:100460004163012242770177084630BD012030BD4B
:10047000F8FFFDBF0000024070B5044690F8200070
:10048000002501280CD0012084F8200094F8216078
:100490000020012E06D084F820000225284670BDD9
:1004A000022070BD022684F82160A06320680668DF
:1004B00026F0010606602046FFF77CFEE06A002871
:1004C0002068016802D041F00E0106E021F004012D
:1004D00001602068016841F00A010160206801683C
:1004E00041F001010160D9E710B5082816D10C4C84
:1004F0000821204600F014F900280FD16321491E7D
:10050000FDD10821204600F00BF9002806D1BDE8F6
:1005100010404FF40051034800F007B910BD00002F
:100520000008014000100140044910B50A68024269
:1005300002D00860FFF7D8FF10BD0000140401408E
:100540002DE9F84FDFF8B891002409F1040A0AF107
:10055000040B23460F270BF1040EC9E00125A5402B
:100560002A40AA427DD1674ED1F804C0ACEB060800
:10057000B44532D014DCBCF1030F3AD009DCBCF135
:10058000000F2AD0BCF1010F1CD0BCF1020F31D1F9
:100590001DE0BCF1110F17D0BCF1120F2AD119E0E8
:1005A000B8F5881F19D006DCB8F5803F15D0B8F52E
:1005B000801F1FD111E0B8F5001F0ED0B8F5041F41
:1005C00018D10AE0CB6815E0CB681B1D12E0CB68A0
:1005D00008330FE0CB680C330CE08B682BB1012B98
:1005E0004FF0080303D0456104E0042302E00561F5
:1005F00000E00023FF2A01D8064601E000F10406CE
:100600004FEA840501D9A5F12005D6F8008007FA44
:1006100005FC28EA0C0803FA05F548EA0508C6F8BF
:1006200000804D68ED0062D5374DAE6946F0010699
:10063000AE61AD6924F0030605F001050095334D68
:1006400006EB050CDCF80850A607360F07FA06F88B
:1006500025EA0805DFF8B880404503D14FF00008CF
:1006600017E044E0DFF8AC80404502D14FF00108CC
:100670000FE0DFF8A480404502D14FF0020808E007
:10068000DFF89880404502D14FF0030801E04FF0B9
:10069000040808FA06F848EA0508CCF808804D680E
:1006A000D9F80060ED034D4601D5164300E09643AE
:1006B0002E604D68DAF80060AD03554601D516434B
:1006C00000E096432E604D68DBF80060ED025D4669
:1006D00001D5164300E096432E604D68DEF80060B9
:1006E000AD02754601D5164300E096432E60641CAA
:1006F0000D682A46E5407FF431AFBDE8F88F000071
:1007000000040140000011100010024000000140F0
:1007100000080140000C014000100140001401409D
:100720008068084000D001207047C26821EA0203B7
:100730000A4043EA0241016170470AB10161704712
:100740000904FBE7014880687047000000000020B2
:1007500002488168027811448160704700000020DF
:10076000074810B5016841F010010160032000F056
:1007700075F80F2000F006F800F024F8002010BDF6
:100780000020024070B50D4D04464FF47A71287870
:10079000B1FBF0F00A490968B1FBF0F000F0ECFAA7
:1007A00048B9102C07D200222146501E00F036F81E
:1007B00000206C6070BD012070BD000000000020B2
:1007C0000C0000200C4808B5816941F001018161ED
:1007D000816901F001010091C16941F08051C1615D
:1007E000C06900F0805000900448416821F0E06149
:1007F00041F00071416008BD00100240000001405E
:10080000002809DB00F01F0201219140400980000F
:1008100000F1E020C0F8001170470000F0B40E4B6A
:100820001B680C46C3F30223C3F10705042D00D94E
:100830000425191D072901D2002300E0DB1E012633
:1008400006FA05F1491E214099409E40761E164049
:100850003143F0BC00F0D4BF0CED00E0064900F0DD
:10086000070208684FF6FF03184040EA0220034AD7
:1008700010430860704700000CED00E00000FA052E
:100880002DE9F0470F46050061D0434E306800F077
:100890000700B84209D2306820F0070038433060C2
:1008A000306800F00700B84251D128683B4C8107FE
:1008B00012D5400703D5606840F4E0606060287896
:1008C000000703D5606840F4605060606068A96804
:1008D00020F0F000084360602878C00728D06868DE
:1008E000012810D02168022810D0890700292EDAAB
:1008F000616821F0030101436160FFF723FF804637
:1009000041F288390DE021688903EFE78901EDE7BD
:10091000FFF718FFA0EB0801494502D90320BDE805
:10092000F0876068696800F00C00B0EB810FEFD1D0
:10093000306800F00700B8420BD9306820F007009B
:1009400038433060306800F00700B84201D0012021
:10095000E5E72878400705D56068E96820F4E0609D
:10096000084360602878000706D56068296920F48C
:10097000605040EAC100606000F038F86168084AE1
:10098000C1F30311515CC84006490860064800687D
:10099000FFF7F8FE0020C2E70020024000100240EE
:1009A000E81900080C000020040000200448054954
:1009B00000684968044AC1F30221515CC84070478D
:1009C0000C00002000100240F819000804480549F6
:1009D00000684968044AC1F3C221515CC8407047AD
:1009E0000C00002000100240F819000812A185B088
:1009F0000FC98DE80F0014A0144A006804905168D4
:100A0000134801F00C03042B10D0082B0ED1C1F3B6
:100A10008343C9031DF803000AD5516804AAC1F332
:100A20004041515C0A4A5043B0FBF1F005B07047B9
:100A300008494843FAE700000203040506070809CD
:100A40000A0B0C0D0E0F10100102000000100240E6
:100A500000127A0000093D002DE9F84F040070D023
:100A60002078C04DC00749D06868C0F381000128D4
:100A700007D06868C0F38100022809D16868C00304
:100A800006D52868800339D560680028E7D035E0AE
:100A90006068B0F5803F0BD010B1B0F5A02F11D039
:100AA000286820F480302860286820F4802002E044
:100AB000286840F480302860606890B1FFF742FEFB
:100AC00006460AE0286840F480202860F0E700BF6E
:100AD000FFF738FE801B642873D828688003F7D599
:100AE0000CE0FFF72FFE064605E000BFFFF72AFEE9
:100AF000801B6428F0D828688003F7D420789A4EA9
:100B000080074FF001094FF0000839D5686810F0F0
:100B10000C0F07D06868C0F38100022809D168680B
:100B2000C00306D42868800714D52069012808D19D
:100B300010E02069B0B1C6F80090FFF703FE074649
:100B400005E00AE1FFF7FEFDC01B0228C4D82868B3
:100B50008007F7D52868616920F0F80040EAC100F5
:100B600028600DE0C6F80080FFF7ECFD074604E0C2
:100B7000FFF7E8FDC01B022823D828688007F7D4B8
:100B8000207800072CD57948A169D9B1C0F8009028
:100B9000FFF7D8FD074604E0FFF7D4FDC01B02288D
:100BA0000FD8686A8007F7D571484FF4FA5100688A
:100BB000B0FBF1F0009000BF0098411E0091FAD206
:100BC0000EE080E0C0F80080FFF7BCFD074604E0BF
:100BD000FFF7B8FDC01B022875D8686A8007F7D4F4
:100BE0002078400760D5E8690027C00008D4E8698C
:100BF00040F08050E861E869012700F080500090E3
:100C00005C480168C90513D40168834641F48071CA
:100C10000160FFF797FD824606E000BFFFF792FDF7
:100C2000A0EB0A0064284ED8DBF80000C005F5D51B
:100C3000E06801280AD008B1052813D0286A20F0FE
:100C400001002862286A20F0040002E0286A40F0CF
:100C500001002862E06841F2883B98B1FFF772FD1D
:100C600082460BE0286A40F004002862EEE700BFED
:100C7000FFF768FDA0EB0A0159455AD8286A80079A
:100C8000F6D50CE0FFF75EFD824605E0FFF75AFD62
:100C9000A0EB0A0159454CD8286A8007F6D41FB149
:100CA000E86920F08050E861E06988B36968C1F3C1
:100CB0008101022944D00228C6F8608004D0FFF7E1
:100CC00041FD044638E034E0FFF73CFD074604E010
:100CD000FFF738FDC01B02282BD828688001F7D405
:100CE000206AB0F5803F05D16868A16820F4003023
:100CF00008436860D4E908010843696821F4741165
:100D000008436860C6F86090FFF71CFD044606E0E3
:100D100025E000BFFFF716FD001B022809D8286850
:100D20008001F7D51BE000BFFFF70CFD001B022878
:100D300002D90320BDE8F88F28688001F4D40EE0C2
:100D40000128F7D06868226A00F48031914204D10A
:100D5000616A00F47010884201D00120EAE70020A7
:100D6000E8E70000001002400000424280044242D6
:100D70000C0000200070004010B5401EB0F1807FD4
:100D800001D3012010BD4FF0E02460610F216017F6
:100D900000F036FD0020A06107202061002010BD7A
:100DA000704710B504460068416994F83D20C1F3CE
:100DB000C011212A0BD151B1416921F0800141615B
:100DC000606B08B1FFF711FA204600F0B6FB20680F
:100DD000416994F83E20C1F38011222A0BD151B110
:100DE000416921F040014161A06B08B1FFF7FDF9B5
:100DF000204600F08AFB002010BD704710B5006847
:100E00001249884221D11248FFF7CBFF11480068F0
:100E10004068C0F1FF00C4B221460FA000F0E0FC22
:100E20004FF47A7322461349094800F0E5F912A0FD
:100E300000F0D6FC21460F48FFF77BF9BDE81040D3
:100E4000FF220C49024800F0BFB910BD0048004025
:100E50001401002058010020526563656976652001
:100E600044617461286C656E677468203D20256458
:100E7000293A2000140000200D0A0000F8B502688D
:100E800004461068D168536910F00F0F4FF0000549
:100E900053D003F0010601F4907737435FD0C207C7
:100EA00005D0CA0503D5226C42F001022264420734
:100EB00005D5DA0703D0226C42F0020222648207D1
:100EC00005D5DA0703D0226C42F00402226402073F
:100ED00007D501F02002324303D0226C42F0080211
:100EE0002264226C002A34D0800604D5880602D5FC
:100EF000204600F02BFB20684069216CC0F3801075
:100F0000090700D430B3204600F0FFFA2068416999
:100F100049061BD5416921F040014161A06BA8B190
:100F200058494163A06BFFF783F9002811D0A06BEB
:100F3000416B01B0BDE8F040084783060FD58B0632
:100F40000DD52046BDE8F84000F000BB2046FFF775
:100F500054FFF8BD2046FFF750FF2564F8BD266B0F
:100F60002023012E52D1C60650D5CE064ED510688C
:100F700050680090506940062AD5A16B0868406807
:100F80000004000CEAD0A68D8642E7D9E085886986
:100F9000202818D0D06820F48070D0602068416983
:100FA00021F0010141612068416921F04001416166
:100FB00084F83E3025632068C16821F01001C160CB
:100FC000A06BFFF712F9A08DE18D401A81B219E0F4
:100FD000A08DE18D401A81B2E08D0028BED000299D
:100FE000BCD0D06820F49070D0602068426922F0B4
:100FF0000102426184F83E3025632068C26822F015
:101000001002C2602046FFF7CBFEF8BD05062BD5C7
:101010000D0629D594F83D002128F6D1A068B0F539
:10102000805F01D12069B0B1206A411C2162216832
:1010300000784860E08C401E0004000CE084E4D19D
:101040002068C16821F08001C1602068C16841F05A
:101050004001C160F8BD206A0088C0F308005060FC
:10106000206A801C2062E5E74006F3D54806F1D5EA
:10107000D168204621F04001D16084F83D3000F075
:1010800014F9F8BD3D14000870B5040004D094F8BC
:101090003D00002510B106E0012070BD84F83C50F1
:1010A000204600F023F8242084F83D002068C16821
:1010B00021F40051C160204600F0A4FA20680169C3
:1010C00021F4904101612068416921F02A014161C8
:1010D0002068C16841F40051C1602564202084F873
:1010E0003D0084F83E00002070BD0000F0B585B0E2
:1010F00000240646009401940294039400682D494C
:10110000884254D12C48C16941F48021C161C16930
:1011100001F480210491816941F0080181618069B5
:10112000264D00F0080004904FF4806000900220EB
:1011300001900320039069462846FFF701FAE8145E
:10114000CDE90004694628460294FFF7F9F91D4DE0
:101150001B488027C5E90004C5E902472C616C6182
:10116000AC612846EC61FFF759F908B1FFF73BF88D
:10117000B5636E62134D12484435143801C5102012
:1011800091C5104845F8104944306C61AC61EC6180
:10119000FFF744F908B1FFF726F8756300221146FE
:1011A00027206E62FFF73AFB2720FFF729FB05B0E7
:1011B000F0BD00000048004000100240000C01405B
:1011C000300002405801002090F83E30202B0ED114
:1011D00059B152B190F83C30012B08D0012380F86E
:1011E0003C300023036300F069BA012070470220FD
:1011F00070477047704700002DE9F843044690F8A7
:101200003D001F4616460D4620284CD1C5B1BEB143
:1012100094F83C00012846D0012084F83C004FF0AF
:101220000008C4F84080212084F83D00FFF78AFAC6
:10123000A6848146E684A068B0F5805F03D004E010
:101240000120BDE8F883206928B12E465FF0000533
:1012500084F83C800EE00026FAE78021204600F06A
:1012600065FAA0B9AEB116F8010B21684860E08CB0
:10127000401EE084E08C4B464FF0000200970028AF
:10128000EBD14FF04001204600F050FA30B103207E
:10129000D7E735F8020BC0F30800E6E7202084F812
:1012A0003D000020CDE70220CBE77047FEE70000BD
:1012B0000D4808B5416941F00101416140690022D2
:1012C00000F00100009011460C20FFF7A7FA0C2057
:1012D000FFF796FA002211460D20FFF79FFABDE8AE
:1012E00008400D20FFF78CBA0010024070B586B0A0
:1012F000002425480094019402940394816941F0EC
:1013000010018161816901F010010491816941F04E
:1013100020018161816901F020010491816941F01E
:1013200004018161816901F004010491816941F046
:10133000080181618069154E00F008004FF40055E6
:101340000490002229463046FFF7F7F90220CDE944
:10135000024000950125694601953046FFF7F0F8F7
:10136000082000900A48CDE9010569460948FFF7C1
:10137000E7F8002211460920FFF750FA0920FFF78D
:101380003FFA06B070BD000000100240001001409E
:1013900000002110000801400C4810B50A49016006
:1013A0004FF416514160002181600C22C160C0E9F8
:1013B00004128161C161FFF767FE002803D0BDE818
:1013C0001040FEF710BF10BD00480040140100207F
:1013D000FEE7FEE770477047FFF7BAB930B58FB048
:1013E00028216846FEF7A5FE14210AA8FEF7A1FEF3
:1013F00001210804CDE90010002402940225049183
:10140000CDE907504FF4E01009906846FFF724FB40
:1014100008B172B6FEE70F20CDE90A054FF48060EF
:10142000CDE90C4002210AA80E94FFF729FA002802
:1014300001D072B6FEE70FB030BD704710B5406AFC
:101440000021C185C184FFF7D8FC10BD70B5446A86
:101450002068406994F83D10C0F3C0100025212990
:1014600004D118B1E584204600F067F8206840698F
:1014700094F83E10C0F38010222904D118B1E585FC
:10148000204600F042F8206C40F010002064204616
:10149000FFF7B3FC70BD10B50146406A09680968E2
:1014A00089061BD40021C1850168CA6822F48072B4
:1014B000CA6001684A6922F001024A6101684A690A
:1014C00022F040024A61202180F83E10016B012980
:1014D00004D10168CA6822F01002CA60016B0129B8
:1014E00002D0FFF786FE10BD818DFFF759FC10BDBD
:1014F00010B5406A016B012902D0FFF77BFE10BDD9
:10150000818D4908FFF74CFC10BD0168CA6822F4C0
:101510009072CA6001684A6922F001024A61016B57
:10152000012904D10168CA6822F01002CA60202192
:1015300080F83E100021016370470168CA6822F0FC
:10154000C002CA60202180F83D10704708B590F8AD
:101550003E10222901D0022008BD82684FF480533A
:101560009A4201D1016921B1816A9A421BD04AB1E4
:101570000AE00268816A5268C2F308020A80816A3E
:10158000891C08E0026972B10268526802F07F02A9
:101590000A70816A491C8162C18D491E0904090CC7
:1015A000C18503D019E002685268F1E70168CA6892
:1015B00022F02002CA600168CA6822F48072CA6000
:1015C00001684A6922F001024A61202180F83E1038
:1015D000016B012903D0FFF70CFE002008BD00219C
:1015E00001630168CA6822F01002CA6001680A68D3
:1015F000D20602D50A6849680091818DFFF7D0FBB9
:10160000EBE7000070B5044600680169E26821F468
:101610004051114301612169A06808436169084391
:101620002168CA6841F20C639A430243CA60206889
:101630004169A26921F44071114341611E4920684A
:10164000884202D1FFF7C2F901E0FFF7AFF900EBE2
:10165000C00101EB0012606864218000B2FBF0F36E
:10166000B3FBF1F36FF018067343B2FBF0F5B2FB76
:10167000F0F605EB8305322303EB0515B5FBF1F519
:10168000B6FBF1F605F0F00505EB0615B2FBF0F63A
:10169000B2FBF0F0B0FBF1F06FF01802504306EB34
:1016A000800003EB0010B0FBF1F0216800F00F00A8
:1016B0002844886070BD00000038014038B5816260
:1016C00082850025134604460564222084F83E00E6
:1016D000A26B13489062A26B1248D062A26B1248B0
:1016E0001063A06B0A4645632168A06B091DFEF7D5
:1016F000C3FE206801684168009184F83C50C168CD
:1017000041F48071C1602068416941F0010141618B
:101710002068416941F040014161002038BD00006E
:1017200097140008F11400084D1400082DE9F04149
:10173000984617460E460446069D1DE0681C1BD0C1
:101740002DB1FEF7FFFFA0EB0800A84214D92068D6
:10175000C16821F4D071C1602068416921F00101A4
:101760004161202084F83D0084F83E00002084F888
:101770003C000320BDE8F0812068006836EA0000E4
:1017800004D00020B842D9D00020F3E70120F9E7C7
:101790000A4808B500680168C943C90608D4016849
:1017A0004068009006A000F01BF80448FFF726FBF5
:1017B000BDE808400148FFF761BB000014010020AC
:1017C0000D0A55415254332049646C6520495152E9
:1017D0002044657465637465640D0A00FEE70000CB
:1017E0000FB4054B10B503A9044A029800F028F87D
:1017F00010BC5DF814FB00009519000810000020D3
:101800000907090E002804DB00F1E02080F800142D
:10181000704700F00F0000F1E02080F8141D7047C1
:1018200002E008C8121F08C1002AFAD170477047A9
:10183000002001E001C1121F002AFBD17047000007
:101840002DE9FF4F89B09B460446002506E0252878
:101850000BD05A460B999047641C6D1C20780028C9
:10186000F5D10DB02846BDE8F08F0027B84601221B
:10187000474900E0074314F8013F203B02FA03F018
:101880000842F7D120782E2819D114F8010F47F01B
:1018900004072A280ED06FF02F022078A0F1300123
:1018A00009290CD808EB880102EB410100EB010883
:1018B000641CF2E70A98641C50F8048B0A902078A4
:1018C0000028CED0642808D0692806D075281ED0FC
:1018D0005A460B9990476D1C58E00A994FF00A0937
:1018E00001C90A91002802DA40422D2102E039059F
:1018F00004D52B218DF82010012103E0F90704D035
:101900002021F7E78A4608AE0DE00021FAE70A99A0
:101910004FF00A0901C90A91F7E74946FEF714FC9E
:10192000303106F8011D0028F7D1ADEB060000F1BB
:101930002009780701D44FF00108C84502DDA8EB63
:10194000090000E000208046002706E008A85A466B
:10195000C05D0B9990476D1C7F1C5745F6DB04E07A
:1019600030205A460B9990476D1CB8F10001A8F140
:101970000108F5DC05E016F8010B5A460B99904773
:101980006D1CB9F10001A9F10109F4DC641C65E7E3
:101990000928010038B504468DF800004FF47A7329
:1019A000012269460248FFF727FC204638BD0000A7
:1019B00014010020FEF7D4FEFFF710FDFFF796FCA0
:1019C000FFF776FCFFF7E8FC05480068C16841F0C6
:1019D0001001C160FF2203490148FFF7F5FBFEE754
:1019E000140100201400002000000000000000008E
:1019F00001020304060708090000000001020304B5
:101A0000201A000800000020140000002018000820
:101A1000341A000814000020CC050000301800081B
:101A20000100000010000000000000000024F4008D
:041A300000000000B2
:04000005080000ED02
:00000001FF
