:020000040800F2
:10000000700400200501000813110008AB1000085F
:10001000111100083D0600089912000800000000B8
:1000200000000000000000000000000017110008A0
:100030003F06000800000000151100081911000813
:100040001F0100081F0100081F0100081F01000810
:100050001F0100081F0100081F0100081F01000800
:100060001F0100081F0100081F0100081F010008F0
:100070001F0100081F0100081F0100081F010008E0
:100080001F0100081F0100081F0100081F010008D0
:100090001F0100081F0100081F0100081F010008C0
:1000A0001F0100081F0100081F0100081F010008B0
:1000B0001F0100081F0100081F0100081F010008A0
:1000C0001F0100081F0100081F0100081F01000890
:1000D0001F0100081F0100081F0100081F01000880
:1000E0001F0100081F0100081F010008DFF810D0E1
:1000F00000F0B6F80048004741130008AFF3008055
:10010000700400200648804706480047FEE7FEE7E7
:10011000FEE7FEE7FEE7FEE7FEE7FEE7FEE7FEE7B7
:100120007B110008ED000008D2B201E000F8012BBD
:10013000491EFBD270470022F6E710B513460A4667
:1001400004461946FFF7F0FF204610BD0FB400B576
:1001500089B00BA800906A4603480A9900F076F827
:1001600009B05DF814FB0000140000202DE9FF5FCA
:10017000D2E901A74FF00008916999461446DDF8CD
:1001800038B0464601988847054659EA0B0005D025
:1001900009E0A169761C019888470546216A28462E
:1001A00088470028F5D1681C03D05FEACA7005D0E3
:1001B00015E04FF0FF3004B0BDE8F09F2068011D4E
:1001C0002160D0F800800AE05FEACA7001D108F827
:1001D000015BA169761C7F1E019888470546002FA8
:1001E0001ADD681C18D0B9F1000F0DD0E81705EB27
:1001F000D060421120F01F0059F822102A1A012065
:1002000090400142E0D107E0BBF1000FDCD1216A50
:10021000284688470028D7D0E16901988847BBF174
:10022000000F07D1002E05DD5FEACA7002D1002160
:1002300088F80010A068B84203DDBBF1000F03D0BE
:1002400017B16FF00100B6E73046B4E7024B936197
:10025000024BD36100F032B80D130008A102000870
:10026000064C074D06E0E06840F0010394E8070003
:1002700098471034AC42F6D3FFF73CFF381400081F
:1002800058140008094910B508784C1C18B1401ED4
:100290000870205C10BD00210720ABBE207010BD8F
:1002A00002490878421C0A70704700001C000020B8
:1002B000026811441378016018467047D160044900
:1002C00051610449116200211161114600F00AB820
:1002D000B1020008D9020008C0B24FF4F05100F09A
:1002E00099B900002DE9F34F8BB04FF0000801F1F0
:1002F0000C000C464FF0010B46460DF1080A019028
:100300006269012101989047051E2DD0252D2CD022
:10031000216A8847C0B16269012101989047216A2A
:1003200088470028F7D1411E62690198904700E094
:10033000761CA1690B988847216A88470028F7D165
:10034000E1690B988847DBE7A1690B988847074666
:10035000A84201D1761CD3E7E1690B9888477F1C3E
:1003600002D1B8F1000F6FD047E1002762693D4626
:100370003946019890472A2804D1626901210198E1
:1003800090470125DFF88892626901210198904722
:10039000A0F130010A290AD24F45E5DC07EB8701BD
:1003A00000EB4107303FDFD445F01005ECE7E906EC
:1003B00001D46FF000476C280AD04C2814D068286C
:1003C00015D06A280DD074281CD07A281AD01DE0C8
:1003D00062690121019890476C2802D045F004051C
:1003E00014E045F002050DE045F020050AE06269E1
:1003F000012101989047682802D045F0080505E0E2
:1004000045F400656269012101989047C4E90157EC
:1004100065283DD019DC58287AD00CDC452837D027
:1004200004DC252826D0412831D131E046282FD0C0
:1004300047282CD12CE05B2877D0612828D063286E
:100440007CD0642823D15AE0D1E06F2848D008DC62
:1004500066281DD067281BD0692821D06E2816D1A8
:1004600027E0702845D0732868D0752847D07828B1
:100470000DD14DE0A1690B988847054625283FF42A
:1004800069AFE1690B9888476D1C3FF46AAFB4E02F
:1004900023466A466FF001000B99AFF300809FE09E
:1004A00045F040006060A80723464FF0000236D4B4
:1004B0003EE0E8077FF447AF2068011D2160006837
:1004C000290501D506701BE7290701D5068017E726
:1004D000A90703D5F117C0E9006111E706600FE72E
:1004E00045F040006060A80723464FF0080216D48C
:1004F0001EE040F60E0125EA0100606016E045F0BE
:1005000040006060A80723464FF00A0207D40FE0BE
:1005100045F040006060A80708D5234610226FF020
:1005200001000B99AFF300805AE007E02346102248
:100530006FF001000B99AFF3008051E04FF000091C
:100540004F464B46632802D05B2807D041E0207914
:10055000C00601D40120A06001273AE062690121B0
:10056000019890475E2805D14FF00109626949461C
:1005700001989047216939B900210A46534643F84A
:100580002120491C0829FADBB0B3216969B9C117D8
:1005900000EBD16253110AEB830122F01F02821A91
:1005A00001200B68904003430B60626901210198B0
:1005B00090475D28E8D1B9F1000F09D000205146DD
:1005C00051F82020D24341F82020401C0828F7DBB6
:1005D00002AB224600976FF001000B99FFF7C6FDB2
:1005E00000280CDA401C08D1BBF1000F05D04FF0F9
:1005F000FF300DB0BDE8F08FFFE74046F9E7E907AF
:1006000001D108F1010806444FF0000B78E6000024
:10061000CCCCCC0C7F2801D9002208E0064A02EBA2
:100620005002C007127800D1120902F00F02012017
:100630009040084070470000F8130008FEE770473C
:1006400072B6FEE72DE9F84FDFF8B891002409F102
:10065000040A0AF1040B23460F270BF1040EC9E02C
:100660000125A5402A40AA427DD1674ED1F804C099
:10067000ACEB0608B44532D014DCBCF1030F3AD021
:1006800009DCBCF1000F2AD0BCF1010F1CD0BCF179
:10069000020F31D11DE0BCF1110F17D0BCF1120FC8
:1006A0002AD119E0B8F5881F19D006DCB8F5803FCB
:1006B00015D0B8F5801F1FD111E0B8F5001F0ED07E
:1006C000B8F5041F18D10AE0CB6815E0CB681B1DF4
:1006D00012E0CB6808330FE0CB680C330CE08B687A
:1006E0002BB1012B4FF0080303D0456104E0042334
:1006F00002E0056100E00023FF2A01D8064601E080
:1007000000F104064FEA840501D9A5F12005D6F8C9
:10071000008007FA05FC28EA0C0803FA05F548EA08
:100720000508C6F800804D68ED0062D5374DAE690A
:1007300046F00106AE61AD6924F0030605F001053F
:100740000095334D06EB050CDCF80850A607360F74
:1007500007FA06F825EA0805DFF8B880404503D116
:100760004FF0000817E044E0DFF8AC80404502D1CC
:100770004FF001080FE0DFF8A480404502D14FF0B0
:10078000020808E0DFF89880404502D14FF00308E6
:1007900001E04FF0040808FA06F848EA0508CCF82A
:1007A00008804D68D9F80060ED034D4601D5164329
:1007B00000E096432E604D68DAF80060AD035546C0
:1007C00001D5164300E096432E604D68DBF80060CB
:1007D000ED025D4601D5164300E096432E604D685C
:1007E000DEF80060AD02754601D5164300E0964381
:1007F0002E60641C0D682A46E5407FF431AFBDE8E9
:10080000F88F0000000401400000111000100240A9
:100810000000014000080140000C014000100140B0
:100820000014014001488068704700000400002067
:1008300002488168027811448160704704000020FA
:10084000074810B5016841F010010160032000F075
:1008500067F80F2000F006F800F024F8002010BD23
:100860000020024070B50D4D04464FF47A7128788F
:10087000B1FBF0F00A490968B1FBF0F000F0DEFAD4
:1008800048B9102C07D200222146501E00F028F84B
:1008900000206C6070BD012070BD000004000020CD
:1008A000100000200C4808B5816941F00101816108
:1008B000816901F001010091C16941F08051C1617C
:1008C000C06900F0805000900448416821F0E06168
:1008D00041F00071416008BD00100240000001407D
:1008E000F0B40E4B1B680C46C3F30223C3F107059B
:1008F000042D00D90425191D072901D2002300E089
:10090000DB1E012606FA05F1491E214099409E4052
:10091000761E16403143F0BC00F0C8BC0CED00E080
:10092000064900F0070208684FF6FF03184040EA46
:100930000220034A10430860704700000CED00E0FD
:100940000000FA052DE9F0470F46050061D0434E3F
:10095000306800F00700B84209D2306820F0070084
:1009600038433060306800F00700B84251D1286841
:100970003B4C810712D5400703D5606840F4E06026
:1009800060602878000703D5606840F460506060BC
:100990006068A96820F0F000084360602878C0070C
:1009A00028D06868012810D02168022810D0890753
:1009B00000292EDA616821F0030101436160FFF72D
:1009C00031FF804641F288390DE021688903EFE765
:1009D0008901EDE7FFF726FFA0EB0801494502D9A1
:1009E0000320BDE8F0876068696800F00C00B0EB98
:1009F000810FEFD1306800F00700B8420BD93068A2
:100A000020F0070038433060306800F00700B8423B
:100A100001D00120E5E72878400705D56068E9683E
:100A200020F4E060084360602878000706D560681D
:100A3000296920F4605040EAC100606000F038F895
:100A40006168084AC1F30311515CC8400649086057
:100A500006480068FFF706FF0020C2E700200240BA
:100A600000100240E01300081000002008000020E1
:100A70000448054900684968044AC1F30221515CF1
:100A8000C84070471000002000100240F01300081A
:100A90000448054900684968044AC1F3C221515C11
:100AA000C84070471000002000100240F0130008FA
:100AB00012A185B00FC98DE80F0014A0144A006878
:100AC00004905168134801F00C03042B10D0082B3C
:100AD0000ED1C1F38343C9031DF803000AD5516841
:100AE00004AAC1F34041515C0A4A5043B0FBF1F003
:100AF00005B0704708494843FAE7000002030405BF
:100B0000060708090A0B0C0D0E0F10100102000059
:100B10000010024000127A0000093D002DE9F84F54
:100B2000040070D02078C04DC00749D06868C0F379
:100B30008100012807D06868C0F38100022809D12C
:100B40006868C00306D52868800339D56068002826
:100B5000E7D035E06068B0F5803F0BD010B1B0F55C
:100B6000A02F11D0286820F480302860286820F455
:100B7000802002E0286840F480302860606890B1EE
:100B8000FFF750FE06460AE0286840F480202860FF
:100B9000F0E700BFFFF746FE801B642873D8286883
:100BA0008003F7D50CE0FFF73DFE064605E000BFE9
:100BB000FFF738FE801B6428F0D828688003F7D43C
:100BC00020789A4E80074FF001094FF0000839D580
:100BD000686810F00C0F07D06868C0F38100022825
:100BE00009D16868C00306D42868800714D5206935
:100BF000012808D110E02069B0B1C6F80090FFF7D5
:100C000011FE074605E00AE1FFF70CFEC01B0228B3
:100C1000C4D828688007F7D52868616920F0F800F3
:100C200040EAC10028600DE0C6F80080FFF7FAFD39
:100C3000074604E0FFF7F6FDC01B022823D828680A
:100C40008007F7D4207800072CD57948A169D9B15D
:100C5000C0F80090FFF7E6FD074604E0FFF7E2FD6D
:100C6000C01B02280FD8686A8007F7D571484FF477
:100C7000FA510068B0FBF1F0009000BF0098411EEF
:100C80000091FAD20EE080E0C0F80080FFF7CAFDC4
:100C9000074604E0FFF7C6FDC01B022875D8686A46
:100CA0008007F7D42078400760D5E8690027C000A6
:100CB00008D4E86940F08050E861E869012700F055
:100CC000805000905C480168C90513D401688346D0
:100CD00041F480710160FFF7A5FD824606E000BF88
:100CE000FFF7A0FDA0EB0A0064284ED8DBF8000057
:100CF000C005F5D5E06801280AD008B1052813D051
:100D0000286A20F001002862286A20F0040002E02E
:100D1000286A40F001002862E06841F2883B98B1FF
:100D2000FFF780FD82460BE0286A40F0040028624D
:100D3000EEE700BFFFF776FDA0EB0A0159455AD850
:100D4000286A8007F6D50CE0FFF76CFD824605E0C7
:100D5000FFF768FDA0EB0A0159454CD8286A8007C7
:100D6000F6D41FB1E86920F08050E861E06988B3EB
:100D70006968C1F38101022944D00228C6F8608065
:100D800004D0FFF74FFD044638E034E0FFF74AFD9A
:100D9000074604E0FFF746FDC01B02282BD8286851
:100DA0008001F7D4206AB0F5803F05D16868A1685A
:100DB00020F4003008436860D4E9080108436968FA
:100DC00021F4741108436860C6F86090FFF72AFDAB
:100DD000044606E025E000BFFFF724FD001B0228C3
:100DE00009D828688001F7D51BE000BFFFF71AFD7E
:100DF000001B022802D90320BDE8F88F2868800173
:100E0000F4D40EE00128F7D06868226A00F480313B
:100E1000914204D1616A00F47010884201D001202F
:100E2000EAE70020E8E7000000100240000042422C
:100E300080044242100000200070004010B5401EA7
:100E4000B0F1807F01D3012010BD4FF0E02460613C
:100E50000F21601700F02AFA0020A061072020610E
:100E6000002010BD70B5040004D094F83D000025AA
:100E700010B106E0012070BD84F83C50204600F01F
:100E800023F8242084F83D002068C16821F4005133
:100E9000C160204600F072F92068016921F4904198
:100EA00001612068416921F02A0141612068C1681F
:100EB00041F40051C1602564202084F83D0084F88D
:100EC0003E00002070BD000030B585B000240094C5
:100ED00001940294039400681449884224D1144870
:100EE000816941F480418161816901F4804104910B
:100EF000816941F00401816180690E4D00F00400B8
:100F000004904FF4007000900220019003200390A1
:100F100069462846FFF796FB2815CDE90004694687
:100F200028460294FFF78EFB05B030BD0038014023
:100F300000100240000801402DE9F84F044690F8E7
:100F40003E009A4616460D46202853D1FDB1F6B113
:100F500094F83C0001284DD0012084F83C00002783
:100F60002764222084F83E002763FFF75BFCA685F8
:100F70008146E685A0684FF48058404501D120693C
:100F800040B12E465FF0000584F83C7027E0012058
:100F9000BDE8F88F0026F7E74B46002220212046C7
:100FA000CDF800A000F046F908B10320F0E726B123
:100FB000A06840451BD038B108E020684068C0F305
:100FC000080025F8020B07E0206980B1206840681E
:100FD00000F07F0006F8010BE08D401EE085E08DFB
:100FE0000028D9D1202084F83E000020D0E72068D6
:100FF0004068EFE70220CBE72DE9F843044690F87C
:101000003D001F4616460D4620284CD1C5B1BEB145
:1010100094F83C00012846D0012084F83C004FF0B1
:101020000008C4F84080212084F83D00FFF7FAFB57
:10103000A6848146E684A068B0F5805F03D004E012
:101040000120BDE8F883206928B12E465FF0000535
:1010500084F83C800EE00026FAE78021204600F06C
:10106000E9F8A0B9AEB116F8010B21684860E08C30
:10107000401EE084E08C4B464FF0000200970028B1
:10108000EBD14FF04001204600F0D4F830B10320FE
:10109000D7E735F8020BC0F30800E6E7202084F814
:1010A0003D000020CDE70220CBE7FEE7094808B568
:1010B000816941F020018161816901F02001009185
:1010C000816941F004018161806900F004000090B1
:1010D00008BD0000001002400C4810B50A4901602C
:1010E0004FF416514160002181600C22C160C0E9BB
:1010F00004128161C161FFF7B5FE002803D0BDE88D
:101100001040FFF79DBA10BD003801402C000020B0
:10111000FEE7FEE770477047FFF78ABB30B58FB038
:1011200028216846FFF707F814210AA8FFF703F8FB
:1011300001210804CDE90010002402940225049145
:10114000CDE907504FF4E01009906846FFF7E6FC40
:1011500008B172B6FEE70F20CDE90A054FF48060B2
:10116000CDE90C4002210AA80E94FFF7EBFB002802
:1011700001D072B6FEE70FB030BD704770B50446BF
:1011800000680169E26821F440511143016121695D
:10119000A0680843616908432168CA6841F20C638A
:1011A0009A430243CA6020684169A26921F44071F0
:1011B000114341611E492068884202D1FFF768FC53
:1011C00001E0FFF755FC00EBC00101EB0012606885
:1011D00064218000B2FBF0F3B3FBF1F36FF018066B
:1011E0007343B2FBF0F5B2FBF0F605EB8305322357
:1011F00003EB0515B5FBF1F5B6FBF1F605F0F005CF
:1012000005EB0615B2FBF0F6B2FBF0F0B0FBF1F027
:101210006FF01802504306EB800003EB0010B0FBA8
:10122000F1F0216800F00F002844886070BD0000D4
:10123000003801402DE9F041984617460E46044615
:10124000069D1DE0681C1BD02DB1FFF7EBFAA0EB4B
:101250000800A84214D92068C16821F4D071C16087
:101260002068416921F001014161202084F83D009E
:1012700084F83E00002084F83C000320BDE8F081A3
:101280002068006836EA000004D00020B842D9D0B7
:101290000020F3E70120F9E7FEE70000014A0249D8
:1012A00000F023B829130008180000200907090ED0
:1012B000002804DB00F1E02080F80014704700F003
:1012C0000F0000F1E02080F8141D704702E008C80C
:1012D000121F08C1002AFAD170477047002001E0B0
:1012E00001C1121F002AFBD170472DE9F0411646BB
:1012F0000F460446002503E03946B047641C6D1CC8
:1013000020780028F8D12846BDE8F08108B54FF0D4
:10131000FF33012269460348FFF70EFE9DF80000E7
:1013200008BD00002C00002013B54FF0FF33012250
:1013300069460248FFF760FE00981CBD2C000020A3
:10134000FFF77EFAFFF7EAFEFFF7B0FEFFF7C4FEF5
:1013500010A0FFF7A3FF144C64230522134914487F
:10136000FFF7EAFD28B96423052210491048FFF76A
:1013700043FE0D490FA0FEF7E9FE0128ECD12078CD
:10138000792804D00CA000BFFFF788FFE4E70FA086
:10139000FAE7000055415254205265746172676546
:1013A000743A0D0A00000000000000202000002018
:1013B0002C000020256300004E4F542020726563EE
:1013C00065697665642079210D0A0000E586AFE540
:1013D000A587E5A4A7E5B885E980BC5C720A000092
:1013E00000000000000000000102030406070809D5
:1013F0000000000001020304DDDDDDDDDCBBBBDD40
:10140000DDDDDDDDDDDDDDDD9888888888888888A4
:1014100077777777778888888555555666666666C4
:1014200066666666666888888333333222222222A3
:10143000222222222228888D581400080000002031
:1014400020000000CC1200087814000820000020C2
:1014500050040000DC120008000000000100000041
:1014600010000000000000000024F4000000000054
:08147000000000000000000074
:04000005080000ED02
:00000001FF
