:020000040800F2
:100000004805002005010008A7190008C7170008C7
:10001000A51900083D060008D51D000800000000D5
:10002000000000000000000000000000DB190008D4
:100030007506000800000000D9190008DD19000845
:100040001F0100081F0100081F0100081F01000810
:100050001F0100081F0100081F0100081F01000800
:100060001F0100081F0100081F0100081F010008F0
:100070001F0100081F0100081F0100081F010008E0
:100080001F0100081F0100081F0100081F010008D0
:100090001F0100081F0100081F0100081F010008C0
:1000A0001F010008411A00081F0100081F01000875
:1000B0001F0100081F0100081F0100081F010008A0
:1000C0001F0100081F0100081F0100081F01000890
:1000D0001F0100081F0100081F0100081F01000880
:1000E0001F0100081F0100081F010008DFF810D0E1
:1000F00000F0B6F8004800477D1E0008AFF300800E
:10010000480500200648804706480047FEE7FEE70E
:10011000FEE7FEE7FEE7FEE7FEE7FEE7FEE7FEE7B7
:100120003D1A0008ED000008D2B201E000F8012BF2
:10013000491EFBD270470022F6E710B513460A4667
:1001400004461946FFF7F0FF204610BD0FB400B576
:1001500089B00BA800906A4603480A9900F076F827
:1001600009B05DF814FB0000140000202DE9FF5FCA
:10017000D2E901A74FF00008916999461446DDF8CD
:1001800038B0464601988847054659EA0B0005D025
:1001900009E0A169761C019888470546216A28462E
:1001A00088470028F5D1681C03D05FEACA7005D0E3
:1001B00015E04FF0FF3004B0BDE8F09F2068011D4E
:1001C0002160D0F800800AE05FEACA7001D108F827
:1001D000015BA169761C7F1E019888470546002FA8
:1001E0001ADD681C18D0B9F1000F0DD0E81705EB27
:1001F000D060421120F01F0059F822102A1A012065
:1002000090400142E0D107E0BBF1000FDCD1216A50
:10021000284688470028D7D0E16901988847BBF174
:10022000000F07D1002E05DD5FEACA7002D1002160
:1002300088F80010A068B84203DDBBF1000F03D0BE
:1002400017B16FF00100B6E73046B4E7024B936197
:10025000024BD36100F032B8491E0008A102000829
:10026000064C074D06E0E06840F0010394E8070003
:1002700098471034AC42F6D3FFF73CFFD81F000874
:10028000F81F0008094910B508784C1C18B1401E29
:100290000870205C10BD00210720ABBE207010BD8F
:1002A00002490878421C0A70704700001C000020B8
:1002B000026811441378016018467047D160044900
:1002C00051610449116200211161114600F00AB820
:1002D000B1020008D9020008C0B24FF4F05100F09A
:1002E00099B900002DE9F34F8BB04FF0000801F1F0
:1002F0000C000C464FF0010B46460DF1080A019028
:100300006269012101989047051E2DD0252D2CD022
:10031000216A8847C0B16269012101989047216A2A
:1003200088470028F7D1411E62690198904700E094
:10033000761CA1690B988847216A88470028F7D165
:10034000E1690B988847DBE7A1690B988847074666
:10035000A84201D1761CD3E7E1690B9888477F1C3E
:1003600002D1B8F1000F6FD047E1002762693D4626
:100370003946019890472A2804D1626901210198E1
:1003800090470125DFF88892626901210198904722
:10039000A0F130010A290AD24F45E5DC07EB8701BD
:1003A00000EB4107303FDFD445F01005ECE7E906EC
:1003B00001D46FF000476C280AD04C2814D068286C
:1003C00015D06A280DD074281CD07A281AD01DE0C8
:1003D00062690121019890476C2802D045F004051C
:1003E00014E045F002050DE045F020050AE06269E1
:1003F000012101989047682802D045F0080505E0E2
:1004000045F400656269012101989047C4E90157EC
:1004100065283DD019DC58287AD00CDC452837D027
:1004200004DC252826D0412831D131E046282FD0C0
:1004300047282CD12CE05B2877D0612828D063286E
:100440007CD0642823D15AE0D1E06F2848D008DC62
:1004500066281DD067281BD0692821D06E2816D1A8
:1004600027E0702845D0732868D0752847D07828B1
:100470000DD14DE0A1690B988847054625283FF42A
:1004800069AFE1690B9888476D1C3FF46AAFB4E02F
:1004900023466A466FF001000B99AFF300809FE09E
:1004A00045F040006060A80723464FF0000236D4B4
:1004B0003EE0E8077FF447AF2068011D2160006837
:1004C000290501D506701BE7290701D5068017E726
:1004D000A90703D5F117C0E9006111E706600FE72E
:1004E00045F040006060A80723464FF0080216D48C
:1004F0001EE040F60E0125EA0100606016E045F0BE
:1005000040006060A80723464FF00A0207D40FE0BE
:1005100045F040006060A80708D5234610226FF020
:1005200001000B99AFF300805AE007E02346102248
:100530006FF001000B99AFF3008051E04FF000091C
:100540004F464B46632802D05B2807D041E0207914
:10055000C00601D40120A06001273AE062690121B0
:10056000019890475E2805D14FF00109626949461C
:1005700001989047216939B900210A46534643F84A
:100580002120491C0829FADBB0B3216969B9C117D8
:1005900000EBD16253110AEB830122F01F02821A91
:1005A00001200B68904003430B60626901210198B0
:1005B00090475D28E8D1B9F1000F09D000205146DD
:1005C00051F82020D24341F82020401C0828F7DBB6
:1005D00002AB224600976FF001000B99FFF7C6FDB2
:1005E00000280CDA401C08D1BBF1000F05D04FF0F9
:1005F000FF300DB0BDE8F08FFFE74046F9E7E907AF
:1006000001D108F1010806444FF0000B78E6000024
:10061000CCCCCC0C7F2801D9002208E0064A02EBA2
:100620005002C007127800D1120902F00F02012017
:100630009040084070470000981F0008FEE7000047
:100640000A4A002011684863136842F6E061996322
:100650001368D86312681164054A136858631368F5
:1006600099631368D9631168086470472C000020EF
:1006700074000020704772B6FEE700002DE9F84FC5
:10068000DFF8B891002409F1040A0AF1040B2346AB
:100690000F270BF1040EC9E00125A5402A40AA420C
:1006A0007DD1674ED1F804C0ACEB0608B44532D01A
:1006B00014DCBCF1030F3AD009DCBCF1000F2AD0E6
:1006C000BCF1010F1CD0BCF1020F31D11DE0BCF117
:1006D000110F17D0BCF1120F2AD119E0B8F5881FFD
:1006E00019D006DCB8F5803F15D0B8F5801F1FD1B2
:1006F00011E0B8F5001F0ED0B8F5041F18D10AE0BC
:10070000CB6815E0CB681B1D12E0CB6808330FE007
:10071000CB680C330CE08B682BB1012B4FF0080336
:1007200003D0456104E0042302E0056100E00023FA
:10073000FF2A01D8064601E000F104064FEA8405CD
:1007400001D9A5F12005D6F8008007FA05FC28EAB2
:100750000C0803FA05F548EA0508C6F800804D685C
:10076000ED0062D5374DAE6946F00106AE61AD6968
:1007700024F0030605F001050095334D06EB050C4A
:10078000DCF80850A607360F07FA06F825EA080530
:10079000DFF8B880404503D14FF0000817E044E08F
:1007A000DFF8AC80404502D14FF001080FE0DFF8E0
:1007B000A480404502D14FF0020808E0DFF898809D
:1007C000404502D14FF0030801E04FF0040808FA59
:1007D00006F848EA0508CCF808804D68D9F80060AA
:1007E000ED034D4601D5164300E096432E604D685B
:1007F000DAF80060AD03554601D5164300E0964394
:100800002E604D68DBF80060ED025D4601D51643B1
:1008100000E096432E604D68DEF80060AD0275463C
:1008200001D5164300E096432E60641C0D682A46ED
:10083000E5407FF431AFBDE8F88F000000040140CF
:1008400000001110001002400000014000080140AB
:10085000000C014000100140001401400148806874
:1008600070470000040000200248816802781144AB
:100870008160704704000020074810B5016841F00E
:1008800010010160032000F09BF80F2000F006F833
:1008900000F04AF8002010BD0020024030B50546A7
:1008A0001C4887B0816941F400618161806906A9B3
:1008B00000F40060009001A800F02AF900F058F957
:1008C0001549164AB0FBF1F11548491E0260416016
:1008D00040F2E7320021C0E903218160816100F02C
:1008E00053FB040012D10E4800F0B8FB04000DD1F8
:1008F000192000F037F8102D07D2002229461920C0
:1009000000F03EF80748056000E0012407B02046EB
:1009100030BD00000010024040420F00002C01409A
:1009200000010020080000200C4808B5816941F052
:1009300001018161816901F001010091C16941F00A
:100940008051C161C06900F0805000900448416846
:1009500021F0E06141F00071416008BD00100240EB
:1009600000000140002809DB00F01F020121914036
:100970004009800000F1E020C0F80011704700003D
:10098000F0B40E4B1B680C46C3F30223C3F10705FA
:10099000042D00D90425191D072901D2002300E0E8
:1009A000DB1E012606FA05F1491E214099409E40B2
:1009B000761E16403143F0BC01F016BA0CED00E093
:1009C000064900F0070208684FF6FF03184040EAA6
:1009D0000220034A10430860704700000CED00E05D
:1009E0000000FA052DE9F0470F46050061D0434E9F
:1009F000306800F00700B84209D2306820F00700E4
:100A000038433060306800F00700B84251D12868A0
:100A10003B4C810712D5400703D5606840F4E06085
:100A200060602878000703D5606840F4605060601B
:100A30006068A96820F0F000084360602878C0076B
:100A400028D06868012810D02168022810D08907B2
:100A500000292EDA616821F0030101436160FFF78C
:100A6000FDFE804641F288390DE021688903EFE7F9
:100A70008901EDE7FFF7F2FEA0EB0801494502D935
:100A80000320BDE8F0876068696800F00C00B0EBF7
:100A9000810FEFD1306800F00700B8420BD9306801
:100AA00020F0070038433060306800F00700B8429B
:100AB00001D00120E5E72878400705D56068E9689E
:100AC00020F4E060084360602878000706D560687D
:100AD000296920F4605040EAC100606000F058F8D5
:100AE0006168084AC1F30311515CC84006490860B7
:100AF00006480068FFF7D2FE0020C2E7002002404F
:100B000000100240801F0008100000200800002094
:100B10000F2202600C4A536803F0030343605368DA
:100B200003F0F0038360536803F4E063C36052682A
:100B30004FF4E06303EAD20202610448006800F067
:100B400007000860704700000010024000200240CB
:100B50000448054900684968044AC1F30221515C10
:100B6000C84070471000002000100240901F00088D
:100B70000448054900684968044AC1F3C221515C30
:100B8000C84070471000002000100240901F00086D
:100B900012A185B00FC98DE80F0014A0144A006897
:100BA00004905168134801F00C03042B10D0082B5B
:100BB0000ED1C1F38343C9031DF803000AD5516860
:100BC00004AAC1F34041515C0A4A5043B0FBF1F022
:100BD00005B0704708494843FAE7000002030405DE
:100BE000060708090A0B0C0D0E0F10100102000079
:100BF0000010024000127A0000093D002DE9F84F74
:100C0000040070D02078C04DC00749D06868C0F398
:100C10008100012807D06868C0F38100022809D14B
:100C20006868C00306D52868800339D56068002845
:100C3000E7D035E06068B0F5803F0BD010B1B0F57B
:100C4000A02F11D0286820F480302860286820F474
:100C5000802002E0286840F480302860606890B10D
:100C6000FFF7FCFD06460AE0286840F48020286073
:100C7000F0E700BFFFF7F2FD801B642873D82868F7
:100C80008003F7D50CE0FFF7E9FD064605E000BF5D
:100C9000FFF7E4FD801B6428F0D828688003F7D4B0
:100CA00020789A4E80074FF001094FF0000839D59F
:100CB000686810F00C0F07D06868C0F38100022844
:100CC00009D16868C00306D42868800714D5206954
:100CD000012808D110E02069B0B1C6F80090FFF7F4
:100CE000BDFD074605E00AE1FFF7B8FDC01B02287D
:100CF000C4D828688007F7D52868616920F0F80013
:100D000040EAC10028600DE0C6F80080FFF7A6FDAC
:100D1000074604E0FFF7A2FDC01B022823D828687D
:100D20008007F7D4207800072CD57948A169D9B17C
:100D3000C0F80090FFF792FD074604E0FFF78EFD34
:100D4000C01B02280FD8686A8007F7D571484FF496
:100D5000FA510068B0FBF1F0009000BF0098411E0E
:100D60000091FAD20EE080E0C0F80080FFF776FD37
:100D7000074604E0FFF772FDC01B022875D8686AB9
:100D80008007F7D42078400760D5E8690027C000C5
:100D900008D4E86940F08050E861E869012700F074
:100DA000805000905C480168C90513D401688346EF
:100DB00041F480710160FFF751FD824606E000BFFB
:100DC000FFF74CFDA0EB0A0064284ED8DBF80000CA
:100DD000C005F5D5E06801280AD008B1052813D070
:100DE000286A20F001002862286A20F0040002E04E
:100DF000286A40F001002862E06841F2883B98B11F
:100E0000FFF72CFD82460BE0286A40F004002862C0
:100E1000EEE700BFFFF722FDA0EB0A0159455AD8C3
:100E2000286A8007F6D50CE0FFF718FD824605E03A
:100E3000FFF714FDA0EB0A0159454CD8286A80073A
:100E4000F6D41FB1E86920F08050E861E06988B30A
:100E50006968C1F38101022944D00228C6F8608084
:100E600004D0FFF7FBFC044638E034E0FFF7F6FC63
:100E7000074604E0FFF7F2FCC01B02282BD82868C5
:100E80008001F7D4206AB0F5803F05D16868A16879
:100E900020F4003008436860D4E908010843696819
:100EA00021F4741108436860C6F86090FFF7D6FC1F
:100EB000044606E025E000BFFFF7D0FC001B022837
:100EC00009D828688001F7D51BE000BFFFF7C6FCF2
:100ED000001B022802D90320BDE8F88F2868800192
:100EE000F4D40EE00128F7D06868226A00F480315B
:100EF000914204D1616A00F47010884201D001204F
:100F0000EAE70020E8E7000000100240000042424B
:100F1000800442421000002000700040704770477B
:100F200070B590F83C20012A26D0012480F83C407E
:100F3000022280F83D2003685A689D6822F07006FE
:100F40000A6832435A600D4B02689A4208D0B2F1E7
:100F5000804F05D00A4B9A4202D00A4B9A4204D1E4
:100F6000496825F080031943916080F83D400021D5
:100F700080F83C10084670BD022070BD002C014076
:100F8000000400400008004010B5040003D094F8AD
:100F90003D0010B107E0012010BD002084F83C00A6
:100FA000204600F01FF8022084F83D00211D206833
:100FB00000F04CFD012084F8460084F83E0084F8DF
:100FC0003F0084F8400084F8410084F8420084F82F
:100FD000430084F8440084F8450084F83D00002074
:100FE00010BD000008B500680649884208D10648CF
:100FF000C16941F00201C161C06900F002000090C6
:1010000008BD0000000400400010024090F83D10B0
:10101000012901D001207047022180F83D100068AD
:101020000B49884208D0B0F1804F05D00949884269
:1010300002D00949884204D1816801F007010629DC
:1010400003D0016841F001010160002070470000F9
:10105000002C0140000400400008004090F83D10C2
:10106000012901D001207047022180F83D1001685C
:10107000CA6842F00102CA6000680B49884208D081
:10108000B0F1804F05D00949884202D00849884212
:1010900004D1816801F00701062903D0016841F0FD
:1010A0000101016000207047002C01400004004055
:1010B0000008004070B5044690F83C00012817D0A5
:1010C000012584F83C50022084F83D0020688268A5
:1010D00022F0770222F47F4282600868502830D0E4
:1010E0000DDC20284DD005DC98B310283BD148E01A
:1010F000022070BD302844D0402834D139E0602827
:1011000028D0702806D0B0F5805F2CD0B0F5005FF5
:1011100029D10AE0CB68D1E90121206800F0D9FC8F
:101120002068816841F0770109E0CB68D1E90121AD
:10113000206800F0CEFC2068816841F48041816025
:1011400011E0CA684968206800F078FD50212068E5
:1011500007E016E0CA684968206800F080FD602159
:10116000206800F0C0FC84F83D50002084F83C006A
:1011700070BDCA684968206800F060FD40212068A1
:10118000EFE7226801461046EBE7704770B504466A
:10119000006801694FF00005C943890715D4C1688B
:1011A000C943890711D4E91E016101202077206815
:1011B00080698007204602D0FFF7E7FF04E000F0D7
:1011C000E1F8204600F082F9257720680169C943DB
:1011D000490717D4C168C943490713D46FF0040104
:1011E0000161022020772068806910F4407F20464A
:1011F00002D0FFF7CAFF04E000F0C4F8204600F078
:1012000065F9257720680169C943090716D4C168C3
:10121000C943090712D46FF0080101610420207747
:101220002068C0698007204602D0FFF7AEFF04E0C7
:1012300000F0A8F8204600F049F9257720680169F8
:10124000C943C90617D4C168C943C90613D46FF08E
:1012500010010161082020772068C06910F4407FE8
:10126000204602D0FFF791FF04E000F08BF8204603
:1012700000F02CF9257720680169C943C90708D116
:10128000C168C943C90704D1891E0161204600F025
:101290006DF920680169C943090609D4C168C943C9
:1012A000090605D46FF0800101612046FFF736FE84
:1012B00020680169C943490609D4C168C943490680
:1012C00005D46FF040010161204600F059F9206813
:1012D0000169C94389060BD4C168C943890607D48B
:1012E0006FF0200101612046BDE87040FFF717BE96
:1012F00070BD000010B586B00021009101910291EF
:10130000039102681B4902241B48B2F1804F23D08D
:101310001A4B9A421ED18A6942F004028A618A6994
:1013200002F0040204928A6942F008028A61896923
:10133000039401F008010491C021CDE9001469462D
:10134000FFF79CF90320CDE9000469460C4803949B
:10135000FFF794F906B010BD8A6942F004028A6171
:101360008969039401F0040104910F21CDE900146F
:101370006946EDE70010024000080140000400400B
:10138000000C0140704770B5044690F83C000D46D3
:1013900001280AD0012084F83C0042B1042A18D068
:1013A000082A2AD00C2A4DD139E0022070BD2068CD
:1013B00000F0A2FB2068816941F00801816120688A
:1013C000816921F004018161206881692A691143E2
:1013D00011E0206800F0B8FB2068816941F40061E9
:1013E00081612068816921F480618161206881695F
:1013F0002A6941EA0221816124E0206800F0D0FBE3
:101400002068C16941F00801C1612068C16921F00B
:101410000401C1612068C1692A69114311E0206893
:1014200000F0EAFB2068C16941F40061C1612068F5
:10143000C16921F48061C1612068C1692A6941EAFA
:101440000221C161002084F83C0070BD10B5040089
:1014500003D094F83D0010B107E0012010BD00203A
:1014600084F83C00204600F01FF8022084F83D007C
:10147000211D206800F0EAFA012084F8460084F873
:101480003E0084F83F0084F8400084F8410084F86E
:10149000420084F8430084F8440084F8450084F84E
:1014A0003D00002010BD000008B50068B0F1804F7D
:1014B00008D10548C16941F00101C161C06900F06E
:1014C0000100009008BD00000010024070470000BD
:1014D00010B50446022249B104290ED0082913D0C0
:1014E00094F84100012816D0012010BD94F83E0068
:1014F0000128F9D184F83E200FE094F83F0001283C
:10150000F2D184F83F2008E094F840000128EBD1A4
:1015100084F8402001E084F841200122206800F096
:10152000CBFA0F492068884203D1426C42F4004252
:1015300042642068884208D0B0F1804F05D0094944
:10154000884202D00849884204D1816801F007012D
:10155000062903D0016841F001010160002010BD9F
:10156000002C0140000400400008004000680349CE
:10157000884201D1FFF778B970470000002C014084
:10158000704770B5040004D094F83D00002510B1F8
:1015900006E0012070BD84F83C50204600F022F89F
:1015A000242084F83D002068C16821F40051C16006
:1015B000204600F067FB2068016921F49041016139
:1015C0002068416921F02A0141612068C16841F425
:1015D0000051C1602564202084F83D0084F83E005D
:1015E000002070BD30B585B00024009401940294B1
:1015F000039400681449884224D11448816941F455
:1016000080418161816901F480410491816941F0E7
:101610000401816180690E4D00F0040004904FF4D4
:101620000070009002200190032003906946284634
:10163000FFF724F82815CDE90004694628460294EE
:10164000FFF71CF805B030BD003801400010024023
:10165000000801402DE9F84F044690F83E009A46F4
:1016600016460D46202853D1FDB1F6B194F83C0042
:1016700001284DD0012084F83C0000272764222057
:1016800084F83E002763FFF7E9F8A6858146E685E2
:10169000A0684FF48058404501D1206940B12E46E2
:1016A0005FF0000584F83C7027E00120BDE8F88F6A
:1016B0000026F7E74B46002220212046CDF800A067
:1016C00000F03CFB08B10320F0E726B1A0684045DC
:1016D0001BD038B108E020684068C0F3080025F846
:1016E000020B07E0206980B12068406800F07F00AD
:1016F00006F8010BE08D401EE085E08D0028D9D171
:10170000202084F83E000020D0E720684068EFE702
:101710000220CBE72DE9F843044690F83D001F4630
:1017200016460D4620284CD1C5B1BEB194F83C00F8
:10173000012846D0012084F83C004FF00008C4F88E
:101740004080212084F83D00FFF788F8A684814678
:10175000E684A068B0F5805F03D004E00120BDE816
:10176000F883206928B12E465FF0000584F83C809C
:101770000EE00026FAE78021204600F0DFFAA0B94B
:10178000AEB116F8010B21684860E08C401EE08481
:10179000E08C4B464FF0000200970028EBD14FF051
:1017A0004001204600F0CAFA30B10320D7E735F8EF
:1017B000020BC0F30800E6E7202084F83D0000207B
:1017C000CDE70220CBE7FEE70D4808B5816941F07F
:1017D00020018161816901F020010091816941F05E
:1017E00004018161816901F004010091816941F086
:1017F00008018161806900F00800009008BD0000C8
:101800000010024010B58AB0002407941C216846DD
:101810000894FEF790FC22484FF080410160472178
:10182000C0E9011442F20F71C0E903148461FFF7AB
:101830000DFE08B1FEF71FFF079407A9184808948A
:10184000FFF76EFB08B1FEF716FF6020CDE900043C
:1018500002940022694612480494FFF794FD08B1EF
:10186000FEF709FF042269460D48FFF78CFD08B119
:10187000FEF701FF082269460948FFF784FD08B119
:10188000FEF7F9FE0C2269460548FFF77CFD08B11A
:10189000FEF7F1FE0248FFF72DFD0AB010BD000073
:1018A0002C00002010B58EB00024079408940994F1
:1018B0000A940B941C2168460C94FEF73CFC2A48C1
:1018C000284901604721C0E9011442F20F71C0E9C3
:1018D00003148461FFF758FB08B1FEF7CCFE4FF408
:1018E0008050079007A92048FFF7E4FB08B1FEF7F6
:1018F000C2FE1D48FFF7AAFD08B1FEF7BCFE0B941F
:101900000BA919480C94FFF70BFB08B1FEF7B3FEC7
:101910006020CDE900040294002269461248049434
:10192000FFF731FD08B1FEF7A6FE042269460E4816
:10193000FFF729FD08B1FEF79EFE082269460A4816
:10194000FFF721FD08B1FEF796FE0C226946064816
:10195000FFF719FD08B1FEF78EFE0348FFF7CAFC3A
:101960000EB010BD00040040740000200C4810B5FB
:101970000A4901604FF416514160002181600C2238
:10198000C160C0E904128161C161FFF7FAFD00285E
:1019900003D0BDE81040FEF76EBE10BD0038014018
:1019A000BC000020FEE7FEE7094900200A685063FA
:1019B0000A6890630A68D0630968086405490A6880
:1019C00050630A6890630A68D063096808647047C6
:1019D0002C0000207400002070477047704730B51D
:1019E0008FB028216846FEF7A6FB14210AA8FEF74F
:1019F000A2FB01210804CDE9001000240294022575
:101A00000491CDE907504FF4E01009906846FFF7C4
:101A1000F5F808B172B6FEE70F20CDE90A054FF4DC
:101A20008060CDE90C4002210AA80E94FEF7DAFF8F
:101A3000002801D072B6FEE70FB030BD704700003D
:101A40000148FFF7A3BB000000010020F0B50268C9
:101A5000164B174C174D4FF08047984205D0B842AF
:101A600003D0A04201D0A84203D122F070064A68F8
:101A70003243984205D0B84203D0A04201D0A842D8
:101A800003D122F44074CA6822434C6922F08002D8
:101A9000224302608A68C2620A688262984201D167
:101AA0000969016301214161F0BD0000002C014082
:101AB000000400400008004010B501F01F030121A0
:101AC000046A99408C430462016A9A40114301629E
:101AD00010BD10B5846842EA032224F47F440A430F
:101AE0002243826010BD826822F070020A4342F0F5
:101AF000070181607047000030B5026A22F00102E0
:101B00000262026A4368846924F073050C682C43FE
:101B100022F002058A682A430A4DA8420BD122F01E
:101B20000805CA6823F440732A434D6922F0040271
:101B30001D438B692B4343608461496841630262A2
:101B400030BD0000002C014030B5026A22F01002C6
:101B50000262026A436884690D6824F4E64444EA38
:101B600005248D6822F0200242EA05120B4DA8429E
:101B70000ED1CD6822F0800242EA05124D6923F4AD
:101B8000406343EA85038D6922F0400243EA8503FE
:101B90004360846149688163026230BD002C01406A
:101BA00030B5026A22F480720262036A4268C46934
:101BB00023F4007324F073050C682C438D6843EA0A
:101BC00005230C4DA8420ED1CD6823F4006343EAEF
:101BD00005234D6922F4405242EA05128D6923F42F
:101BE000806342EA05124260C4614968C1630362CE
:101BF00030BD0000002C014030B5026A22F4805252
:101C00000262046A4268C3690D6823F4E64343EA4A
:101C100005238D6824F4005444EA0534064DA84297
:101C200004D14D6922F4804242EA85124260C361C8
:101C300049680164046230BD002C014010B5036A9C
:101C4000046A24F001040462846924F0F00444EA84
:101C5000021423F00A020A438461026210BD10B527
:101C6000036A23F0100303628369046A23F4704358
:101C700043EA023224F0A00343EA011182610162C7
:101C800010BD000070B5044600680169E26821F4E7
:101C90004051114301612169A0680843616908430B
:101CA0002168CA6841F20C639A430243CA60206803
:101CB0004169A26921F44071114341611E492068C4
:101CC000884202D1FEF754FF01E0FEF741FF00EB2E
:101CD000C00101EB0012606864218000B2FBF0F3E8
:101CE000B3FBF1F36FF018067343B2FBF0F5B2FBF0
:101CF000F0F605EB8305322303EB0515B5FBF1F593
:101D0000B6FBF1F605F0F00505EB0615B2FBF0F6B3
:101D1000B2FBF0F0B0FBF1F06FF01802504306EBAD
:101D2000800003EB0010B0FBF1F0216800F00F0021
:101D30002844886070BD0000003801402DE9F04162
:101D4000984617460E460446069D1DE0681C1BD0AB
:101D50002DB1FEF783FDA0EB0800A84214D920683E
:101D6000C16821F4D071C1602068416921F001018E
:101D70004161202084F83D0084F83E00002084F872
:101D80003C000320BDE8F0812068006836EA0000CE
:101D900004D00020B842D9D00020F3E70120F9E7B1
:101DA0000A4A42F6E06011684863136800219963AB
:101DB0001368D86312681164054A1368586313687E
:101DC00099631368D9631168086470472C00002078
:101DD00074000020FEE70000014A024900F023B829
:101DE000651E0008180000200907090E002804DB02
:101DF00000F1E02080F80014704700F00F0000F1BF
:101E0000E02080F8141D704702E008C8121F08C1C6
:101E1000002AFAD170477047002001E001C1121F6B
:101E2000002AFBD170472DE9F04116460F460446C3
:101E3000002503E03946B047641C6D1C207800285B
:101E4000F8D12846BDE8F08108B54FF0FF330122F4
:101E500069460348FFF7FEFB9DF8000008BD00003F
:101E6000BC00002013B54FF0FF3301226946024841
:101E7000FFF750FC00981CBDBC000020FEF7FCFCE6
:101E8000FFF7ADFDFFF7A0FCFFF7BCFCFFF70AFD75
:101E9000FFF76CFD2AA0FFF79FFF2E48FFF7B6F86B
:101EA0002D48FFF7B3F800212A48FFF711FB042162
:101EB0002848FFF70DFB08212648FFF709FB0C21F6
:101EC0002448FFF705FB00212348FFF701FB04210D
:101ED0002148FFF7FDFA08211F48FFF7F9FA0C2106
:101EE0001D48FFF7F5FA1D4C642305221C491D48C7
:101EF000FFF7B0FB28B96423052219491948FFF7F9
:101F000009FC164918A0FEF721F90128ECD1207828
:101F1000552804D1FFF744FF14A0FFF75DFF207898
:101F2000442804D1FEF78CFB11A0FFF755FF207861
:101F30004F28D9D1FFF738FD0FA0FFF74DFFD3E7AA
:101F400041726520796F752072656164793F0D0A71
:101F5000000000002C000020740000200000002081
:101F600020000020BC000020256300005550000028
:101F7000444F574E0000000053544F5000000000E3
:101F80000000000000000000010203040607080929
:101F90000000000001020304DDDDDDDDDCBBBBDD94
:101FA000DDDDDDDDDDDDDDDD9888888888888888F9
:101FB0007777777777888888855555566666666619
:101FC00066666666666888888333333222222222F8
:101FD000222222222228888DF81F000800000020DB
:101FE00020000000081E0008182000082000002023
:101FF00028050000181E0008000000000100000075
:1020000010000000000000000024F40000000000A8
:082010000000000000000000C8
:04000005080000ED02
:00000001FF
