:020000040800F2
:100000004005002005010008DF190008011700085D
:10001000DD190008C7030008691E00080000000081
:10002000000000000000000000000000131A00089B
:10003000FD03000800000000111A0008151A00084E
:100040001F0100081F0100081F0100081F01000810
:100050001F0100081F0100081F0100081F01000800
:100060001F0100081F0100081F0100081F010008F0
:100070001F0100081F0100081F0100081F010008E0
:100080001F0100081F0100081F0100081F010008D0
:100090001F0100081F0100081F0100081F010008C0
:1000A0001F0100081F0100081F0100081F010008B0
:1000B0001F0100081F010008791A00081F0100082D
:1000C0001F0100081F0100081F0100081F01000890
:1000D0001F0100081F0100081F0100081F01000880
:1000E0001F0100081F0100081F010008DFF810D0E1
:1000F00000F048F90048004751200008AFF30080A5
:10010000400500200648804706480047FEE7FEE716
:10011000FEE7FEE7FEE7FEE7FEE7FEE7FEE7FEE7B7
:10012000771A0008ED000008202A04DB203A21FAA3
:1001300002F00021704721FA02F3D040C2F1200200
:100140009140084319467047D2B201E000F8012BF4
:10015000491EFBD270470022F6E710B513460A4647
:1001600004461946FFF7F0FF204610BD2DE9FE4F6B
:1001700081EA030404F0004421F0004100944FF0B0
:10018000000B23F0004350EA01045ED052EA03045E
:100190005BD0C3F30A54C1F30A552C44A4F2F334E0
:1001A0000194A0FB0254C1F3130141F48011C3F385
:1001B000130343F4801301FB024400FB034E840A43
:1001C000970A44EA815447EA8357A4FB07680295DB
:1001D0008D0A05FB07854FEA932C04FB0C54270579
:1001E000029D4FEA065847EA1637B5EB08056EEB55
:1001F000070C870E920E47EA811742EA8312A7FB8B
:100200000201B6EB0B0164EB00042B0D43EA0C3347
:100210005E1844EB1C50DA465146E7FB0201C5F379
:1002200013044FEA0B3343EA14534FEA0432019CA0
:1002300043EA0603A4F10C040294009CCDE900B447
:1002400000F051F803B0BDE8F08F00200146F9E757
:100250000EB540F2334102910021CDE900110A466A
:100260000B4600F040F803B000BDC1F30A5210B5D0
:10027000C1F3130140F2FF3341F480119A4201DAD5
:10028000002010BD40F233439A42A2F2334203DC15
:100290005242FFF749FF10BD904010BD30B50B46EC
:1002A000014600202022012409E021FA02F59D42A6
:1002B00005D303FA02F5491B04FA02F52844151E7A
:1002C000A2F10102F1DC30BD10B5141E73F100047F
:1002D00008DA401C41F1000192185B411A4301D138
:1002E00020F0010010BD2DE9F04D92469B4611B162
:1002F000B1FA81F202E0B0FA80F22032904600F0CA
:1003000053F804460F4640EA0A0041EA0B015346FF
:100310005A46084313D0114653EA010019D0C8F1D8
:1003200040025046FFF700FF05460E46504659462C
:10033000424600F039F8084305D0012004E0204689
:100340003946BDE8F08D0020054346EAE0762C43AF
:1003500037430A986305E40AA0EB08000022FD0A6F
:1003600044EA47540A3002D500200146E9E7010576
:1003700010196941DDE9084500196941BDE8F04DF2
:10038000A2E70000064C074D06E0E06840F00103DC
:1003900094E8070098471034AC42F6D3FFF7AAFE62
:1003A0005021000870210008202A04DB203A00FABE
:1003B00002F1002070479140C2F1200320FA03F3BC
:1003C000194390407047FEE70A4A42F6E060116820
:1003D00048631368002199631368D8631268116435
:1003E000054A13685963136898631368D9631168E1
:1003F00008647047240000206C000020704772B62B
:10040000FEE7000070B5044600F004F90546601CE4
:1004100002D004480078044400F0FCF8401BA042DD
:10042000FAD370BD100000202DE9F84FDFF8B89125
:10043000002409F1040A0AF1040B23460F270BF1EB
:10044000040EC9E00125A5402A40AA427DD1674E8D
:10045000D1F804C0ACEB0608B44532D014DCBCF1D2
:10046000030F3AD009DCBCF1000F2AD0BCF1010F18
:100470001CD0BCF1020F31D11DE0BCF1110F17D01F
:10048000BCF1120F2AD119E0B8F5881F19D006DC8B
:10049000B8F5803F15D0B8F5801F1FD111E0B8F531
:1004A000001F0ED0B8F5041F18D10AE0CB6815E084
:1004B000CB681B1D12E0CB6808330FE0CB680C3310
:1004C0000CE08B682BB1012B4FF0080303D0456182
:1004D00004E0042302E0056100E00023FF2A01D8C4
:1004E000064601E000F104064FEA840501D9A5F1B2
:1004F0002005D6F8008007FA05FC28EA0C0803FA64
:1005000005F548EA0508C6F800804D68ED0062D59B
:10051000374DAE6946F00106AE61AD6924F00306C1
:1005200005F001050095334D06EB050CDCF808508D
:10053000A607360F07FA06F825EA0805DFF8B8809F
:10054000404503D14FF0000817E044E0DFF8AC80ED
:10055000404502D14FF001080FE0DFF8A48040458C
:1005600002D14FF0020808E0DFF89880404502D140
:100570004FF0030801E04FF0040808FA06F848EAD3
:100580000508CCF808804D68D9F80060ED034D46A9
:1005900001D5164300E096432E604D68DAF80060FE
:1005A000AD03554601D5164300E096432E604D68D5
:1005B000DBF80060ED025D4601D5164300E096438E
:1005C0002E604D68DEF80060AD02754601D5164319
:1005D00000E096432E60641C0D682A46E5407FF4D7
:1005E00031AFBDE8F88F0000000401400000111099
:1005F000001002400000014000080140000C0140D2
:1006000000100140001401400AB101617047090463
:10061000FBE70000014880687047000010000020E0
:100620000248816802781144816070471000002000
:10063000074810B5016841F010010160032000F087
:1006400075F80F2000F006F800F024F8002010BD27
:100650000020024070B50D4D04464FF47A712878A1
:10066000B1FBF0F00A490968B1FBF0F000F0ECFAD8
:1006700048B9102C07D200222146501E00F036F84F
:1006800000206C6070BD012070BD000010000020D3
:100690001C0000200C4808B5816941F0010181610E
:1006A000816901F001010091C16941F08051C1618E
:1006B000C06900F0805000900448416821F0E0617A
:1006C00041F00071416008BD00100240000001408F
:1006D000002809DB00F01F02012191404009800041
:1006E00000F1E020C0F8001170470000F0B40E4B9C
:1006F0001B680C46C3F30223C3F10705042D00D980
:100700000425191D072901D2002300E0DB1E012664
:1007100006FA05F1491E214099409E40761E16407A
:100720003143F0BC01F0B2BB0CED00E0064900F033
:10073000070208684FF6FF03184040EA0220034A08
:1007400010430860704700000CED00E00000FA055F
:100750002DE9F0470F46050061D0434E306800F0A8
:100760000700B84209D2306820F0070038433060F3
:10077000306800F00700B84251D128683B4C81072F
:1007800012D5400703D5606840F4E06060602878C7
:10079000000703D5606840F4605060606068A96835
:1007A00020F0F000084360602878C00728D068680F
:1007B000012810D02168022810D0890700292EDADC
:1007C000616821F0030101436160FFF723FF804668
:1007D00041F288390DE021688903EFE78901EDE7EF
:1007E000FFF718FFA0EB0801494502D90320BDE837
:1007F000F0876068696800F00C00B0EB810FEFD102
:10080000306800F00700B8420BD9306820F00700CC
:1008100038433060306800F00700B84201D0012052
:10082000E5E72878400705D56068E96820F4E060CE
:10083000084360602878000706D56068296920F4BD
:10084000605040EAC100606000F038F86168084A12
:10085000C1F30311515CC8400649086006480068AE
:10086000FFF7F8FE0020C2E700200240001002401F
:10087000382100081C00002014000020044805490D
:1008800000684968044AC1F30221515CC8407047BE
:100890001C000020001002404821000804480549BF
:1008A00000684968044AC1F3C221515CC8407047DE
:1008B0001C000020001002404821000812A185B051
:1008C0000FC98DE80F0014A0144A00680490516805
:1008D000134801F00C03042B10D0082B0ED1C1F3E8
:1008E0008343C9031DF803000AD5516804AAC1F364
:1008F0004041515C0A4A5043B0FBF1F005B07047EB
:1009000008494843FAE700000203040506070809FE
:100910000A0B0C0D0E0F1010010200000010024017
:1009200000127A0000093D002DE9F84F040070D054
:100930002078C04DC00749D06868C0F38100012805
:1009400007D06868C0F38100022809D16868C00335
:1009500006D52868800339D560680028E7D035E0DF
:100960006068B0F5803F0BD010B1B0F5A02F11D06A
:10097000286820F480302860286820F4802002E075
:10098000286840F480302860606890B1FFF742FE2C
:1009900006460AE0286840F480202860F0E700BF9F
:1009A000FFF738FE801B642873D828688003F7D5CA
:1009B0000CE0FFF72FFE064605E000BFFFF72AFE1A
:1009C000801B6428F0D828688003F7D420789A4EDA
:1009D00080074FF001094FF0000839D5686810F022
:1009E0000C0F07D06868C0F38100022809D168683D
:1009F000C00306D42868800714D52069012808D1CF
:100A000010E02069B0B1C6F80090FFF703FE07467A
:100A100005E00AE1FFF7FEFDC01B0228C4D82868E4
:100A20008007F7D52868616920F0F80040EAC10026
:100A300028600DE0C6F80080FFF7ECFD074604E0F3
:100A4000FFF7E8FDC01B022823D828688007F7D4E9
:100A5000207800072CD57948A169D9B1C0F8009059
:100A6000FFF7D8FD074604E0FFF7D4FDC01B0228BE
:100A70000FD8686A8007F7D571484FF4FA510068BB
:100A8000B0FBF1F0009000BF0098411E0091FAD237
:100A90000EE080E0C0F80080FFF7BCFD074604E0F0
:100AA000FFF7B8FDC01B022875D8686A8007F7D425
:100AB0002078400760D5E8690027C00008D4E869BD
:100AC00040F08050E861E869012700F08050009014
:100AD0005C480168C90513D40168834641F48071FC
:100AE0000160FFF797FD824606E000BFFFF792FD29
:100AF000A0EB0A0064284ED8DBF80000C005F5D54D
:100B0000E06801280AD008B1052813D0286A20F02F
:100B100001002862286A20F0040002E0286A40F000
:100B200001002862E06841F2883B98B1FFF772FD4E
:100B300082460BE0286A40F004002862EEE700BF1E
:100B4000FFF768FDA0EB0A0159455AD8286A8007CB
:100B5000F6D50CE0FFF75EFD824605E0FFF75AFD93
:100B6000A0EB0A0159454CD8286A8007F6D41FB17A
:100B7000E86920F08050E861E06988B36968C1F3F2
:100B80008101022944D00228C6F8608004D0FFF712
:100B900041FD044638E034E0FFF73CFD074604E041
:100BA000FFF738FDC01B02282BD828688001F7D436
:100BB000206AB0F5803F05D16868A16820F4003054
:100BC00008436860D4E908010843696821F4741196
:100BD00008436860C6F86090FFF71CFD044606E015
:100BE00025E000BFFFF716FD001B022809D8286882
:100BF0008001F7D51BE000BFFFF70CFD001B0228AA
:100C000002D90320BDE8F88F28688001F4D40EE0F3
:100C10000128F7D06868226A00F48031914204D13B
:100C2000616A00F47010884201D00120EAE70020D8
:100C3000E8E7000000100240000042428004424207
:100C40001C0000200070004010B5401EB0F1807FF5
:100C500001D3012010BD4FF0E02460610F21601727
:100C600001F014F90020A06107202061002010BDD0
:100C70007047704770B590F83C20012A26D00124B7
:100C800080F83C40022280F83D2003685A689D6845
:100C900022F070060A6832435A600D4B02689A428D
:100CA00008D0B2F1804F05D00A4B9A4202D00A4BCD
:100CB0009A4204D1496825F080031943916080F875
:100CC0003D40002180F83C10084670BD022070BDF8
:100CD000002C0140000400400008004010B5040052
:100CE00003D094F83D0010B107E0012010BD0020B2
:100CF00084F83C00204600F01FF8022084F83D00F4
:100D0000211D206800F0BEFE012084F8460084F812
:100D10003E0084F83F0084F8400084F8410084F8E5
:100D2000420084F8430084F8440084F8450084F8C5
:100D30003D00002010BD000000B585B000210091ED
:100D4000019102910391184A01681848914209D112
:100D5000C16941F00201C161C06900F00200049064
:100D600005B000BD124A9142FAD1C16941F00401B7
:100D7000C161C16901F004010491816941F0080178
:100D800081618069694600F0080004909015009028
:100D90000848FFF749FB002211461E20FFF7A6FC7A
:100DA0001E20FFF795FCDBE7000400400010024026
:100DB00000080040000C014090F83D10012901D0CE
:100DC00001207047022180F83D1000680B498842DD
:100DD00008D0B0F1804F05D00949884202D00949B6
:100DE000884204D1816801F00701062903D0016817
:100DF00041F001010160002070470000002C01401B
:100E0000000400400008004070B5044690F83C0023
:100E1000012817D0012584F83C50022084F83D00B9
:100E20002068826822F0770222F47F42826008689C
:100E3000502830D00DDC20284DD005DC98B3102888
:100E40003BD148E0022070BD302844D0402834D146
:100E500039E0602828D0702806D0B0F5805F2CD00B
:100E6000B0F5005F29D10AE0CB68D1E90121206803
:100E700000F04BFE2068816841F0770109E0CB6803
:100E8000D1E90121206800F040FE2068816841F42A
:100E90008041816011E0CA684968206800F0EAFE7C
:100EA0005021206807E016E0CA684968206800F011
:100EB0001FFF6021206800F032FE84F83D500020C2
:100EC00084F83C0070BDCA684968206800F0D2FE12
:100ED00040212068EFE7226801461046EBE700005A
:100EE00070B5007F042827D1234C244D207880B191
:100EF000012821D1002626700821284600F0FBFA9F
:100F0000A06029684E626168814216D2A0EB0100A0
:100F10001BE04FF0010020704FF00801174800F06F
:100F2000EAFA60602868016A21F4007101622868A9
:100F3000016A41F40071016270BD01D8E06805E00A
:100F40004FF6FF72A2EB01010844E060FFF780F961
:100F50000B4A0C4BFFF70AF9FFF787F96080286806
:100F6000016A21F4007101622868016A0162C168A6
:100F700021F00801C16070BD00000020B400002015
:100F80009CC420B07268913F2DE9F041054690F86D
:100F90003C000C46012836D0012085F83C008AB37D
:100FA000042A42D02868082A51D0D4E90023E168F5
:100FB000066A26F480560662C669076A26F44076F9
:100FC00046EA03234FF6FF7606EA013123F4704325
:100FD00019434FF4005627F4005306EA02321A432D
:100FE000C16102622868C16921F44061C161286859
:100FF000C169A26841EA0221C161002085F83C0074
:10100000BDE8F08101E00220FAE7D4E90012E368CC
:10101000286800F041FE2868816921F00C01816197
:1010200028688169A26811430FE0D4E90012E368DF
:10103000286800F06FFE2868816921F440618161B1
:1010400028688169A26841EA02218161D5E7D4E973
:101050000027267B016A21F480710162C169036A5D
:1010600021F00301394321F0F00731074FF40076F6
:1010700047EA116123F4007306EA02221A43C161B0
:1010800002622868C16921F00C01C1612868C16948
:10109000A2681143B0E710B5040003D094F83D00F6
:1010A00010B107E0012010BD002084F83C0020466C
:1010B00000F01EF8022084F83D00211D206800F099
:1010C000E1FC012084F8460084F83E0084F83F00EB
:1010D00084F8400084F8410084F8420084F843001A
:1010E00084F8440084F8450084F83D00002010BDD9
:1010F000704770B50446006801694FF00005C943A8
:10110000890715D4C168C943890711D4E91E016153
:1011100001202077206880698007204602D0FFF7F1
:10112000DFFE04E000F0F2F8204600F093F92577A6
:1011300020680169C943490717D4C168C9434907F1
:1011400013D46FF0040101610220207720688069C8
:1011500010F4407F204602D0FFF7C2FE04E000F00A
:10116000D5F8204600F076F9257720680169C94353
:10117000090716D4C168C943090712D46FF00801E2
:101180000161042020772068C0698007204602D0D2
:10119000FFF7A6FE04E000F0B9F8204600F05AF987
:1011A000257720680169C943C90617D4C168C943B6
:1011B000C90613D46FF01001016108202077206860
:1011C000C06910F4407F204602D0FFF789FE04E09A
:1011D00000F09CF8204600F03DF925772068016971
:1011E000C943C90708D1C168C943C90704D1891EC9
:1011F0000161204600F07EF920680169C9430906B3
:1012000009D4C168C943090605D46FF080010161A2
:101210002046FFF72DFD20680169C943490609D41E
:10122000C168C943490605D46FF0400101612046F9
:1012300000F076F920680169C94389060BD4C168BA
:10124000C943890607D46FF0200101612046BDE83B
:101250007040FFF70EBD70BD30B585B00021009124
:10126000019102910391006823490224234AB0F1BD
:10127000804F1DD0224B234D98422BD1886940F0DE
:1012800004008861886900F004000490886940F0D7
:10129000080088618869694600F008000490C02051
:1012A000CDE9000410460394FFF7BEF803201DE0CB
:1012B000886940F0040088618869694600F004008C
:1012C00004900F20CDE9000410460394FFF7ACF81A
:1012D00005B030BD0C4A9042FAD1886940F0080050
:1012E0008861886900F0080004904020CDE900047E
:1012F000694628460394E9E70010024000080140CF
:1013000000040040000C014000080040704770B528
:10131000044690F83C000D4601280AD0012084F8CC
:101320003C0042B1042A18D0082A2AD00C2A4DD1F8
:1013300039E0022070BD206800F0FAFB2068816966
:1013400041F0080181612068816921F00401816117
:10135000206881692A69114311E0206800F010FCBF
:101360002068816941F4006181612068816921F40C
:1013700080618161206881692A6941EA0221816175
:1013800024E0206800F028FC2068C16941F00801D1
:10139000C1612068C16921F00401C1612068C1698F
:1013A0002A69114311E0206800F042FC2068C169FD
:1013B00041F40061C1612068C16921F48061C161AB
:1013C0002068C1692A6941EA0221C161002084F8CC
:1013D0003C0070BD10B5040003D094F83D0010B17E
:1013E00007E0012010BD002084F83C00204600F0FA
:1013F0001FF8022084F83D00211D206800F042FB08
:10140000012084F8460084F83E0084F83F0084F808
:10141000400084F8410084F8420084F8430084F8D6
:10142000440084F8450084F83D00002010BD000011
:1014300008B50068B0F1804F08D10548C16941F096
:101440000101C161C06900F00100009008BD000009
:10145000001002407047000010B50446022249B156
:1014600004290ED0082913D094F84100012816D081
:10147000012010BD94F83E000128F9D184F83E20E7
:101480000FE094F83F000128F2D184F83F2008E0F3
:1014900094F840000128EBD184F8402001E084F862
:1014A00041200122206800F023FB0F492068884278
:1014B00003D1426C42F4004242642068884208D062
:1014C000B0F1804F05D00949884202D008498842CE
:1014D00004D1816801F00701062903D0016841F0B9
:1014E00001010160002010BD002C014000040040FB
:1014F0000008004070470246002041B1042909D08D
:1015000008290AD00C2901D11068006C70471068B6
:10151000406B70471068806B70471068C06B7047F5
:10152000704770B5040004D094F83D00002510B158
:1015300006E0012070BD84F83C50204600F022F8FF
:10154000242084F83D002068C16821F40051C16066
:10155000204600F0FBFB2068016921F49041016105
:101560002068416921F02A0141612068C16841F485
:101570000051C1602564202084F83D0084F83E00BD
:10158000002070BD30B585B0002400940194029411
:10159000039400681449884224D11448816941F4B5
:1015A00080418161816901F480410491816941F048
:1015B0000401816180690E4D00F0040004904FF435
:1015C0000070009002200190032003906946284695
:1015D000FEF72AFF2815CDE9000469462846029443
:1015E000FEF722FF05B030BD003801400010024078
:1015F000000801402DE9F843044690F83D001F46DD
:1016000016460D4620284CD1C5B1BEB194F83C0019
:10161000012846D0012084F83C004FF00008C4F8AF
:101620004080212084F83D00FEF7F4FFA684814627
:10163000E684A068B0F5805F03D004E00120BDE837
:10164000F883206928B12E465FF0000584F83C80BD
:101650000EE00026FAE78021204600F0D3FBA0B977
:10166000AEB116F8010B21684860E08C401EE084A2
:10167000E08C4B464FF0000200970028EBD14FF072
:101680004001204600F0BEFB30B10320D7E735F81B
:10169000020BC0F30800E6E7202084F83D0000209C
:1016A000CDE70220CBE7000070B5124D4FF4804427
:1016B000002221462846FEF7A7FF022000F0B0FCDA
:1016C000012221462846FEF79FFF0C2000F0A8FCCF
:1016D000002221462846FEF797FF07480068C168A8
:1016E00041F00801C1606420FEF78CFE0348408889
:1016F00070BD0000000C0140B4000020000000207C
:10170000FEE7000070B586B00024184800940194EC
:1017100002940394816941F020018161816901F0A3
:1017200020010491816941F004018161816901F026
:1017300004010491816941F00801816180690C4EC6
:1017400000F008004FF480450490002229463046FE
:10175000FEF75AFF01200095CDE901040220039015
:1017600069463046FEF760FE06B070BD00100240CC
:10177000000C014010B58AB0002407941C21684673
:101780000894FEF7E8FC22484FF0804101604721B1
:10179000C0E9011442F20F71C0E903148461FFF73C
:1017A00019FE08B1FEF72BFE079407A91848089404
:1017B000FFF760FA08B1FEF722FE6020CDE90004D1
:1017C00002940022694612480494FFF7A0FD08B174
:1017D000FEF715FE042269460D48FFF798FD08B193
:1017E000FEF70DFE082269460948FFF790FD08B193
:1017F000FEF705FE0C2269460548FFF788FD08B193
:10180000FEF7FDFD0248FFF727FD0AB010BD0000FE
:101810002400002010B58EB0002407940894099489
:101820000A940B941C2168460C94FEF794FC2A48F9
:10183000284901604721C0E9011442F20F71C0E953
:1018400003148461FFF74AFA08B1FEF7D8FD4FF49C
:101850008050079007A92048FFF7D6FA08B1FEF795
:10186000CEFD1D48FFF7B6FD08B1FEF7C8FD0B948D
:101870000BA919480C94FFF7FDF908B1FEF7BFFD5D
:101880006020CDE9000402940022694612480494C5
:10189000FFF73DFD08B1FEF7B2FD042269460E4890
:1018A000FFF735FD08B1FEF7AAFD082269460A4890
:1018B000FFF72DFD08B1FEF7A2FD0C226946064890
:1018C000FFF725FD08B1FEF79AFD0348FFF7C4FCBA
:1018D0000EB010BD000400406C00002010B592B0A6
:1018E00000240B940C940D940E940F941C216846C4
:1018F0001094FEF730FC2A4807940894099427496D
:101900000A9401604721C0E901144FF6FF71C0E954
:1019100003148461FFF7E2F908B1FEF770FD4FF49C
:1019200080500B900BA91E48FFF76EFA08B1FEF726
:1019300066FD1B48FFF74EFD08B1FEF760FD184835
:10194000FFF7A9FB08B1FEF75AFD0F940FA9144841
:101950001094FFF78FF908B1FEF751FD6020009059
:101960003220CDE90104002269460D480494FFF7B6
:10197000CEFC08B1FEF743FD0120CDE907400994F4
:10198000082207A906480A94FFF7FEFA08B1FEF7F5
:1019900036FD0348FFF760FC12B010BD00080040A0
:1019A000B40000200C4810B50A4901604FF41651EC
:1019B0004160002181600C22C160C0E90412816194
:1019C000C161FFF7AEFD002803D0BDE81040FEF76F
:1019D00016BD10BD00380140FC000020FEE7FEE708
:1019E000094900200A6850630A6890630A68D06356
:1019F0000968086405490A6850630A6890630A68C0
:101A0000D063096808647047240000206C0000203F
:101A100070477047FEF704BE30B58FB02821684686
:101A2000FEF799FB14210AA8FEF795FB0121080493
:101A3000CDE900100024029402250491CDE907505D
:101A40004FF4E01009906846FEF76EFF08B172B6D9
:101A5000FEE70F20CDE90A054FF48060CDE90C4088
:101A600002210AA80E94FEF773FE002801D072B678
:101A7000FEE70FB030BD70470148FFF73ABB0000EA
:101A8000B4000020F0B50268164B174C174D4FF00C
:101A90008047984205D0B84203D0A04201D0A84266
:101AA00003D122F070064A683243984205D0B8420A
:101AB00003D0A04201D0A84203D122F44074CA68E6
:101AC00022434C6922F08002224302608A68C2628B
:101AD0000A688262984201D109690163012141616A
:101AE000F0BD0000002C0140000400400008004050
:101AF00010B501F01F030121046A99408C43046270
:101B0000016A9A401143016210BD10B5846842EA2F
:101B1000032224F47F440A432243826010BD82687A
:101B200022F070020A4342F0070181607047000012
:101B300030B5026A22F001020262026A43688469D7
:101B400024F073050C682C4322F002058A682A43AE
:101B50000A4DA8420BD122F00805CA6823F440734D
:101B60002A434D6922F004021D438B692B434360D5
:101B7000846149684163026230BD0000002C01406D
:101B800030B5026A22F010020262026A4368846978
:101B90000D6824F4E64444EA05248D6822F020020E
:101BA00042EA05120B4DA8420ED1CD6822F0800208
:101BB00042EA05124D6923F4406343EA85038D69C7
:101BC00022F0400243EA85034360846149688163EF
:101BD000026230BD002C014030B5026A22F48072EE
:101BE0000262036A4268C46923F4007324F0730537
:101BF0000C682C438D6843EA05230C4DA8420ED196
:101C0000CD6823F4006343EA05234D6922F4405272
:101C100042EA05128D6923F4806342EA05124260AC
:101C2000C4614968C163036230BD0000002C0140FB
:101C300030B5026A22F480520262046A4268C369C3
:101C40000D6823F4E64343EA05238D6824F4005429
:101C500044EA0534064DA84204D14D6922F480427D
:101C600042EA85124260C36149680164046230BD82
:101C7000002C014010B5036A046A24F001040462D8
:101C8000846924F0F00444EA021423F00A020A43AF
:101C90008461026210BD000070B5046A24F0010482
:101CA00004628469056A0F4EB04208D0B0F1804FDB
:101CB00005D00D4EB04202D00C4EB04203D124F0FC
:101CC0000304144301E044F001041A0724F0F00473
:101CD00044EA126225F00A0301F00A011943826105
:101CE000016270BD002C014000040040000800406B
:101CF00010B5036A23F0100303628369046A23F4B6
:101D0000704343EA023224F0A00343EA01118261E6
:101D1000016210BD30B5046A24F0100404628469C5
:101D2000056A24F4407444EA022222F470444FF617
:101D3000FF7202EA03322243A02425F0A00304EA42
:101D4000011119438261016230BD000070B5044683
:101D500000680169E26821F4405111430161216981
:101D6000A0680843616908432168CA6841F20C63AE
:101D70009A430243CA6020684169A26921F4407114
:101D8000114341611E492068884202D1FEF786FD59
:101D900001E0FEF773FD00EBC00101EB001260688B
:101DA00064218000B2FBF0F3B3FBF1F36FF018068F
:101DB0007343B2FBF0F5B2FBF0F605EB830532237B
:101DC00003EB0515B5FBF1F5B6FBF1F605F0F005F3
:101DD00005EB0615B2FBF0F6B2FBF0F0B0FBF1F04C
:101DE0006FF01802504306EB800003EB0010B0FBCD
:101DF000F1F0216800F00F002844886070BD0000F9
:101E0000003801402DE9F041984617460E46044639
:101E1000069D1DE0681C1BD02DB1FEF7FBFBA0EB5F
:101E20000800A84214D92068C16821F4D071C160AB
:101E30002068416921F001014161202084F83D00C2
:101E400084F83E00002084F83C000320BDE8F081C7
:101E50002068006836EA000004D00020B842D9D0DB
:101E60000020F3E70120F9E7FEE700000FB4054B7F
:101E700010B503A9044A029800F028F810BC5DF8D8
:101E800014FB000039200008200000200907090E7B
:101E9000002804DB00F1E02080F80014704700F017
:101EA0000F0000F1E02080F8141D704702E008C820
:101EB000121F08C1002AFAD170477047002001E0C4
:101EC00001C1121F002AFBD1704700002DE9FF4F0E
:101ED00089B09B460446002506E025280BD05A46CB
:101EE0000B999047641C6D1C20780028F5D10DB02B
:101EF0002846BDE8F08F0027B8460122474900E098
:101F0000074314F8013F203B02FA03F00842F7D1DF
:101F100020782E2819D114F8010F47F004072A2839
:101F20000ED06FF02F022078A0F1300109290CD8D3
:101F300008EB880102EB410100EB0108641CF2E7A9
:101F40000A98641C50F8048B0A9020780028CED0A0
:101F5000642808D0692806D075281ED05A460B99E7
:101F600090476D1C58E00A994FF00A0901C90A917F
:101F7000002802DA40422D2102E0390504D52B2148
:101F80008DF82010012103E0F90704D02021F7E7A4
:101F90008A4608AE0DE00021FAE70A994FF00A09D7
:101FA00001C90A91F7E74946FEF778F9303106F89A
:101FB000011D0028F7D1ADEB060000F120097807DC
:101FC00001D44FF00108C84502DDA8EB090000E08C
:101FD00000208046002706E008A85A46C05D0B99FD
:101FE00090476D1C7F1C5745F6DB04E030205A46B5
:101FF0000B9990476D1CB8F10001A8F10108F5DCC0
:1020000005E016F8010B5A460B9990476D1CB9F183
:102010000001A9F10109F4DC641C65E7092801004D
:1020200004490A220B685A6209684A6A8242FCD350
:1020300070470000B400002013B54FF0FF330122B9
:1020400069460248FFF7D6FA00981CBDFC00002044
:10205000FEF7EEFAFFF7E0FCFFF754FBFFF78AFB11
:10206000FFF7D8FBFFF79EFCFFF738FC0021244860
:10207000FFF7F2F923A0FFF7F9FE2748FEF79CFED1
:102080002648FEF799FE1E48FEF796FE00212248DC
:10209000FFF7E2F904212048FFF7DEF908211E4886
:1020A000FFF7DAF90C211C48FFF7D6F900211B488D
:1020B000FFF7D2F904211948FFF7CEF90821174894
:1020C000FFF7CAF90C211548FFF7C6F900210C48A3
:1020D000FFF7C2F908210A48FFF7BEF9104C00BF0C
:1020E000FFF7E2FA61880FA0FFF7C0FE60880F28B3
:1020F00002D2FFF775FCF3E7FEF766F9F0E70000A0
:10210000B400002041726520796F752072656164AA
:10211000793F0D0A00000000240000206C00002020
:102120000000002064697374616E6365203D2025A2
:102130006420636D200D0A00000000000000000014
:10214000010203040607080900000000010203045D
:10215000702100080000002024000000AC1E0008D0
:1021600094210008240000201C050000BC1E00086B
:10217000000000000000000000000000000000005F
:102180000100000010000000000000000024F40026
:04219000000000004B
:04000005080000ED02
:00000001FF
