:020000040800F2
:10000000A8080020A1010008BF1F0008091D000862
:10001000BD1F0008B10C00085124000800000000BA
:10002000000000000000000000000000F31F0008B6
:10003000B30C000800000000F11F0008F51F0008C5
:10004000BB010008BB010008BB010008BB010008A0
:10005000BB010008BB010008BB010008BB01000890
:10006000BB010008BB010008BB010008BB01000880
:10007000BB010008BB010008BB010008BB01000870
:10008000BB010008BB010008BB010008BB01000860
:10009000BB010008BB010008BB010008BB01000850
:1000A000BB010008BB010008BB010008BB01000840
:1000B000BB010008BB010008BB010008BB01000830
:1000C000BB010008BB010008BB010008BB01000820
:1000D000BB010008BB010008BB010008BB01000810
:1000E000BB010008BB010008BB01000800F002F8DA
:1000F00000F047F80AA090E8000C82448344AAF17B
:100100000107DA4501D100F03CF8AFF2090EBAE878
:100110000F0013F0010F18BFFB1A43F0010318473B
:10012000B0240000D0240000103A24BF78C878C161
:10013000FAD8520724BF30C830C144BF04680C60ED
:10014000704700000023002400250026103A28BF35
:1001500078C1FBD8520728BF30C148BF0B60704739
:10016000642900F07D80002070471FB59DE80300E2
:1001700000F070FB00F062F91FBD10B500F0C7F988
:1001800010BD00F02AFA1146FFF7EFFF02F08AF9DE
:1001900000F02EFB03B4FFF7F0FF03BC00F0ECFC13
:1001A0000948804709480047FEE7FEE7FEE7FEE70B
:1001B000FEE7FEE7FEE7FEE7FEE7FEE70448054947
:1001C000054A064B7047000057200008ED00000864
:1001D000A8020020A8080020A8040020A8040020ED
:1001E0000FB4044910B503AA029800F0F9F810BC46
:1001F0005DF814FBA00100202DE9F0410E460446F5
:10020000002020622046E168884730B3252805D0C9
:10021000D4E901219047206A401CF2E7E1682046BA
:1002200000278847050018D0A5F14100192802D8F9
:1002300020354FF400673246294620462760FFF7F5
:100240008FFF40B1012804D0F61D26F007060836BE
:10025000D8E7361DD6E72846DAE7206ABDE8F08100
:100260002DE9F0410646002410687529314616A58F
:1002700010D0AFF30080002802DA404213A507E057
:1002800031688A0701D512A502E0490704D511A5F6
:10029000012401E0AFF3008000210A2206F12407C7
:1002A00009E0B0FBF2FCB0FBF2F302FB1C003030C3
:1002B00078541846491C0028F3D123462A46304674
:1002C000BDE8F04100F032B8000000002D00000051
:1002D0002B000000200000004FF0000200B5134684
:1002E00094469646203922BFA0E80C50A0E80C5056
:1002F000B1F12001BFF4F7AF090728BFA0E80C5007
:1003000048BF0CC05DF804EB890028BF40F8042BFF
:1003100008BF704748BF20F8022B11F0804F18BF6C
:1003200000F8012B70477047704770472DE9F04780
:100330000D4699469246044600F124080168880655
:1003400004D5E06921F01001216000E00120A842FD
:1003500001DD471B00E00027A1697A1902EB0900C3
:10036000081AA0612078C00602D42046AFF30080AE
:10037000002608E0D4E901211AF806009047206A17
:10038000401C761C20624E45F4DB2078C0060AD55E
:100390002046AFF3008006E0D4E9012130209047E9
:1003A000206A401C2062381EA7F10107F4DC07E038
:1003B000D4E9012118F805009047206A401C20620A
:1003C000281EA5F10105F3DC2046AFF3008020785C
:1003D000000602D50220BDE8F0870120FBE70000FF
:1003E000074B70B50D467B4400F011F804462846D3
:1003F00000F020F810B14FF0FF3070BD204670BD06
:10040000A320000001694A1C02610878704700B50A
:100410008FB0CDE901310021059105497944CDE93D
:10042000031011466846FFF7E7FE0FB000BD00005D
:10043000E5FFFFFF007B00F08000704710B54248E9
:100440005421FFF749FF41485421FFF745FF404839
:100450005421FFF741FF3F493B483C4A3F4B08606E
:100460003D490A603A491960531C0365481C1065F0
:10047000012008653B48344A39A1784400F01CF952
:1004800020B9384878440A3800F0BBF937482F4A79
:1004900035A1784400F010F920B9344878440A387E
:1004A00000F0AFF932482A4A2FA1784400F004F94D
:1004B00020B92F4878440A3800F0A3F94023224895
:1004C000DC000021224600F0D4F820B12548784411
:1004D000543800F096F91D4822464023002100F0D0
:1004E000C8F820B121487844543800F08AF91848F7
:1004F00022461023002100F0BCF8002806D01C483A
:100500007844BDE81040563800F07BB910BD104863
:1005100070B5006D20F001040B4800F043F90B4862
:1005200000F040F90A4800F03DF909E0206D20F0A4
:100530000105204600F036F9204600F073F82C46FD
:10054000002CF3D170BD00004C010020A001002060
:10055000F4010020200000202400002028000020BA
:1005600072000000442100007700000030210000EC
:100570001C2100000EB5CDE9000100F0DDFA02906B
:1005800069460120ABBE0EBD08B569460090022049
:10059000ABBE08BD1FB58DE8070069460520ABBEA0
:1005A00004B010BD1FB58DE80F0069460620ABBE34
:1005B000F6E708B5694600900920ABBE08BD1CB53A
:1005C000CDE9000169460A20ABBE1CBD704708B5E5
:1005D000694600900C20ABBE08BD754600F018F9C6
:1005E000AE4605006946534620F00700854618B020
:1005F00020B5FFF7E3FDBDE820404FF000064FF0C7
:1006000000074FF000084FF0000B21F00701AC4647
:10061000ACE8C009ACE8C009ACE8C009ACE8C00966
:100620008D46704770B50446051F00F0F7F8006866
:10063000002C14BF446870BD002C18BFAC423CBFF6
:1006400020466468F8D301680A18AA4218BF4560BA
:1006500003D12A6805461144016028684119A14266
:100660001CBF6C6070BD61686960216808442860C7
:1006700070BD70B5C468A50713D0650211D4B2F57A
:10068000807F09D0B2F5007F06D0B2F5806F08D127
:10069000012300F1240106E05D1E6FF07F46B542A4
:1006A00001D3012070BD0161C361416024F4706118
:1006B0001143C160002070BD2DE9F0410C46074692
:1006C0001646104600F06EF82078611C61280AD0AA
:1006D000722802D077283CD102E00125002405E0F1
:1006E0000225042402E0082448F2020511F8010B57
:1006F0002B2806D0622809D011F8010C74280AD0E2
:100700000BE045F0030544F00204EFE745F0040573
:1007100044F00104EAE744F0100438462146FFF7AC
:1007200029FF411C15D00021316171604FF4007127
:10073000F560F1617061200704D530460222002186
:1007400000F0E6F8306D40F0010030653046BDE85D
:10075000F0810020FBE72DE9F0410D460646104CE4
:10076000206DC10704D0410804D020F00104F7E750
:1007700022460EE0542000F09CF807000ED0206DB9
:1007800047F001010843542120653846FFF7A4FDD6
:100790003A4629463046BDE8F0418DE70020D6E7CD
:1007A0004C0100202DE9F04704464FF000094FF0BE
:1007B000FF37C568D4E90486A80707D0204600F0B3
:1007C00057F93046FFF7E0FE002802DA3846BDE868
:1007D000F087280502D54046FFF724FF4C2120462C
:1007E000FFF77AFD206D20F0010020654846EEE716
:1007F00010B50446AFF300802046BDE81040FFF777
:10080000C9BC10B500F07EF9BDE8104000F074B925
:1008100000487047480200207047000000487047B9
:1008200050020020704770477047704738B5044643
:100830000A4600206946AFF30080002808BF38BD93
:1008400002460099204600F0A4F9012038BD01209D
:1008500000F0F3B9F8B5AFF30080054600200C4670
:10086000102000BF0646A819A0420DD9324669469D
:100870000020AFF30080070008BF00F0DEF9009809
:10088000A04218BF0546C419FFF7C8FF0560074618
:10089000F01D20F007004619284600F073F9B44215
:1008A00008BFF8BDA21B31463868BDE8F84000F02B
:1008B00070B970B50646FFF7B1FF056806F10B0089
:1008C00020F00704B4429CBF002070BD2B466A682C
:1008D000BAB11068A04210D304F1080188423CBFAD
:1008E0005068586007D35168101941601168091B9E
:1008F000016058601460101D70BD13465268002AD4
:10090000E7D121462846FFF791FF0028DED170BDD0
:100910002DE9F041044616460D464769007B8007E5
:100920002ED03846FFF745FE50BB3EB3012E02D015
:10093000022E25D104E0204600F045F905441DE0D3
:100940003846FFF744FEE168002841F01001E160FD
:1009500005DA204600F058F80120BDE8F081C9030F
:100960000BD56268E16A914200D81146A269114430
:100970002269891A814200DD08460544002D01DA0A
:100980000220EAE7E16A6068E268814206D29103E8
:10099000E06203D522F4003141F01002A66900277D
:1009A000AE4213DCE16A814201D90B4600E0034606
:1009B00003EB060C2369ACEB030CAC4506DD81426E
:1009C00001D98C4600E084469C4505D1A76027608C
:1009D00042F02000A5620DE0AD1BE669AE1B81422E
:1009E000A66000D90846C01A281A2060581960600D
:1009F00022F0200003490840E060002084F848709D
:100A0000ABE70000BFCFD7FFC16821F4001141F070
:100A10008001C16000218160016070472DE9F047CD
:100A2000814614460E464FF0FF383248D568576964
:100A3000054209D03846A169FFF7C1FD002811DB46
:100A40002C48C0430540E5602B46324649463846AF
:100A5000FFF7A0FDA16920F00042B21A114400285E
:100A6000A16103D02046FFF7CFFF4046BDE8F087E5
:100A700070B504460569C06A6168884200D80846B6
:100A8000E16821F42011E160C90312D5A84208D021
:100A90002246411B2846FFF7C1FF10B14FF0FF303F
:100AA00070BD0020E562C4E90150E06820F48030A8
:100AB000E060002070BD10B50446C06820F0200042
:100AC000E060A16AA06988420DD02046FFF7D0FF00
:100AD000E06820F4405040F01000E060A06AA0619F
:100AE0002069E062606044F24001E0688843E060B1
:100AF00010BD000010000200002801D000F03CB83A
:100B00007047000010B5014602A000F07DF80120FA
:100B100010BD000053494752545245443A20526593
:100B20006469726563743A2063616E2774206F7024
:100B3000656E3A200000000010B5431C02E010F87A
:100B4000011B71B18107FAD14FF0013202C88C1A32
:100B50008C4314EAC211F9D0C01A0A0603D0C01E91
:100B600010BDC01A10BD0A0401D0801E10BD0902BC
:100B7000FCD0401E10BD000001491820ABBEFEE7AE
:100B80002600020000210160C0E90110704710201A
:100B90007047034640688C46002818BF88423CBF17
:100BA00003464068F8D318681844884207D00CF10F
:100BB000030020F00700001D411A521A0146081DCB
:100BC0000A60FFF72FBD10B50146C268900703D039
:100BD000900607D5886A0AE000F03EF8012101601E
:100BE000881E10BD8B69486818440B69C01A91F8BB
:100BF00048301BB191F84910401A10BD1103FCD5C3
:100C00000028FADD401E10BD70B505460C460A20CE
:100C100000E06D1C00F018F835B128780028F8D1F4
:100C200002E0641C00F010F814B120780028F8D11C
:100C3000BDE870400A2000F007B810B500F010F8C9
:100C4000BDE81040FFF758BF08B569468DF80000B1
:100C50000320ABBE08BD00000048704748020020DA
:100C600010B5012805D0002103A0FFF7CDFF01201A
:100C700010BD09A1F8E7000053494752544D454DB6
:100C80003A204F7574206F662068656170206D652D
:100C90006D6F7279000000003A2048656170206D28
:100CA000656D6F727920636F727275707465640020
:100CB000FEE7704772B6FEE770B5044600F004F92F
:100CC0000546601C02D004480078044400F0FCF89B
:100CD000401BA042FAD370BD100000202DE9F84F50
:100CE000DFF8B8910024A9F1040B23460F2709F17E
:100CF000040AABF1040EC9E00125A5402A40AA422E
:100D00007DD1674ED1F804C0ACEB0608B44532D0B3
:100D100014DCBCF1030F3AD009DCBCF1000F2AD07F
:100D2000BCF1010F1CD0BCF1020F31D11DE0BCF1B0
:100D3000110F17D0BCF1120F2AD119E0B8F5881F96
:100D400019D006DCB8F5803F15D0B8F5801F1FD14B
:100D500011E0B8F5001F0ED0B8F5041F18D10AE055
:100D6000CB6815E0CB681B1D12E0CB6808330FE0A1
:100D7000CB680C330CE08B682BB1012B4FF00803D0
:100D800003D0456104E0042302E0056100E0002394
:100D9000FF2A01D8064601E000F104064FEA840567
:100DA00001D9A5F12005D6F8008007FA05FC28EA4C
:100DB0000C0803FA05F548EA0508C6F800804D68F6
:100DC000ED0062D5374DAE6946F00106AE61AD6902
:100DD00024F0030605F001050095334D06EB050CE4
:100DE000DCF80850A607360F07FA06F825EA0805CA
:100DF000DFF8B880404503D14FF0000817E044E029
:100E0000DFF8AC80404502D14FF001080FE0DFF879
:100E1000A480404502D14FF0020808E0DFF8988036
:100E2000404502D14FF0030801E04FF0040808FAF2
:100E300006F848EA0508CCF808804D68D9F8006043
:100E4000ED024D4601D5164300E096432E604D68F5
:100E5000DAF80060AD02554601D5164300E096432E
:100E60002E604D68DBF80060AD035D4601D516438A
:100E700000E096432E604D68DEF80060ED03754695
:100E800001D5164300E096432E60641C0D682A4687
:100E9000E5407FF431AFBDE8F88F00000804014061
:100EA0000000111000100240000001400008014045
:100EB000000C014000100140001401400AB1016122
:100EC00070470904FBE70000014880687047000094
:100ED0001000002002488168027811448160704748
:100EE00010000020074810B5016841F010010160B2
:100EF000032000F067F80F2000F006F800F024F857
:100F0000002010BD0020024070B50D4D04464FF486
:100F10007A712878B1FBF0F00A490968B1FBF0F06A
:100F200000F0CEFA48B9102C07D200222146501EFC
:100F300000F028F800206C6070BD012070BD00003A
:100F4000100000201C0000200C4808B5816941F009
:100F500001018161816901F001010091C16941F0E4
:100F60008051C161C06900F0805000900448416820
:100F700021F0E06141F00071416008BD00100240C5
:100F800000000140F0B40E4B1B680C46C3F3022373
:100F9000C3F10705042D00D90425191D072901D225
:100FA000002300E0DB1E012606FA05F1491E214060
:100FB00099409E40761E16403143F0BC01F049BA7C
:100FC0000CED00E0064900F0070208684FF6FF0349
:100FD000184040EA0220034A1043086070470000AE
:100FE0000CED00E00000FA052DE9F0470F46050082
:100FF00061D0434E306800F00700B84209D2306833
:1010000020F0070038433060306800F00700B84235
:1010100051D128683B4C810712D5400703D5606841
:1010200040F4E06060602878000703D5606840F411
:10103000605060606068A96820F0F000084360605C
:101040002878C00728D06868012810D021680228B5
:1010500010D0890700292EDA616821F003010143CD
:101060006160FFF731FF804641F288390DE0216869
:101070008903EFE78901EDE7FFF726FFA0EB080101
:10108000494502D90320BDE8F0876068696800F02F
:101090000C00B0EB810FEFD1306800F00700B842D0
:1010A0000BD9306820F0070038433060306800F01A
:1010B0000700B84201D00120E5E72878400705D5B0
:1010C0006068E96820F4E060084360602878000701
:1010D00006D56068296920F4605040EAC10060606C
:1010E00000F038F86168084AC1F30311515CC84048
:1010F0000649086006480068FFF706FF0020C2E7BF
:101100000020024000100240AA2500081C00002018
:10111000140000200448054900684968044AC1F3E6
:101120000221515CC84070471C00002000100240A2
:10113000BA2500080448054900684968044AC1F313
:10114000C221515CC84070471C00002000100240C2
:10115000BA2500080E4A51680E4801F00C03042B12
:1011600011D0082B0FD10C48C1F38343C903C05CD5
:101170000AD55168084AC1F34041921E515C054AA4
:101180005043B0FBF1F070470449484370470000FA
:101190000010024000127A009A25000800093D0064
:1011A0002DE9F84F040070D02078C04DC00749D019
:1011B0006868C0F38100012807D06868C0F3810027
:1011C000022809D16868C00306D52868800339D58C
:1011D00060680028E7D035E06068B0F5803F0BD04C
:1011E00010B1B0F5A02F11D0286820F4803028600D
:1011F000286820F4802002E0286840F480302860CD
:10120000606890B1FFF760FE06460AE0286840F487
:1012100080202860F0E700BFFFF756FE801B64289F
:1012200073D828688003F7D50CE0FFF74DFE06461B
:1012300005E000BFFFF748FE801B6428F0D828684F
:101240008003F7D420789A4E80074FF001094FF0C1
:10125000000839D5686810F00C0F07D06868C0F333
:101260008100022809D16868C00306D42868800775
:1012700014D52069012808D110E02069B0B1C6F862
:101280000090FFF721FE074605E00AE1FFF71CFE8C
:10129000C01B0228C4D828688007F7D52868616970
:1012A00020F0F80040EAC10028600DE0C6F8008098
:1012B000FFF70AFE074604E0FFF706FEC01B022800
:1012C00023D828688007F7D4207800072CD57948E0
:1012D000A169D9B1C0F80090FFF7F6FD074604E018
:1012E000FFF7F2FDC01B02280FD8686A8007F7D508
:1012F00071484FF4FA510068B0FBF1F0009000BF64
:101300000098411E0091FAD20EE080E0C0F8008003
:10131000FFF7DAFD074604E0FFF7D6FDC01B022801
:1013200075D8686A8007F7D42078400760D5E869E7
:101330000027C00008D4E86940F08050E861E869FF
:10134000012700F0805000905C480168C90513D463
:101350000168834641F480710160FFF7B5FD824664
:1013600006E000BFFFF7B0FDA0EB0A0064284ED8EE
:10137000DBF80000C005F5D5E06801280AD008B107
:10138000052813D0286A20F001002862286A20F07E
:10139000040002E0286A40F001002862E06841F29F
:1013A000883B98B1FFF790FD82460BE0286A40F039
:1013B00004002862EEE700BFFFF786FDA0EB0A01FC
:1013C00059455AD8286A8007F6D50CE0FFF77CFD0E
:1013D000824605E0FFF778FDA0EB0A0159454CD89D
:1013E000286A8007F6D41FB1E86920F08050E861D0
:1013F000E06988B36968C1F38101022944D00228F9
:10140000C6F8608004D0FFF75FFD044638E034E0A2
:10141000FFF75AFD074604E0FFF756FDC01B022800
:101420002BD828688001F7D4206AB0F5803F05D119
:101430006868A16820F4003008436860D4E90801B6
:101440000843696821F4741108436860C6F8609025
:10145000FFF73AFD044606E025E000BFFFF734FD44
:10146000001B022809D828688001F7D51BE000BFBF
:10147000FFF72AFD001B022802D90320BDE8F88FE0
:1014800028688001F4D40EE00128F7D06868226A49
:1014900000F48031914204D1616A00F470108842F6
:1014A00001D00120EAE70020E8E700000010024038
:1014B00000004242800442421C00002000700040B4
:1014C00010B5401EB0F1807F01D3012010BD4FF058
:1014D000E02460610F21601700F0BBFF0020A061D5
:1014E00007202061002010BD70B590F83C20012A33
:1014F00026D0012480F83C40022280F83D20036879
:101500005A689D6822F070060A6832435A600D4B93
:1015100002689A4208D0B2F1804F05D00A4B9A4235
:1015200002D00A4B9A4204D1496825F0800319433E
:10153000916080F83D40002180F83C10084670BD65
:10154000022070BD002C0140000400400008004053
:1015500010B5040003D094F83D0010B107E001205D
:1015600010BD002084F83C00204600F01FF8022047
:1015700084F83D00211D206800F06EFD012084F8F4
:10158000460084F83E0084F83F0084F8400084F868
:10159000410084F8420084F8430084F8440084F851
:1015A000450084F83D00002010BD000000B585B066
:1015B0000021009101910291039100680E49884237
:1015C00017D10E48C16941F00401C161C16901F040
:1015D00004010491816941F00801816180696946D3
:1015E00000F0080004904FF4807000900448FFF76A
:1015F00075FB05B000BD000000080040001002406F
:10160000000C014090F83D10012901D001207047E5
:10161000022180F83D1000680B49884208D0B0F1E3
:10162000804F05D00949884202D00949884204D137
:10163000816801F00701062903D0016841F001012A
:101640000160002070470000002C014000040040B1
:101650000008004070B5044690F83C0000250128C1
:1016600017D0012684F83C60022084F83D002068F1
:10167000826822F0770222F47F4282600868502854
:1016800038D00DDC20284FD005DC90B3102811D1C4
:101690004AE0022070BD302846D040280AD13BE005
:1016A00060282FD070280DD0B0F5805F03D0B0F542
:1016B000005F12D0012584F83D60002084F83C00D2
:1016C000284670BDCB68D1E90121206800F007FDF4
:1016D0002068816841F0770109E0CB68D1E90121F8
:1016E000206800F0FCFC2068816841F48041816042
:1016F000E1E719E0CA684968206800F0A5FD5021BB
:10170000206806E0CA684968206800F0DBFD6021B7
:10171000206800F0EEFCCEE7CA684968206800F057
:1017200093FD40212068F4E7226801461046F0E767
:101730002DE9F041054690F83C0000260C460128B2
:1017400010D0012085F83C0072B1042A1CD0082A70
:101750002CD00C2A50D00126002085F83C003046C1
:10176000BDE8F0810220FBE7D4E90012E3682868B5
:1017700000F07CFD2868816921F00C0181612868F6
:101780008169A26811430FE0D4E90012E368286878
:1017900000F0AAFD2868816921F440618161286810
:1017A0008169A26841EA02218161D5E72868D4E90C
:1017B000002C277B036A016A21F480710162C169F0
:1017C00023F4007321F0030141EA0C0121F0F00C35
:1017D00039074FF400774CEA116107EA02221A43F5
:1017E000C16102622868C16921F00C01C1612868E9
:1017F000C169A26811432BE02868D4E90021E76899
:10180000036AD0F820C02CF4805CC0F820C0D0F867
:101810001CC023F400532CF4407C4CEA012121F439
:10182000704C4FF6FF7101EA07314FF4005741EA5F
:101830000C0107EA02321A43C16102622868C169D9
:1018400021F44061C1612868C169A26841EA0221AE
:10185000C16181E710B5040003D094F83D0010B1D8
:1018600007E0012010BD002084F83C00204600F075
:101870001EF8022084F83D00211D206800F0ECFBDA
:10188000012084F8460084F83E0084F83F0084F884
:10189000400084F8410084F8420084F8430084F852
:1018A000440084F8450084F83D00002010BD7047D6
:1018B00010B586B000210091019102910391026858
:1018C0001B4902241B48B2F1804F23D01A4B9A4285
:1018D0001ED18A6942F004028A618A6902F0040218
:1018E00004928A6942F008028A618969039401F0CE
:1018F00008010491C021CDE900146946FFF7EEF913
:101900000320CDE9000469460C480394FFF7E6F98B
:1019100006B010BD8A6942F004028A6189690394A5
:1019200001F0040104910F21CDE900146946EDE7AF
:10193000001002400008014000040040000C01407B
:1019400070B5044690F83C0000260D4601280FD0E3
:10195000012084F83C006AB1042A1DD0082A2FD047
:101960000C2A3FD00126002084F83C00304670BD90
:10197000022070BD206800F0C5FB2068816941F03D
:10198000080181612068816921F00401816120687A
:1019900081692A69114311E0206800F0DBFB2068AF
:1019A000816941F4006181612068816921F480616D
:1019B0008161206881692A6941EA02218161D2E757
:1019C000206800F0F3FB2068C16941F00801C161A3
:1019D0002068C16921F00401C1612068C1692A69D8
:1019E000114311E0206800F00DFC2068C16941F44A
:1019F0000061C1612068C16921F48061C161206812
:101A0000C1692A6941EA0221C161ACE710B504004D
:101A100003D094F83D0010B107E0012010BD002074
:101A200084F83C00204600F01FF8022084F83D00B6
:101A3000211D206800F010FB012084F8460084F886
:101A40003E0084F83F0084F8400084F8410084F8A8
:101A5000420084F8430084F8440084F8450084F888
:101A60003D00002010BD000008B501680B48B1F131
:101A7000804F0BD00A4A914207D1C16941F002015F
:101A8000C161C06900F00200009008BDC16941F069
:101A90000101C161C06900F00100F5E700100240DA
:101AA0000004004010B50446022249B104290ED0BA
:101AB000082913D094F84100012816D0012010BD48
:101AC00094F83E000128F9D184F83E200FE094F804
:101AD0003F000128F2D184F83F2008E094F840004C
:101AE0000128EBD184F8402001E084F84120012254
:101AF000206800F0E7FA0F492068884203D1426C61
:101B000042F4004242642068884208D0B0F1804F1D
:101B100005D00949884202D00849884204D1816829
:101B200001F00701062903D0016841F001010160BD
:101B3000002010BD002C01400004004000080040BF
:101B400070B5040004D094F84100002510B106E0FF
:101B5000012070BD84F84050204600F023F8242076
:101B600084F841002068C16821F40051C16020461A
:101B700000F0D6FB2068016921F4904101612068E2
:101B8000416921F02A0141612068C16841F4005196
:101B9000C1606564202084F8410084F842006563D8
:101BA000002070BD30B585B00024009401940294EB
:101BB000039400681449884224D11448816941F48F
:101BC00080418161816901F480410491816941F022
:101BD0000401816180690E4D00F0040004904FF40F
:101BE000007000900220019003200390694628466F
:101BF000FFF774F82815CDE90004694628460294D9
:101C0000FFF76CF805B030BD00380140001002400D
:101C1000000801402DE9F843044690F841001F46B2
:101C200016460D46202802D00220BDE8F8837DB17B
:101C300076B100206064212084F84100FFF744F968
:101C4000A6848046E684A068B0F5805F02D003E0F9
:101C50000120EAE7206910B12E4600250EE000269B
:101C60000CE08021204600F0B7FBA0B9AEB116F819
:101C7000010B21684860E08C401EE084E08C434604
:101C80004FF0000200970028EBD14FF040012046B2
:101C900000F0A2FB30B10320C7E735F8020BC0F318
:101CA0000800E6E7202084F841000020BDE700009E
:101CB00070B5124D4FF48044002221462846FFF7AC
:101CC000FDF8022000F0D6FB012221462846FFF74E
:101CD000F5F80C2000F0CEFB002221462846FFF745
:101CE000EDF807480068C16841F00801C160642050
:101CF000FEF7E2FF0348408870BD0000000C014081
:101D0000BC00002000000020FEE700000A4942F667
:101D1000E062086842630B68002098630B68D86330
:101D20000968086405490B6858630B6898630B6879
:101D3000D8630868026470472C00002074000020FB
:101D400070B586B00024184800940194029403945E
:101D5000816941F020018161816901F020010491D4
:101D6000816941F004018161816901F004010491FC
:101D7000816941F00801816180690C4E00F0080022
:101D80004FF480450490002229463046FFF796F82C
:101D900001200095CDE901040220039069463046F8
:101DA000FEF79CFF06B070BD00100240000C014021
:101DB00010B58AB0002407941C2168460894FEF7E9
:101DC0008BFA22484FF0804101604721C0E901149D
:101DD00042F20F71C0E903148461FFF717FE08B1E6
:101DE000FEF768FF079407A918480894FFF77CFBE3
:101DF00008B1FEF75FFF6020CDE9000402940022E5
:101E0000694612480494FFF79BFD08B1FEF752FFA4
:101E1000042269460D48FFF793FD08B1FEF74AFF1B
:101E2000082269460948FFF78BFD08B1FEF742FF1B
:101E30000C2269460548FFF783FD08B1FEF73AFF1B
:101E40000248FFF735FD0AB010BD00002C0000204D
:101E500010B58AB0002407941C2168460894FEF748
:101E60003BFA2248204901604721C0E9011442F2AF
:101E70000F71C0E903148461FFF7C8FD08B1FEF7D4
:101E800019FF079407A919480894FFF72DFB08B11B
:101E9000FEF710FF6020CDE900040294002269469D
:101EA00012480494FFF74CFD08B1FEF703FF04222B
:101EB00069460E48FFF744FD08B1FEF7FBFE082215
:101EC00069460A48FFF73CFD08B1FEF7F3FE0C2215
:101ED00069460648FFF734FD08B1FEF7EBFE0348FC
:101EE000FFF7E6FC0AB010BD0004004074000020BB
:101EF00010B58AB0002422480494059406940794EF
:101F0000089409940094019402941C49039401607C
:101F10004721C0E901144FF6FF71C0E90314846141
:101F2000FFF716FB08B1FEF7C5FE4FF48050049092
:101F300004A91348FFF78EFB08B1FEF7BBFE10485B
:101F4000FFF788FC08B1FEF7B5FE089408A90C4815
:101F50000994FFF7C9FA08B1FEF7ACFE0120CDE9FC
:101F6000004002940822694605480394FFF7E0FB0D
:101F7000002801D0FEF79EFE0AB010BD0008004008
:101F8000BC0000200C4810B50A4901604FF4E13153
:101F90004160002181600C22C160C0E904128161AE
:101FA000C161FFF7CDFD002803D0BDE81040FEF76A
:101FB00081BE10BD0038014004010020FEE7FEE7AD
:101FC000094900200A6850630A6890630A68D06370
:101FD0000968086405490A6850630A6890630A68DA
:101FE000D0630968086470472C000020740000204A
:101FF00070477047FEF76EBF30B58FB02821684636
:10200000FEF76AF914210AA8FEF766F9012108040F
:10201000CDE900100024029402250491CDE9075077
:102020004FF4E01009906846FFF7BAF808B172B6AD
:10203000FEE70F20CDE90A054FF48060CDE90C40A2
:1020400002210AA80E94FEF7CFFF002801D072B635
:10205000FEE70FB030BD7047F0B50268164B174C65
:10206000174D4FF08047984205D0B84203D0A042A8
:1020700001D0A84203D122F070064A683243984248
:1020800005D0B84203D0A04201D0A84203D122F427
:102090004074CA6822434C6922F0800222430260E5
:1020A0008A68C2620A688262984201D10969016342
:1020B00001214161F0BD0000002C014000040040FE
:1020C0000008004010B501F01F030121046A994087
:1020D0008C430462016A9A401143016210BD10B53D
:1020E000846842EA032224F47F440A432243826044
:1020F00010BD826822F070020A4342F0070181603D
:102100007047000030B5036A026A22F001020262E1
:102110004268846924F073050C682C4323F002059F
:102120008B682B430A4DA8420BD123F00805CB68DE
:1021300022F440722B434D6923F0040315438A694E
:102140002A434260846149684163036230BD0000F4
:10215000002C014030B5026A036A23F010030362C9
:10216000436884690D6824F4E64444EA05248D68D4
:1021700022F0200242EA05120B4DA8420ED1CD6892
:1021800022F0800242EA05124D6923F4406343EADB
:1021900085038D6922F0400243EA85034360846130
:1021A00049688163026230BD002C014030B5036A8A
:1021B000026A22F4807202624268C46923F40073E6
:1021C00024F073050C682C438D6843EA05230C4DFD
:1021D000A8420ED1CD6823F4006343EA05234D697C
:1021E00022F4405242EA05128D6923F4806342EAE8
:1021F00005124260C4614968C163036230BD0000DA
:10220000002C014030B5046A026A22F48052026256
:102210004268C3690D6823F4E64343EA05238D68E9
:1022200024F4005444EA0534064DA84204D14D6913
:1022300022F4804242EA85124260C3614968016427
:10224000046230BD002C014010B5036A046A24F01A
:1022500001040462846924F0F00444EA021423F0C7
:102260000A020A438461026210BD000070B5056A6B
:10227000046A24F00104046284690F4EB04208D05D
:10228000B0F1804F05D00D4EB04202D00C4EB0429E
:1022900003D124F00304144301E044F001041A07BD
:1022A00024F0F00444EA126225F00A0301F00A0166
:1022B00019438261016270BD002C0140000400409E
:1022C0000008004010B5036A046A24F01004046298
:1022D000846923F0A00324F4704444EA023243EA00
:1022E00001118261016210BD30B5046A056A25F0F2
:1022F00010050562856925F4407545EA022222F43D
:1023000070454FF6FF7202EA033224F0A0032A431D
:10231000A02404EA011119438261016230BD00006A
:1023200070B5044600680169E26821F44051114328
:1023300001612169A0680843616908432168CA688E
:1023400041F20C639A430243CA6020684169A26962
:1023500021F44071114341611E492068884202D135
:10236000FEF7E8FE01E0FEF7D5FE00EBC00101EB51
:102370000012606864218000B2FBF0F3B3FBF1F35C
:102380006FF018067343B2FBF0F5B2FBF0F605EB05
:102390008305322303EB0515B5FBF1F5B6FBF1F62A
:1023A00005F0F00505EB0615B2FBF0F6B2FBF0F018
:1023B000B0FBF1F06FF01802504306EB800003EB26
:1023C0000010B0FBF1F0216800F00F002844886095
:1023D00070BD0000003801402DE9F04198461746D5
:1023E0000E460446069D27E0681C25D02DB1FEF759
:1023F0006BFDA0EB0800A8421ED920680C3050E805
:10240000001F21F4D07140E80012002AF5D12068A5
:10241000143050E8001F21F0010140E80012002AAA
:10242000F5D1202084F8410084F84200002084F88F
:1024300040000320BDE8F0812068006836EA000013
:1024400004D00020B842CFD00020F3E70120F9E704
:10245000FEE70907090E002804DB00F1E02080F800
:102460000014704700F00F0000F1E02080F8141D08
:102470007047000004490A220B685A6209684A6AD8
:102480008242FCD370470000BC00002013B54FF01F
:10249000FF33012269460248FFF7BCFB00981CBDD0
:1024A00004010020FEF71EFDFFF7A6FDFFF748FC24
:1024B000FFF77EFCFFF7CCFCFFF71AFDFFF762FD8C
:1024C00027A0FDF78DFE2B48FFF79CF82A48FFF761
:1024D00099F82A48FFF796F800212648FFF7E2FA14
:1024E00004212448FFF7DEFA08212248FFF7DAFA30
:1024F0000C212048FFF7D6FA00211F48FFF7D2FA37
:1025000004211D48FFF7CEFA08211B48FFF7CAFA3D
:102510000C211948FFF7C6FA00211848FFF7C2FA44
:1025200008211648FFF7BEFA154C4FF47A7540F6AD
:10253000B83600BFFFF7BCFB618812A0FDF750FE64
:1025400060883228F6D2FFF73BFD2846FEF7B4FB41
:10255000FFF7DCFB3046FEF7AFFBFFF731FDE9E7A5
:1025600041726520796F752072656164793F0D0A4B
:10257000000000002C00002074000020BC0000209F
:102580000000002064697374616E6365203D20253E
:102590006420636D200D0A00010202030405060792
:1025A00008090A0B0C0D0E0F1010000000000000AF
:1025B00000000102030406070809000000000102F0
:1025C00003043A7474003A7474003A74740000009E
:1025D000F0250008000000202C0000002801000861
:1025E0001C2600082C0000207C0800004401000884
:1025F00000000000000000000000000000000000DB
:102600000100000010000000000000000024F400A1
:0C261000000000000000000000000000BE
:04000005080000ED02
:00000001FF
