:020000040800F2
:1000000068080020B90100081B35000811330008FA
:1000100019350008131C0008753A0008000000009C
:100020000000000000000000000000001F35000874
:10003000151C0008000000001D35000821350008CF
:10004000D3010008D3010008D3010008D301000840
:10005000D3010008D3010008D3010008D301000830
:10006000D3010008D3010008D3010008D301000820
:10007000D3010008D3010008D3010008D301000810
:10008000D3010008D3010008D3010008D301000800
:10009000D3010008D3010008D3010008D3010008F0
:1000A000D3010008D3010008D3010008D3010008E0
:1000B00085350008D3010008D3010008D3010008EA
:1000C000D3010008D3010008D3010008D3010008C0
:1000D000D3010008693A0008D3010008D3010008E1
:1000E000D3010008D3010008D301000800F002F892
:1000F00000F052F80AA090E8000C82448344AAF170
:100100000107DA4501D100F047F8AFF2090EBAE86D
:100110000F0013F0010F18BFFB1A43F0010318473B
:10012000983D0000B83D0000103A24BF78C878C15F
:10013000FAD8520724BF30C830C144BF04680C60ED
:10014000704700000023002400250026103A28BF35
:1001500078C1FBD8520728BF30C148BF0B60704739
:10016000662903F04B86642900F07A8000207047EE
:100170001FB59DE8030000F063FF00F0FFFB0400E3
:100180000020002103F012FDE06000F00BFD1FBD18
:1001900010B500F070FD10BD00F0D8FD1146FFF75E
:1001A000E7FF03F0ADFC00F0DDFE03B4FFF7F0FF66
:1001B00003BC01F0D7F80000094880470948004710
:1001C000FEE7FEE7FEE7FEE7FEE7FEE7FEE7FEE707
:1001D000FEE7FEE704480549054A064B7047000064
:1001E00083350008ED000008680200206808002040
:1001F00068040020680400200FB4044910B503AA65
:10020000029800F0A9FB10BC5DF814FB600100200F
:1002100070B5044685690068C10601D5302600E046
:100220002026C00707D070BDD4E901213046904791
:10023000206A401C20626D1EF6D570BD70B5044664
:1002400085690078C00707D170BDD4E9012120205D
:100250009047206A401C20626D1EF6D570BD0000DC
:100260002DE9F0410646002410687529314616A58F
:1002700010D0AFF30080002802DA404213A507E057
:1002800031688A0701D512A502E0490704D511A5F6
:10029000012401E0AFF3008000210A2206F12407C7
:1002A00009E0B0FBF2FCB0FBF2F302FB1C003030C3
:1002B00078541846491C0028F3D123462A46304674
:1002C000BDE8F04100F0E2B8000000002D000000A1
:1002D0002B000000200000002DE9F0474FF0000A3D
:1002E00089460446C0F820A02046E16888470028D7
:1002F00076D0252806D0D4E901219047206A401CF9
:100300002062F1E7E168204600268847C4F81CA077
:1003100005460027C4F818A02A2D09D0284603F066
:10032000CEFB38B304EB8708303DC8F8185019E00D
:1003300059F8041B204604EB87029161E168884765
:10034000012F054618D1E069002820DA26F02006A2
:100350001DE0D8F8180000EB800005EB40003038B5
:10036000C8F818002046E1688847054603F0A7FB57
:100370000028EED1012F0AD02E2D08D12046E168A9
:1003800088477F1C0546022F46F02006C4DBA06983
:10039000002803DA404246F00106A061F00701D0D0
:1003A00026F010066C2D0AD0682D08D04C2D39D0BF
:1003B0006A2D35D0742D35D07A2D33D016E0E16812
:1003C0002F4620468847B84205460AD16C2F27D0D1
:1003D0004FF48060E168064320468847054605E003
:1003E00027E06C2F1AD04FF4807006430DB3A5F1AF
:1003F0004100192802D8203546F400664A462946AD
:10040000204626604E46FFF7ABFE80B101280BD098
:10041000F61D26F0070000F1080965E74020E4E733
:100420008020D7E70020D5E706F104095CE72846DD
:1004300061E7206ABDE8F0874FF0000200B513467F
:1004400094469646203922BFA0E80C50A0E80C50F4
:10045000B1F12001BFF4F7AF090728BFA0E80C50A5
:1004600048BF0CC05DF804EB890028BF40F8042B9E
:1004700008BF704748BF20F8022B11F0804F18BF0B
:1004800000F8012B70477047704770472DE9F0471F
:100490000D4699469246044600F1240801688806F4
:1004A00004D5E06921F01001216000E00120A8429C
:1004B00001DD471B00E00027A1697A1902EB090062
:1004C000081AA0612078C00602D42046FFF7A0FEDB
:1004D000002608E0D4E901211AF806009047206AB6
:1004E000401C761C20624E45F4DB2078C0060AD5FD
:1004F0002046FFF78DFE06E0D4E901213020904729
:10050000206A401C2062381EA7F10107F4DC07E0D6
:10051000D4E9012118F805009047206A401C2062A8
:10052000281EA5F10105F3DC2046FFF787FE2078A1
:10053000000602D50220BDE8F0870120FBE77047E6
:100540002DE9FF4F0C461E464FF0FF378BB0D2E926
:100550000001DDF860800A908A46C1F30A5505B9AA
:100560003D46002108464FF00000BAF1000F00F4AC
:10057000400005DA00EB80004FF4400101EA500032
:100580004FEA9059B9F1010F00DDB9460A9850EAD7
:100590004A000ED044F61050A5F2FF3545432F1403
:1005A000B8F1000F1ED07542291E1EDDC9F10002F0
:1005B0001CE0B8F1010F4FF0000001D0302103E042
:1005C000F24305E02154401CB042FBDB30460022E0
:1005D000002121540B99C1F80880C1E900200FB017
:1005E000BDE8F08FBD1B6D1CDEE74A4600DA6942AC
:1005F00006A800F065FA06AB93E8070003AB83E8B2
:10060000070050460A9900F049FF8DE80700A0F561
:1006100000501F3800900398002D09DD42F21F01A1
:100620004A46084403A90390684601F0A8F908E087
:10063000A0F500504A461F3803A90390684601F010
:10064000B2F98DE807000004000C03D04FF0FF3032
:10065000410800E01046B8F1000F03D000220092DC
:1006600015461EE0751E05D400F08CF93032625537
:100670006D1EF9D5B3460122084302D000227F1C2B
:1006800004E02078302801D100227F1E002A09973B
:1006900086D01DE0112D07DA00F074F93032625572
:1006A0006D1C50EA0102F5D1084302D00098C8B190
:1006B0000EE00021681E05E0235C625C6354225456
:1006C000401E491C8142F7DBAB46A81B401E099027
:1006D000002004F80B000B98099AC0F80880C0E9C4
:1006E000002B7CE711264FF0000859E72DE9F04F69
:1006F00088460446D21D22F0070191B0D1E90001DD
:10070000CDE90A0103F0B7F902460B98C00F01D0FA
:100710002D2007E02068810701D52B2002E0202151
:1007200001EAC000032A099001D0072A05DB03462D
:100730004146204600F084F90BE12078800601D57F
:10074000E06900E00620B8F1650F814606D0B8F1F7
:10075000660F18D0B8F1670F70D131E00020B9F101
:10076000110F009001DB112301E009F101030AAA36
:1007700001A90CA8FFF7E4FEDDE90C70002609F1E1
:100780000105834647E001204B4600904FF00047AB
:100790000AAA01A90CA8FFF7D3FEDDE90DB00C9958
:1007A0005D46002610B909F101000D18B9EB0500EE
:1007B00003D4C0F1FF3609F10105A5EB09002BE0D8
:1007C000B9F1010F01DA4FF001090020B9F1110F61
:1007D0000090484601DD112300E003460AAA01A962
:1007E0000CA8FFF7ADFEDDE90C704D4600268346F0
:1007F000207800070AD4AB4500DA5D4601A8012D38
:1008000004DD411911F8011C302907D04F4502DAE7
:1008100017F1040F04DA012082460FE06D1EEEE7A7
:10082000002F02DCED1B3E4403E0781CA84200DDF3
:100830007D1CB81B00F1010A4FF00047207800072B
:1008400003D4AA4501DB4FF0FF3A0021B7F1004F76
:100850000DF143088DF8431024D002202B23002FE4
:1008600001DA7F422D230A21021EA0F1010000DCE3
:100870005FB197FBF1FC97FBF1F201FB1C7C174683
:100880000CF1300C08F801CDEEE7A8F1010003707F
:100890002188090501D5452100E06521A0F1010865
:1008A00000F8011C09980FA9A1EB0807FF1D00B172
:1008B0000120411901EBEA70A1693844081A401E71
:1008C000A0612078C00602D42046FFF7A1FC099859
:1008D00028B1D4E901219047206A401C2062207889
:1008E000C00622D52046FFF793FC1EE0002E04DB55
:1008F000B34502DD01A8805D00E03020D4E901218C
:100900009047206A401C2062761CAAF101005FEA31
:10091000000A0AD100F032F8C0680168405CD4E9EE
:1009200001219047206A401C2062281EA5F1010584
:10093000DCDC07E0D4E9012118F8010B9047206ABC
:10094000401C2062381EA7F10107F3DC2046FFF7A8
:1009500075FC032011B043E6074B70B50D467B4490
:1009600000F05BF80446284600F018F910B14FF08B
:10097000FF3070BD204670BD8331000000487047D5
:100980002802002030B5B0F10A024FEA900E71F152
:1009900000034EEA817EB0EB0E0061EB91014FEA5D
:1009A000101E4EEA017E10EB0E0041EB11114FEAD2
:1009B000102E4EEA016E10EB0E0041EB11214FEAB2
:1009C000104E4EEA014E10EB0E0041EB1141401863
:1009D00041F100014FEAD00040EA41704FEAD101F5
:1009E00010EB80054FEA810444EA907444EB010463
:1009F0006D1944EB0404521BA3414FF0000348BFA0
:100A00000A3200D530BD401C41F1000130BD00006C
:100A100001694A1C02610878704700B58FB0CDE9C2
:100A200001310021059105497944CDE903101146B2
:100A30006846FFF751FC0FB000BD0000E5FFFFFF67
:100A40002DE9F0411F46044603260168072A01F4F8
:100A5000006004DB08B116A505E016A503E008B1A7
:100A600015A500E015A521F010002060A069C01EAA
:100A7000A0610FB1401EA0612046FFF7C9FB4FB136
:100A8000D4E9012138469047206A401C2062C01CEE
:100A9000206206E0206AFAE7D4E9012115F8010B8B
:100AA0009047761EF8D22046FFF7C8FBBDE8F081DC
:100AB0004E414E006E616E00494E4600696E660002
:100AC0002DE9F047814616468AB0334878440DC870
:100AD0008DE80D0030487844801C03AC0DC884E8D4
:100AE0000D0041F69B300844372190FBF1F290FB5A
:100AF000F1F5A5F1800501FB12041B3C02D564420F
:100B0000012000E00020DFF890A080460027FA4492
:100B1000AAF1BE0A0DE0E00709D03246684607EBAD
:100B200047010AEB810100F03EFF8DE807006410E9
:100B30007F1C002CEFD1184F7F44AC3F18E0E80732
:100B400014D007EB04100DF1180A90E80E008AE8A3
:100B50000E00C068F04201D198190890324606A9EB
:100B600003A800F020FF03AB83E807006D10641CAE
:100B7000002DE4D132466946B8F1000F03A802D037
:100B800000F0FDFE01E000F00EFFC9E90001C9F828
:100B900008200AB0BDE8F087C4330000007B00F0F5
:100BA0008000704710B542485421FFF745FC41488A
:100BB0005421FFF741FC40485421FFF73DFC3F49D9
:100BC0003B483C4A3F4B08603D490A603A4919603E
:100BD000531C0365481C1065012008653B48344AD6
:100BE00039A1784400F022F920B9384878440A380D
:100BF00000F0C1F937482F4A35A1784400F016F9C2
:100C000020B9344878440A3800F0B5F932482A4A05
:100C10002FA1784400F00AF920B92F4878440A3807
:100C200000F0A9F940232248DC000021224600F010
:100C3000D9F820B125487844543800F09CF91D4873
:100C400022464023002100F0CDF820B1214878440D
:100C5000543800F090F9184822461023002100F083
:100C6000C1F8002806D01C487844BDE8104056382A
:100C700000F081B910BD104870B5006D20F001047E
:100C80000B4800F049F90B4800F046F90A4800F01B
:100C900043F909E0206D20F00105204600F03CF901
:100CA000204600F078F82C46002CF3D170BD0000EF
:100CB0000C01002060010020B40100202000002071
:100CC000240000202800002072000000C63200002E
:100CD00077000000B23200009E3200000EB5CDE970
:100CE000000100F01FFB029069460120ABBE0EBD63
:100CF00008B5694600900220ABBE08BD1FB58DE85F
:100D0000070069460520ABBE04B010BD1FB58DE8D5
:100D10000F0069460620ABBEF6E708B569460090AD
:100D20000920ABBE08BD1CB5CDE9000169460A200B
:100D3000ABBE1CBD704708B5694600900C20ABBE29
:100D400008BD000000487047080200207546FFF704
:100D5000F9FFAE4605006946534620F00700854678
:100D600018B020B5FFF736FABDE820404FF0000676
:100D70004FF000074FF000084FF0000B21F0070183
:100D8000AC46ACE8C009ACE8C009ACE8C009ACE8C6
:100D9000C0098D46704770B50446051F00F034F950
:100DA0000068002C14BF446870BD002C18BFAC4212
:100DB0003CBF20466468F8D301680A18AA4218BFED
:100DC000456003D12A68054611440160286841192D
:100DD000A1421CBF6C6070BD6168696021680844F5
:100DE000286070BD70B5C468A50713D0650211D422
:100DF000B2F5807F09D0B2F5007F06D0B2F5806FE2
:100E000008D1012300F1240106E05D1E6FF07F464A
:100E1000B54201D3012070BD0161C361416024F47A
:100E200070611143C160002070BD00002DE9F041E8
:100E30000C4607461646104600F06EF82078611CF6
:100E400061280AD0722802D077283CD102E001251F
:100E5000002405E00225042402E0082448F20205EB
:100E600011F8010B2B2806D0622809D011F8010CCB
:100E700074280AD00BE045F0030544F00204EFE7C4
:100E800045F0040544F00104EAE744F01004384654
:100E90002146FFF723FF411C15D00021316171600D
:100EA0004FF40071F560F1617061200704D53046A0
:100EB0000222002100F022F9306D40F0010030657F
:100EC0003046BDE8F0810020FBE72DE9F0410D46FA
:100ED0000646104C206DC10704D0410804D020F014
:100EE0000104F7E722460EE0542000F0D8F807008E
:100EF0000ED0206D47F0010108435421206538468B
:100F0000FFF79AFA3A4629463046BDE8F0418DE7A8
:100F10000020D6E70C0100202DE9F04704464FF0F1
:100F200000094FF0FF37C568D4E90486A80707D049
:100F3000204600F093F93046FFF7DAFE002802DA87
:100F40003846BDE8F087280502D54046FFF723FF65
:100F50004C212046FFF770FA206D20F0010020653B
:100F60004846EEE710B50446AFF300802046BDE8E2
:100F70001040FFF71AB910B500F0BAF9BDE81040FB
:100F800000F0B0B94FF0013C50F8042B51F8043B8D
:100F90009A4221D1A2EB0C03934313EACC1317D14D
:100FA00050F8042B51F8043B9A4215D1A2EB0C03E4
:100FB000934313EACC130BD150F8042B51F8043BA4
:100FC0009A4209D1A2EB0C03934313EACC13DBD072
:100FD0004FF00000704700BFD01A01BAB1FA81F19A
:100FE00001F0180122FA01F0CB40C1F12001DBB27F
:100FF000C0B2C01A2CFA01F3D11A914311EAC311FD
:10100000E6D170477047000000487047100200208A
:10101000704770477047704738B504460A4600204D
:101020006946AFF30080002808BF38BD024600992A
:10103000204600F0A4F9012038BD012000F0F3B9EA
:10104000F8B5AFF30080054600200C46102000BF25
:101050000646A819A0420DD9324669460020AFF3D2
:101060000080070008BF00F0DEF90098A04218BF1A
:101070000546C419FFF7C8FF05600746F01D20F0BC
:1010800007004619284600F073F9B44208BFF8BDBE
:10109000A21B31463868BDE8F84000F070B970B561
:1010A0000646FFF7B1FF056806F10B0020F00704C4
:1010B000B4429CBF002070BD2B466A68BAB110686C
:1010C000A04210D304F1080188423CBF5068586028
:1010D00007D35168101941601168091B01605860FD
:1010E0001460101D70BD13465268002AE7D12146D6
:1010F0002846FFF791FF0028DED170BD2DE9F041B1
:10110000044616460D464769007B80072ED03846B8
:10111000FFF703FE50BB3EB3012E02D0022E25D1B5
:1011200004E0204600F045F905441DE03846FFF78D
:1011300002FEE168002841F01001E16005DA204676
:1011400000F058F80120BDE8F081C9030BD56268B2
:10115000E16A914200D81146A26911442269891AB4
:10116000814200DD08460544002D01DA0220EAE74D
:10117000E16A6068E268814206D29103E06203D5C9
:1011800022F4003141F01002A6690027AE4213DCC0
:10119000E16A814201D90B4600E0034603EB060CED
:1011A0002369ACEB030CAC4506DD814201D98C46CA
:1011B00000E084469C4505D1A760276042F02000EE
:1011C000A5620DE0AD1BE669AE1B8142A66000D9A9
:1011D0000846C01A281A20605819606022F02000C2
:1011E00003490840E060002084F84870ABE7000045
:1011F000BFCFD7FFC16821F4001141F08001C16069
:1012000000218160016070472DE9F0478146144656
:101210000E464FF0FF383248D5685769054209D06D
:101220003846A169FFF77FFD002811DB2C48C04339
:101230000540E5602B46324649463846FFF75EFDDD
:10124000A16920F00042B21A11440028A16103D024
:101250002046FFF7CFFF4046BDE8F08770B5044653
:101260000569C06A6168884200D80846E16821F4CF
:101270002011E160C90312D5A84208D02246411BC3
:101280002846FFF7C1FF10B14FF0FF3070BD0020BE
:10129000E562C4E90150E06820F48030E06000209D
:1012A00070BD10B50446C06820F02000E060A16A5F
:1012B000A06988420DD02046FFF7D0FFE06820F4F7
:1012C000405040F01000E060A06AA0612069E06238
:1012D000606044F24001E0688843E06010BD0000B7
:1012E00010000200002801D000F03CB87047000058
:1012F00010B5014602A000F07DF8012010BD0000ED
:1013000053494752545245443A20526564697265C4
:1013100063743A2063616E2774206F70656E3A20A3
:101320000000000010B5431C02E010F8011B71B171
:101330008107FAD14FF0013202C88C1A8C4314EAAB
:10134000C211F9D0C01A0A0603D0C01E10BDC01ABF
:1013500010BD0A0401D0801E10BD0902FCD0401E41
:1013600010BD000001491820ABBEFEE726000200B8
:1013700000210160C0E9011070471020704703464A
:1013800040688C46002818BF88423CBF034640682E
:10139000F8D318681844884207D00CF1030020F0F5
:1013A0000700001D411A521A0146081D0A60FFF786
:1013B000F2BC10B50146C268900703D0900607D56D
:1013C000886A0AE000F03EF801210160881E10BD25
:1013D0008B69486818440B69C01A91F848301BB1F2
:1013E00091F84910401A10BD1103FCD50028FADD10
:1013F000401E10BD70B505460C460A2000E06D1C6D
:1014000000F018F835B128780028F8D102E0641C03
:1014100000F010F814B120780028F8D1BDE8704031
:101420000A2000F007B810B500F010F8BDE8104031
:10143000FFF758BF08B569468DF800000320ABBE22
:1014400008BD0000004870470802002010B50128C0
:1014500005D0002103A0FFF7CDFF012010BD09A199
:10146000F8E7000053494752544D454D3A204F7517
:1014700074206F662068656170206D656D6F72798C
:10148000000000003A2048656170206D656D6F7244
:101490007920636F72727570746564005FEA400C46
:1014A00008BF91F0000F4FEA8C234FEAC12243EAB4
:1014B00051514FEA1C5018BF00F5F0404FEA300080
:1014C00018BF41F000415FEA6C5C00F02980BCF17C
:1014D000FF3F08BF40F080407047130C06BF120466
:1014E0004FF0100C4FF0000C130E04BF12020CF161
:1014F000080C130F04BF12010CF1040C930F04BF6E
:1015000092000CF1020CD30F04BF52000CF1010C3D
:1015100011464FF00002A0F11F00A0EB0C00704735
:1015200011F0004F08BF704731F000413FF4D5AFD4
:101530000B0C06BF09044FF0100C4FF0000C0B0E03
:1015400004BF09020CF1080C0B0F04BF09010CF1D8
:10155000040C8B0F04BF89000CF1020CCB0F04BFED
:1015600049000CF1010CCCF12003A0EB0C0022FA95
:1015700003F302FA0CF241EA030100F101007047A3
:1015800020F07F4C80EA030023F07F47ACEB070399
:1015900003F57C5300F0004003F1FF032DE980497F
:1015A0004FEA154B09B44FEA144325EA0B4E24EADF
:1015B00003480FF2042606EB132749083E785FEA3A
:1015C000320203FB0667C7F5000707FB06F64FEA82
:1015D00054374FEAD64606F1020607FB066CCCF1FB
:1015E000005C4FEA1C472CEA074C07FB06F40CFB97
:1015F00006F504EB15464FEA961634BF00204FF06F
:1016000000404FEAD13706FB07FC4FEA1C4C0CFBAD
:101610000BF7D21B03FB0CF761EB07010CFB0EF77A
:10162000B0EB074072EB17420CFB08F734BFA2EB9C
:101630000742B2EB074261EB17414FEA0C444FEA15
:10164000910706FB07FC4FEA1C4C0CFB0BF7B0EBB9
:10165000C74072EB573203FB0CF734BFA2EBC74213
:10166000B2EBC74261EB57310CFB0EF7B0EBC70092
:1016700072EB57720CFB08F734BFA2EBC702B2EB58
:10168000C70261EB5771039F4FEA816141EA9211F2
:1016900004EBCC044FEAD1374FEA826206FB07FC29
:1016A00042EA90124FEA80604FEA1C4C0CFB0BF7A9
:1016B000D21B03FB0CF761EB07010CFB0EF7B0EB41
:1016C000074072EB17420CFB08F734BFA2EB07424E
:1016D000B2EB074261EB17414FEA8C554FEA910795
:1016E00004EB9C2406FB07FC4FEA1C4C0CFB0BF79D
:1016F000B0EBC74072EB573203FB0CF734BFA2EBE1
:10170000C742B2EBC74261EB57310CFB0EF7B0EBAF
:10171000C70072EB57720CFB08F734BFA2EBC7028D
:10172000B2EBC70261EB577115EB4C254FEA8161B3
:1017300041EA92114FEA82624FEAD13742EA9012AF
:1017400006FB07FC44F100044FEA80604FEA1C4CA2
:101750000CFB0BF7D21B03FB0CF761EB07010CFB37
:101760000EF7B0EB074072EB17420CFB08F734BFE3
:10177000A2EB0742B2EB074261EB174115EB1C15D8
:101780004FEA813141EA92414FEA823242EA904285
:101790004FEA80304FEA0C7644F1000448EA0343F4
:1017A0004EEA0B484FF0000EB2EB080C71EB03074A
:1017B00024BF624639464EEB0E0E4FF0000B001868
:1017C000524149414BEB0B0BB2EB080C71EB030799
:1017D0007BF1000B24BF624639464EEB0E0E4FF0F4
:1017E000000B0018524149414BEB0B0BB2EB080CBC
:1017F00071EB03077BF1000B24BF624639464EEBC9
:101800000E0E51EA020718BF46F0010616EB0E76DF
:1018100055F1000254F1000103D5BDE88901BDE88E
:101820000088BDE88901BDE80048B619524141EB86
:101830000101A3F10103704780807F7E7D7C7B7A6C
:101840007978777676757473727171706F6E6E6D6C
:101850006C6C6B6A6A696868676666656464636312
:1018600062616160605F5F5E5E5D5D5C5C5B5B5A98
:101870005A59595858575756565555555454535305
:1018800052525251515050504F4F4F4E4E4D4D4D60
:101890004C4C4C4B4B4B4A4A4A49494948484847AB
:1018A00047474746464645454544444444434343E9
:1018B0004342424242414141002B26D4770021D08D
:1018C0001CB54FEA370703B44FF010004FF010017A
:1018D0004FF000000FBCBDE810400BF1010BBBF155
:1018E000010F08BF5FEA170722BF12F1010211F1D1
:1018F00001014FF0004143F1000300F0004043EAD2
:1019000000007047F9D35708DAE746EA064613F1B4
:10191000400F4FEA16461FDD13F1200FDFBF1643BD
:101920000A46002120335B42C8D0C3F1200746EAB3
:10193000064602FA07F74FEA164646EA0706C3F1DB
:10194000200722FA03F201FA07F721FA03F14FF018
:10195000000342EA0702B1E746EA020646EA064603
:101960004FEA164646EA0106BCBF46EA0646360C72
:101970004FF000034FF000024FF000019EE72DE909
:10198000C048934630B491E8380007C831EA400CAB
:1019900048BF34EA430C03D5FFF7F2FDFFF78CFF95
:1019A000F0BCBDE800882DE9C048934630B491E80A
:1019B000380007C810F0804F08BF13F0804F03D1E4
:1019C00000F005F8FFF778FFF0BCBDE8008820F0D4
:1019D0007F4780EA030023F07F4C07EB0C03A3F55D
:1019E0007C5300F00040A3F1FE0392F0000F00F0E2
:1019F000B38095F0000F00F077802DE901494FEAA0
:101A000011404FEA144621EA004800FB06FC24EA94
:101A1000064708FB06F607FB08F800FB07F718EB7C
:101A200006484CEB164C4FEA124B18EB07484FEAAE
:101A300015464CEB174022EA0B4E0BFB06FC25EA41
:101A400006470EFB06F607FB0EFE0BFB07F71EEB29
:101A5000064E4CEB164C4FF000061EEB074E4CEBBF
:101A6000174B18EB0B0840F1000018EB0E0B58EB6E
:101A7000000840F100008F1A4FF000013CBFC9433D
:101A8000661B14BFB5EB040C00213CBFC943F61B19
:101A90004FEA17444EEA8E0E27EA04454FEA1C47E8
:101AA00004FB07622CEA074C05FB07F70CFB05F665
:101AB00004FB0CFC16EB074642EB174216EB0C46F8
:101AC00042EB1C421BEB060658EB0202414146EA80
:101AD0009E0601D5BDE80189B619524141EB0101CD
:101AE000A3F10103BDE801894FEA14454FEA11470C
:101AF00024EA054621EA074C05FB07F406FB07F735
:101B00000CFB06F105FB0CFC11EB074144EB174401
:101B10004FEA124711EB0C4144EB1C4422EA074CFC
:101B200005FB07F206FB07F70CFB06F605FB0CFCB2
:101B300016EB074642EB174216EB0C4642EB1C45F0
:101B40006A1854F1000148BF7047B619524141EB81
:101B50000101A3F10103704795F0000F37D04FEA60
:101B600011424FEA144721EA024624EA074C02FBDD
:101B700007F106FB07F70CFB06F402FB0CFC14EB69
:101B8000074441EB17414FEA154714EB0C4441EB76
:101B90001C4125EA074C02FB07F506FB07F70CFB87
:101BA00006F602FB0CFC16EB074645EB174516EB59
:101BB0000C4645EB1C42121951F1000148BF704719
:101BC000B619524141EB0101A3F1010370474FEAFD
:101BD00014454FEA114724EA054621EA074C05FB64
:101BE00007F106FB07F70CFB06F24FF0000605FBBA
:101BF0000CFC12EB074241EB174112EB0C4251EB8C
:101C00001C4148BF7047921841EB0101A3F1010349
:101C10007047FEE7704772B6FEE710B590F82110E6
:101C20000022022905D00421816380F820200120B0
:101C300010BD01680B6823F00E030B6001680B6890
:101C400023F001030B6090F84030C46B012101FACE
:101C500003F3636080F8211080F82020104610BD47
:101C600010B590F821100024022903D004218163CB
:101C700001243DE001680A6822F00E020A60016852
:101C80000A6822F001020A601A4A0168914201D1F1
:101C9000012121E0174A1432914201D110211BE0A9
:101CA000144A2832914201D1891515E0114A3C327B
:101CB000914201D189140FE00E4A5032914202D173
:101CC0004FF4803108E00B4A6432914202D14FF464
:101CD000801101E04FF08071064A083A51600121FD
:101CE00080F82110002180F82010416B01B1884755
:101CF000204610BD0800024070B5044600F004F90B
:101D00000546601C02D004480078044400F0FCF84A
:101D1000401BA042FAD370BD100000202DE9F84FFF
:101D2000DFF8B891002409F1040A0AF1040B2346F4
:101D30000F270BF1040EC9E00125A5402A40AA4255
:101D40007DD1674ED1F804C0ACEB0608B44532D063
:101D500014DCBCF1030F3AD009DCBCF1000F2AD02F
:101D6000BCF1010F1CD0BCF1020F31D11DE0BCF160
:101D7000110F17D0BCF1120F2AD119E0B8F5881F46
:101D800019D006DCB8F5803F15D0B8F5801F1FD1FB
:101D900011E0B8F5001F0ED0B8F5041F18D10AE005
:101DA000CB6815E0CB681B1D12E0CB6808330FE051
:101DB000CB680C330CE08B682BB1012B4FF0080380
:101DC00003D0456104E0042302E0056100E0002344
:101DD000FF2A01D8064601E000F104064FEA840517
:101DE00001D9A5F12005D6F8008007FA05FC28EAFC
:101DF0000C0803FA05F548EA0508C6F800804D68A6
:101E0000ED0062D5374DAE6946F00106AE61AD69B1
:101E100024F0030605F001050095334D06EB050C93
:101E2000DCF80850A607360F07FA06F825EA080579
:101E3000DFF8B880404503D14FF0000817E044E0D8
:101E4000DFF8AC80404502D14FF001080FE0DFF829
:101E5000A480404502D14FF0020808E0DFF89880E6
:101E6000404502D14FF0030801E04FF0040808FAA2
:101E700006F848EA0508CCF808804D68D9F80060F3
:101E8000ED034D4601D5164300E096432E604D68A4
:101E9000DAF80060AD03554601D5164300E09643DD
:101EA0002E604D68DBF80060ED025D4601D51643FB
:101EB00000E096432E604D68DEF80060AD02754686
:101EC00001D5164300E096432E60641C0D682A4637
:101ED000E5407FF431AFBDE8F88F00000004014019
:101EE00000001110001002400000014000080140F5
:101EF000000C014000100140001401400AB10161D2
:101F000070470904FBE70000014880687047000043
:101F100010000020024881680278114481607047F7
:101F200010000020074810B5016841F01001016061
:101F3000032000F075F80F2000F006F800F024F8F8
:101F4000002010BD0020024070B50D4D04464FF436
:101F50007A712878B1FBF0F00A490968B1FBF0F01A
:101F600000F0ECFA48B9102C07D200222146501E8E
:101F700000F036F800206C6070BD012070BD0000DC
:101F8000100000201C0000200C4808B5816941F0B9
:101F900001018161816901F001010091C16941F094
:101FA0008051C161C06900F08050009004484168D0
:101FB00021F0E06141F00071416008BD0010024075
:101FC00000000140002809DB00F01F0201219140C0
:101FD0004009800000F1E020C0F8001170470000C7
:101FE000F0B40E4B1B680C46C3F30223C3F1070584
:101FF000042D00D90425191D072901D2002300E072
:10200000DB1E012606FA05F1491E214099409E403B
:10201000761E16403143F0BC01F041BD0CED00E0EE
:10202000064900F0070208684FF6FF03184040EA2F
:102030000220034A10430860704700000CED00E0E6
:102040000000FA052DE9F0470F46050061D0434E28
:10205000306800F00700B84209D2306820F007006D
:1020600038433060306800F00700B84251D128682A
:102070003B4C810712D5400703D5606840F4E0600F
:1020800060602878000703D5606840F460506060A5
:102090006068A96820F0F000084360602878C007F5
:1020A00028D06868012810D02168022810D089073C
:1020B00000292EDA616821F0030101436160FFF716
:1020C00023FF804641F288390DE021688903EFE75C
:1020D0008901EDE7FFF718FFA0EB0801494502D998
:1020E0000320BDE8F0876068696800F00C00B0EB81
:1020F000810FEFD1306800F00700B8420BD930688B
:1021000020F0070038433060306800F00700B84224
:1021100001D00120E5E72878400705D56068E96827
:1021200020F4E060084360602878000706D5606806
:10213000296920F4605040EAC100606000F038F87E
:102140006168084AC1F30311515CC8400649086040
:1021500006480068FFF7F8FE0020C2E700200240B2
:1021600000100240003E00081C0000201400002067
:102170000448054900684968044AC1F30221515CDA
:10218000C84070471C00002000100240103E0008AC
:102190000448054900684968044AC1F3C221515CFA
:1021A000C84070471C00002000100240103E00088C
:1021B00012A185B00FC98DE80F0014A0144A006861
:1021C00004905168134801F00C03042B10D0082B25
:1021D0000ED1C1F38343C9031DF803000AD551682A
:1021E00004AAC1F34041515C0A4A5043B0FBF1F0EC
:1021F00005B0704708494843FAE7000002030405A8
:10220000060708090A0B0C0D0E0F10100102000042
:102210000010024000127A0000093D002DE9F84F3D
:10222000040070D02078C04DC00749D06868C0F362
:102230008100012807D06868C0F38100022809D115
:102240006868C00306D52868800339D5606800280F
:10225000E7D035E06068B0F5803F0BD010B1B0F545
:10226000A02F11D0286820F480302860286820F43E
:10227000802002E0286840F480302860606890B1D7
:10228000FFF742FE06460AE0286840F480202860F6
:10229000F0E700BFFFF738FE801B642873D828687A
:1022A0008003F7D50CE0FFF72FFE064605E000BFE0
:1022B000FFF72AFE801B6428F0D828688003F7D433
:1022C00020789A4E80074FF001094FF0000839D569
:1022D000686810F00C0F07D06868C0F3810002280E
:1022E00009D16868C00306D42868800714D520691E
:1022F000012808D110E02069B0B1C6F80090FFF7BE
:1023000003FE074605E00AE1FFF7FEFDC01B0228B9
:10231000C4D828688007F7D52868616920F0F800DC
:1023200040EAC10028600DE0C6F80080FFF7ECFD30
:10233000074604E0FFF7E8FDC01B022823D8286801
:102340008007F7D4207800072CD57948A169D9B146
:10235000C0F80090FFF7D8FD074604E0FFF7D4FD72
:10236000C01B02280FD8686A8007F7D571484FF460
:10237000FA510068B0FBF1F0009000BF0098411ED8
:102380000091FAD20EE080E0C0F80080FFF7BCFDBB
:10239000074604E0FFF7B8FDC01B022875D8686A3D
:1023A0008007F7D42078400760D5E8690027C0008F
:1023B00008D4E86940F08050E861E869012700F03E
:1023C000805000905C480168C90513D401688346B9
:1023D00041F480710160FFF797FD824606E000BF7F
:1023E000FFF792FDA0EB0A0064284ED8DBF800004E
:1023F000C005F5D5E06801280AD008B1052813D03A
:10240000286A20F001002862286A20F0040002E017
:10241000286A40F001002862E06841F2883B98B1E8
:10242000FFF772FD82460BE0286A40F00400286244
:10243000EEE700BFFFF768FDA0EB0A0159455AD847
:10244000286A8007F6D50CE0FFF75EFD824605E0BE
:10245000FFF75AFDA0EB0A0159454CD8286A8007BE
:10246000F6D41FB1E86920F08050E861E06988B3D4
:102470006968C1F38101022944D00228C6F860804E
:1024800004D0FFF741FD044638E034E0FFF73CFD9F
:10249000074604E0FFF738FDC01B02282BD8286848
:1024A0008001F7D4206AB0F5803F05D16868A16843
:1024B00020F4003008436860D4E9080108436968E3
:1024C00021F4741108436860C6F86090FFF71CFDA2
:1024D000044606E025E000BFFFF716FD001B0228BA
:1024E00009D828688001F7D51BE000BFFFF70CFD75
:1024F000001B022802D90320BDE8F88F286880015C
:10250000F4D40EE00128F7D06868226A00F4803124
:10251000914204D1616A00F47010884201D0012018
:10252000EAE70020E8E70000001002400000424215
:10253000800442421C0000200070004010B5401E84
:10254000B0F1807F01D3012010BD4FF0E024606125
:102550000F21601701F0A3FA0020A061072020617D
:10256000002010BD7047704770B590F83C20012ADC
:1025700026D0012480F83C40022280F83D200368E8
:102580005A689D6822F070060A6832435A600D4B03
:1025900002689A4208D0B2F1804F05D00A4B9A42A5
:1025A00002D00A4B9A4204D1496825F080031943AE
:1025B000916080F83D40002180F83C10084670BDD5
:1025C000022070BD002C01400004004000080040C3
:1025D00010B5040003D094F83D0010B107E00120CD
:1025E00010BD002084F83C00204600F01FF80220B7
:1025F00084F83D00211D206800F0CAFF012084F806
:10260000460084F83E0084F83F0084F8400084F8D7
:10261000410084F8420084F8430084F8440084F8C0
:10262000450084F83D00002010BD000000B585B0D5
:102630000021009101910291039101681748B1F1C5
:10264000804F0CD0164A914207D1C16941F0020176
:10265000C161C06900F00200049005B000BDC1690D
:1026600041F00101C161C16901F001010491816979
:1026700041F0040181618069694600F00400049022
:10268000012000900748FFF749FB002211461C205B
:10269000FFF7A6FC1C20FFF795FCDEE700100240C8
:1026A000000400400008014090F83D10012901D0CD
:1026B00001207047022180F83D100168CA6842F08D
:1026C0000102CA6000680B49884208D0B0F1804F0F
:1026D00005D00949884202D00849884204D181685E
:1026E00001F00701062903D0016841F001010160F2
:1026F00000207047002C014000040040000800400A
:1027000070B5044690F83C00012817D0012584F8E4
:102710003C50022084F83D002068826822F0770255
:1027200022F47F4282600868502830D00DDC2028D7
:102730004DD005DC98B310283BD148E0022070BD95
:10274000302844D0402834D139E0602828D070287F
:1027500006D0B0F5805F2CD0B0F5005F29D10AE03B
:10276000CB68D1E90121206800F055FF206881681D
:1027700041F0770109E0CB68D1E90121206800F040
:102780004AFF2068816841F48041816011E0CA6895
:102790004968206800F0F4FF5021206807E016E047
:1027A000CA684968206801F029F86021206800F0B3
:1027B0003CFF84F83D50002084F83C0070BDCA689E
:1027C0004968206800F0DCFF40212068EFE72268BC
:1027D00001461046EBE700002DE9F041254C00686A
:1027E0002168884243D1244D244F0026287850B3D5
:1027F00001283CD10021204600F078FB7860206859
:10280000016A21F00A0101622068016A0162002167
:10281000204600F05FF96978786801EB411101EB1F
:1028200041010844686001F0D7F9154A154B01F0E1
:10283000E7F9C5E902012E706E702046BDE8F0414F
:10284000002100F0D7B800210A4800F04FFB3860A3
:10285000206846622068016A21F00A01016220684E
:10286000016A41F0020101622878401C2870BDE82D
:10287000F081000038000020000000202C00002023
:10288000FCA9F1D24D62503F2DE9F041054690F888
:102890003C000C46012836D0012085F83C008AB364
:1028A000042A42D02868082A51D0D4E90023E168DC
:1028B000066A26F480560662C669076A26F44076E0
:1028C00046EA03234FF6FF7606EA013123F470430C
:1028D00019434FF4005627F4005306EA02321A4314
:1028E000C16102622868C16921F44061C161286840
:1028F000C169A26841EA0221C161002085F83C005B
:10290000BDE8F08101E00220FAE7D4E90012E368B3
:10291000286800F047FF2868816921F00C01816177
:1029200028688169A26811430FE0D4E90012E368C6
:10293000286800F075FF2868816921F44061816191
:1029400028688169A26841EA02218161D5E7D4E95A
:102950000027267B016A21F480710162C169036A44
:1029600021F00301394321F0F00731074FF40076DD
:1029700047EA116123F4007306EA02221A43C16197
:1029800002622868C16921F00C01C1612868C1692F
:10299000A2681143B0E710B5040003D094F83D00DD
:1029A00010B107E0012010BD002084F83C00204653
:1029B00000F01EF8022084F83D00211D206800F080
:1029C000E7FD012084F8460084F83E0084F83F00CB
:1029D00084F8400084F8410084F8420084F8430001
:1029E00084F8440084F8450084F83D00002010BDC0
:1029F0007047000010B5044651B104290DD00829D4
:102A000010D094F8410094F84520012811D10EE02F
:102A100094F83E0094F84220F7E794F83F0094F8C9
:102A20004320F2E794F8400094F84420EDE7012AAF
:102A300001D0012010BD022051B1042911D0082974
:102A400018D084F8410084F845000C291BD136E0E9
:102A500084F83E0084F842002068C26842F0020216
:102A600010E084F83F0084F843002068C26842F018
:102A7000040207E084F8400084F844002068C2683B
:102A800042F00802C2600122206800F0B7FD0E4942
:102A90002068884208D0B0F1804F05D00B498842A9
:102AA00002D00B49884204D1816801F00701062950
:102AB00003D0016841F001010160002010BD2068D1
:102AC000C26842F01002DDE7002C01400004004023
:102AD0000008004030B5044600680D0006D0042D03
:102AE00008D0082D28D00C2D08D129E0C16821F08C
:102AF000020102E0C16821F00401C1600022294600
:102B0000206800F07BFD2068016A41F21112114239
:102B100007D1016A9210114203D1016821F001012D
:102B20000160012085B1042D11D0082D12D004F8C8
:102B3000410F2071002030BDC16821F00801DCE7A1
:102B4000C16821F01001D8E704F83E0FF1E704F85E
:102B50003F0FEEE704F8400FEBE770B5044600685E
:102B600001694FF00005C943890715D4C168C943FD
:102B7000890711D4E91E016101202077206880694E
:102B80008007204602D0FFF727FE04E000F0BEF8E1
:102B9000204600F04DF9257720680169C9434907AF
:102BA00017D4C168C943490713D46FF00401016108
:102BB000022020772068806910F4407F204602D0F0
:102BC000FFF70AFE04E000F0A1F8204600F030F91B
:102BD000257720680169C943090716D4C168C9432C
:102BE000090712D46FF008010161042020772068E2
:102BF000C0698007204602D0FFF7EEFD04E000F038
:102C000085F8204600F014F9257720680169C9434A
:102C1000C90617D4C168C943C90613D46FF010019F
:102C20000161082020772068C06910F4407F2046A9
:102C300002D0FFF7D1FD04E000F068F8204600F074
:102C4000F7F8257720680169C943C90708D1C16829
:102C5000C943C90704D1891E0161204600F038F933
:102C600020680169C943090609D4C168C943090636
:102C700005D46FF0800101612046FFF773FC2068E6
:102C80000169C943490609D4C168C943490605D445
:102C90006FF040010161204600F03DF920680169B4
:102CA000C94389060BD4C168C943890607D46FF0AC
:102CB000200101612046BDE87040FFF754BC70BDA3
:102CC00000B585B000210091019102910391006847
:102CD0000B49884211D10B48816941F0040181619F
:102CE0008069694600F004000490402000900220B2
:102CF000019003900448FFF711F805B000BD0000F3
:102D0000000400400010024000080140704770B508
:102D1000044690F83C000D4601280AD0012084F8B2
:102D20003C0042B1042A18D0082A2AD00C2A4DD1DE
:102D300039E0022070BD206800F080FC20688169C5
:102D400041F0080181612068816921F004018161FD
:102D5000206881692A69114311E0206800F096FC1F
:102D60002068816941F4006181612068816921F4F2
:102D700080618161206881692A6941EA022181615B
:102D800024E0206800F0AEFC2068C16941F0080131
:102D9000C1612068C16921F00401C1612068C16975
:102DA0002A69114311E0206800F0C8FC2068C1695D
:102DB00041F40061C1612068C16921F48061C16191
:102DC0002068C1692A6941EA0221C161002084F8B2
:102DD0003C0070BD10B5040003D094F83D0010B164
:102DE00007E0012010BD002084F83C00204600F0E0
:102DF0001EF8022084F83D00211D206800F0C8FB69
:102E0000012084F8460084F83E0084F83F0084F8EE
:102E1000400084F8410084F8420084F8430084F8BC
:102E2000440084F8450084F83D00002010BD704740
:102E30007047000010B50446022249B104290ED0A3
:102E4000082913D094F84100012816D0012010BDA4
:102E500094F83E000128F9D184F83E200FE094F860
:102E60003F000128F2D184F83F2008E094F84000A8
:102E70000128EBD184F8402001E084F841200122B0
:102E8000206800F0BBFB0F492068884203D1426CE8
:102E900042F4004242642068884208D0B0F1804F7A
:102EA00005D00949884202D00849884204D1816886
:102EB00001F00701062903D0016841F0010101601A
:102EC000002010BD002C014000040040000800401C
:102ED000044900680968884203D103494878401CC6
:102EE0004870704738000020000000200246002093
:102EF00041B1042909D008290AD00C2901D1106850
:102F0000006C70471068406B70471068806B7047AA
:102F10001068C06B7047704770477047F8B502681B
:102F200004461068D168536910F00F0F4FF0000588
:102F300053D003F0010601F4907737435FD0C20706
:102F400005D0CA0503D5226C42F001022264420773
:102F500005D5DA0703D0226C42F002022264820710
:102F600005D5DA0703D0226C42F00402226402077E
:102F700007D501F02002324303D0226C42F0080250
:102F80002264226C002A34D0800604D5880602D53B
:102F9000204600F080FC20684069216CC0F380105E
:102FA000090700D430B3204600F05DFC2068416979
:102FB00049061BD5416921F040014161A06BA8B1D0
:102FC00058494163A06BFEF74BFE002811D0A06B5F
:102FD000416B01B0BDE8F040084783060FD58B0672
:102FE0000DD52046BDE8F84000F055BC2046FFF75F
:102FF00094FFF8BD2046FFF790FF2564F8BD266BCF
:103000002023012E52D1C60650D5CE064ED51068CB
:1030100050680090506940062AD5A16B0868406846
:103020000004000CEAD0A68D8642E7D9E0858869C5
:10303000202818D0D06820F48070D06020684169C2
:1030400021F0010141612068416921F040014161A5
:1030500084F83E3025632068C16821F01001C1600A
:10306000A06BFEF7DAFDA08DE18D401A81B219E068
:10307000A08DE18D401A81B2E08D0028BED00029DC
:10308000BCD0D06820F49070D0602068426922F0F3
:103090000102426184F83E3025632068C26822F054
:1030A0001002C2602046FFF737FFF8BD05062BD59A
:1030B0000D0629D594F83D002128F6D1A068B0F579
:1030C000805F01D12069B0B1206A411C2162216872
:1030D00000784860E08C401E0004000CE084E4D1DD
:1030E0002068C16821F08001C1602068C16841F09A
:1030F0004001C160F8BD206A0088C0F3080050603C
:10310000206A801C2062E5E74006F3D54806F1D529
:10311000D168204621F04001D16084F83D3000F0B4
:10312000D0F8F8BD5738000870B5040004D094F802
:103130003D00002510B106E0012070BD84F83C5030
:10314000204600F023F8242084F83D002068C16860
:1031500021F40051C160204600F0F8FB20680169AD
:1031600021F4904101612068416921F02A01416107
:103170002068C16841F40051C1602564202084F8B2
:103180003D0084F83E00002070BD000030B585B0E1
:103190000024009401940294039400681849884222
:1031A0002CD11848816941F480418161816901F421
:1031B00080410491816941F0040181618069124D6F
:1031C00000F0040004904FF4007000900220019081
:1031D0000320039069462846FEF7A0FD2815CDE997
:1031E0000004694628460294FEF798FD002201215A
:1031F0002520FEF7F5FE2520FEF7E4FE05B030BDE4
:1032000000380140001002400008014070470000F3
:103210002DE9F843044690F83D001F4616460D463A
:1032200020284CD1C5B1BEB194F83C00012846D04D
:10323000012084F83C004FF00008C4F840802120B1
:1032400084F83D00FEF760FEA6848146E684A0680F
:10325000B0F5805F03D004E00120BDE8F883206969
:1032600028B12E465FF0000584F83C800EE0002671
:10327000FAE78021204600F0C5FBA0B9AEB116F8F0
:10328000010B21684860E08C401EE084E08C4B46D6
:103290004FF0000200970028EBD14FF0400120468C
:1032A00000F0B0FB30B10320D7E735F8020BC0F3D4
:1032B0000800E6E7202084F83D000020CDE702204A
:1032C000CBE7704710B5104C002202212046FEF7D4
:1032D00015FE022000F0FAFB012202212046FEF733
:1032E0000DFE0C2000F0F2FB002202212046FEF72A
:1032F00005FE06480068C16841F00801C16064200D
:10330000FEF7FAFC10BD0000000801403800002064
:10331000FEE700002DE9F04186B00024204800942B
:10332000019402940394816941F0100181618169E3
:1033300001F010010491816941F0200181618169EE
:1033400001F020010491816941F0040181618069EB
:10335000144F00F004004FF4005504900022294659
:103360003846FEF7CBFDDFF84080002202214046C0
:10337000FEF7C4FD0126CDE9005602256946384610
:10338000CDE90245FEF7CAFCCDE900566946404644
:10339000CDE90245FEF7C2FC06B0BDE8F0810000B1
:1033A00000100240001001400008014010B58AB032
:1033B00000242248049405940694079408940994E0
:1033C0000094019402944FF08041039401604721DE
:1033D000C0E901146321C0E9031480218161FFF772
:1033E000F7F808B1FEF717FC4FF48050049004A9D9
:1033F0001248FFF785F908B1FEF70DFC0F48FFF7FB
:10340000CAFA08B1FEF707FC089408A90B4809940A
:10341000FFF7AAF808B1FEF7FEFB0120CDE9004056
:1034200002940022694605480394FFF72DFA00280C
:1034300001D0FEF7F0FB0AB010BD000038000020FC
:1034400010B58EB000240794089409940A940B9444
:103450001C2168460C94FCF7EFFF20481E490160D0
:1034600040F2CF21C0E9011440F2E731C0E9031472
:103470008461FFF7ADF808B1FEF7CDFB4FF4805043
:10348000079007A91548FFF73BF908B1FEF7C3FB02
:103490001248FFF79FFC08B1FEF7BDFB0B940BA988
:1034A0000E480C94FFF760F808B1FEF7B4FB6020FB
:1034B00000904FF4FA70CDE90104002269460748F4
:1034C0000494FFF724FC08B1FEF7A5FB0348FFF7BF
:1034D000F7FB0EB010BD000000040040800000208B
:1034E0000C4810B50A4901604FF4E13141600021F8
:1034F00081600C22C160C0E904128161C161FFF7E3
:1035000013FE002803D0BDE81040FEF784BB10BDB9
:1035100000380140C8000020FEE7FEE77047704712
:10352000FEF7F8BC30B58FB028216846FCF784FF61
:1035300014210AA8FCF780FF01210804CDE900103E
:103540000024029402250491CDE907504FF4E010C5
:1035500009906846FEF762FE08B172B6FEE70F20DA
:10356000CDE90A054FF48060CDE90C4002210AA89C
:103570000E94FEF767FD002801D072B6FEE70FB08B
:1035800030BD70470148FFF7E8BA0000380000205E
:10359000F0B50268164B174C174D4FF08047984214
:1035A00005D0B84203D0A04201D0A84203D122F0F6
:1035B00070064A683243984205D0B84203D0A04210
:1035C00001D0A84203D122F44074CA6822434C6956
:1035D00022F08002224302608A68C2620A68826224
:1035E000984201D10969016301214161F0BD0000E8
:1035F000002C0140000400400008004010B501F01C
:103600001F030121046A99408C430462016A9A40B5
:103610001143016210BD10B5846842EA032224F40C
:103620007F440A432243826010BD826822F0700208
:103630000A4342F0070181607047000030B5026A1A
:1036400022F001020262026A4368846924F0730571
:103650000C682C4322F002058A682A430A4DA842CE
:103660000BD122F00805CA6823F440732A434D6940
:1036700022F004021D438B692B4343608461496837
:103680004163026230BD0000002C014030B5026A87
:1036900022F010020262026A436884690D6824F411
:1036A000E64444EA05248D6822F0200242EA05122D
:1036B0000B4DA8420ED1CD6822F0800242EA0512DD
:1036C0004D6923F4406343EA85038D6922F040028B
:1036D00043EA85034360846149688163026230BDC7
:1036E000002C014030B5026A22F480720262036A43
:1036F0004268C46923F4007324F073050C682C43FA
:103700008D6843EA05230C4DA8420ED1CD6823F401
:10371000006343EA05234D6922F4405242EA051250
:103720008D6923F4806342EA05124260C4614968EE
:10373000C163036230BD0000002C014030B5026A55
:1037400022F480520262046A4268C3690D6823F45D
:10375000E64343EA05238D6824F4005444EA053423
:10376000064DA84204D14D6922F4804242EA8512F6
:103770004260C36149680164046230BD002C0140AD
:1037800010B5036A046A24F001040462846924F019
:10379000F00444EA021423F00A020A43846102623C
:1037A00010BD000070B5046A24F00104046284694D
:1037B000056A0F4EB04208D0B0F1804F05D00D4ED3
:1037C000B04202D00C4EB04203D124F003041443A3
:1037D00001E044F001041A0724F0F00444EA126204
:1037E00025F00A0301F00A0119438261016270BDEC
:1037F000002C0140000400400008004010B5036A9E
:1038000023F0100303628369046A23F4704343EADC
:10381000023224F0A00343EA01118261016210BD6B
:1038200030B5046A24F0100404628469056A24F443
:10383000407444EA022222F470444FF6FF7202EA16
:1038400003322243A02425F0A00304EA0111194306
:103850008261016230BD10B5406A0021C185C1841A
:10386000FFF75BFB10BD0168CA6822F49072CA6062
:1038700001684A6922F001024A61016B012904D101
:103880000168CA6822F01002CA60202180F83E1048
:1038900000210163704708B590F83E10222901D03D
:1038A000022008BD82684FF480539A4201D1016919
:1038B00021B1816A9A421BD04AB10AE00268816A4A
:1038C0005268C2F308020A80816A891C08E0026912
:1038D00072B10268526802F07F020A70816A491C64
:1038E0008162C18D491E0904090CC18503D019E00C
:1038F00002685268F1E70168CA6822F02002CA60D3
:103900000168CA6822F48072CA6001684A6922F0BC
:1039100001024A61202180F83E10016B012903D089
:10392000FFF774FC002008BD002101630168CA682C
:1039300022F01002CA6001680A68D20602D50A683D
:1039400049680091818DFFF7E7FAEBE770B504460F
:1039500000680169E26821F4405111430161216965
:10396000A0680843616908432168CA6841F20C6392
:103970009A430243CA6020684169A26921F44071F8
:10398000114341611E492068884202D1FEF700FCC4
:1039900001E0FEF7EDFB00EBC00101EB00126068F7
:1039A00064218000B2FBF0F3B3FBF1F36FF0180673
:1039B0007343B2FBF0F5B2FBF0F605EB830532235F
:1039C00003EB0515B5FBF1F5B6FBF1F605F0F005D7
:1039D00005EB0615B2FBF0F6B2FBF0F0B0FBF1F030
:1039E0006FF01802504306EB800003EB0010B0FBB1
:1039F000F1F0216800F00F002844886070BD0000DD
:103A0000003801402DE9F041984617460E4604461D
:103A1000069D1DE0681C1BD02DB1FEF775FAA0EBCA
:103A20000800A84214D92068C16821F4D071C1608F
:103A30002068416921F001014161202084F83D00A6
:103A400084F83E00002084F83C000320BDE8F081AB
:103A50002068006836EA000004D00020B842D9D0BF
:103A60000020F3E70120F9E70148FFF757BA00000B
:103A7000C8000020FEE7490050EAC12018BF04201A
:103A80004A0D18BF40F0010040F2FF72B2EB515FE7
:103A900008BF40F00200012808BF05207047090751
:103AA000090E002804DB00F1E02080F800147047C4
:103AB00000F00F0000F1E02080F8141D704730384E
:103AC0000A2801D2012070470020704704490022D3
:103AD0000B685A6209684A6A8242FCD37047000048
:103AE0003800002038B504468DF80000022301227A
:103AF00069460248FFF78CFB204638BDC80000200D
:103B0000FEF710FAFFF70EFDFFF704FCFFF74EFC7F
:103B1000FFF796FCFFF7E4FC1448FEF7C5FD002113
:103B20001348FFF787F9114801680A6A22F00A0270
:103B30000A620068016A016200210C48FEF75AFF20
:103B40000C4C4FF4FA7500BFFFF7BCFB0AA0FCF762
:103B500053FB211D0AA00EC9FCF74EFB12A0FCF777
:103B60004BFB2846FEF7C8F8EEE7000038000020BF
:103B70008000002000000020333265333234000022
:103B8000686967685F74696D65203D2025372E334D
:103B9000642C2020484C5F74696D65203D202537DA
:103BA0002E336C66000000000D0A000010B50029DD
:103BB0000AD00878002807D005487844FDF7E2F9D4
:103BC000002801D0002010BD0248784410BD00003C
:103BD0001E03000016030000B0FA80F310FA03F190
:103BE0000AD0C3F11D0303F580634FEA41504FEA49
:103BF000035202EBD12170474FF0000070470000E4
:103C0000DFF848C170B51CEA111E1EBF1CEA13156F
:103C10009EEA0C0F95EA0C0F00F06F8081EA030416
:103C200023EA4C134EEAD47E21EA4C1141F4801170
:103C300043F48013AE44A1FB024CA0FB0365AEF13C
:103C40007F7E361955EB0C05A1FB034C4CF10003AC
:103C5000A0FB021C16EB0C06654153F10003094260
:103C600018BF46F0010613F4007F0BD14FEA033171
:103C70004FEA0530340341EA155140EA16506FF01F
:103C800003020AE04FEAC3214FEAC520F40241EAE9
:103C9000555140EA56506FF0020202EB2E4201EB02
:103CA000025585EACE710AD05FEA440C18BF24F0B1
:103CB000004450F1000041F1000120EAD47040F2CC
:103CC000FE7C624500D270BDA84214BF4FF0804414
:103CD0004FF04044002E08BF0024BEF1806FA8BF03
:103CE000A1F1C041BDE8704080F282804FF0000039
:103CF00001F1C04101F0004170479EEA0C0F0CEA4F
:103D0000131518BF95EA0C0F06D04FF0000081EA9A
:103D1000030E0EF0004170BD00F01CF88900013E5A
:103D200000F007B800F009B84FEA430C5FEA5C5CAA
:103D300008D081EA030100F05BB84FEA410C5FEA6A
:103D40005C5CF6D14FF00000014970470000FF07AE
:103D50000000F87F0EF1020E2EF0030E5EF8046BE9
:103D6000364205D4012A43EB030515F5001F12D88E
:103D7000012841EB010C1CF5001F0CD80ED14FEAB5
:103D8000D17C15F5001F0CEB4C0C0CF1020C08BF9C
:103D90004CEBD37C04E04FF0080C01E04FEAD37CFD
:103DA0000CEB4C0526FA05F606F00706B6F1040CF6
:103DB00006D20EEB860CBDE870404CF0010C60475B
:103DC000DFE80CF0090B02024FF000414FF0000059
:103DD000A1F5002170BD19461046012851EB0104E0
:103DE00018BFD4F5001484BF002001F0004170BD5D
:103DF0000808A0F500114FEA31017047FCF776BCC6
:103E0000000000000000000001020304060708098A
:103E1000000000000102030402400000000000A0B6
:103E20000000000005400000000000C80000000085
:103E30000C4000000000409C000000001940000001
:103E40000020BCBE0000000034400000BFC91B8E33
:103E500000000004B5400000504BCFD06607E2CF11
:103E6000010000006C4100003E8251AADFEEA73441
:103E700001000000D9420000DCB5A0E23A301F97F3
:103E8000FFFFFFFFB4450000FD25A0C8E9A3C14F17
:103E9000FFFFFFFFFF3F0000000000800000000068
:103EA000FF3F000000000080000000003A74740032
:103EB0003A7474003A747400F43E00080000002064
:103EC0002C00000028010008203F00082C000020E2
:103ED0003C080000440100081C00000043000000F2
:103EE000F8FFFFFF0C0000000E0000000F000000B4
:103EF0002E00000000000000000000000000000094
:103F000000000000010000001000000000000000A0
:103F10000024F40000000000000000000000000089
:04000005080000ED02
:00000001FF
