:020000040800F2
:10000000B0060020010100083B250008B9220008C5
:100010003925000885060008F12B000800000000C3
:100020000000000000000000000000003F25000864
:10003000CB060008000000003D250008412500080F
:100040001B0100081B0100081B0100081B01000820
:100050001B0100081B0100081B0100081B01000810
:100060001B0100081B0100081B0100081B01000800
:100070001B0100081B0100088906000895060008FE
:100080001B0100081B0100081B0100081B010008E0
:100090001B0100081B0100081B0100081B010008D0
:1000A0001B0100081B0100081B0100081B010008C0
:1000B000A52500081B0100081B0100081B01000802
:1000C0001B0100081B0100081B0100081B010008A0
:1000D0001B010008C92B00081B0100081B010008B8
:1000E0001B0100081B0100081B010008DFF80CD0F1
:1000F00000F0B6FA00480047452E0008B006002080
:100100000648804706480047FEE7FEE7FEE7FEE7B1
:10011000FEE7FEE7FEE7FEE7FEE7FEE7A3250008B1
:10012000ED000008202A04DB203A21FA02F0002129
:10013000704721FA02F3D040C2F1200291400843F7
:1001400019467047D2B201E000F8012B491EFBD2DC
:1001500070470022F6E710B513460A4604461946D2
:10016000FFF7F0FF204610BD2DE9FE4F804681EAE3
:100170000300C00F0C46009021F0004123F0004521
:10018000B8EB0200A94105D24046214690461C46E4
:100190000B46024623F00040104347D0270DC7F31B
:1001A0000A00C3F30A510290401A019040286BDA0A
:1001B000C3F3130040F4801B0098924620B1002343
:1001C000D2EB030A63EB0B0B01985946C0F14002D6
:1001D000504600F090F906460D4650465946019AA1
:1001E00000F098F910EB08006141002487EA1152F1
:1001F00084EAE7731A4340D0009A62B3019A012A55
:100200004FEA075215DC001B61EB02014FF0004280
:1002100002EA0752CDE90042001C41F58011324646
:100220002B4600F0CFF903B0BDE8F08F40462146E1
:10023000F9E7001B61EB0201001C41F58013001877
:100240005B412018A2F5001747EB030140EAD57087
:10025000B6196D4111E06D084FEA360645EAC075E2
:100260004FEA0752001B61EB0201001C41F58011AF
:1002700049084FEA30000019514132462B4603B07D
:10028000BDE8F04F00F08FB9009801224000002334
:10029000D0EB020263EBE073009821464FEAE07472
:1002A000B8EB000061EB0401E9E783F000435BE792
:1002B00081F0004158E72DE9FE4F81EA030404F084
:1002C000004421F0004100944FF0000B23F0004364
:1002D00050EA01045ED052EA03045BD0C3F30A542F
:1002E000C1F30A552C44A4F2F3340194A0FB025448
:1002F000C1F3130141F48011C3F3130343F48013DA
:1003000001FB024400FB034E840A970A44EA81542D
:1003100047EA8357A4FB076802958D0A05FB07850A
:100320004FEA932C04FB0C542705029D4FEA065814
:1003300047EA1637B5EB08056EEB070C870E920EF1
:1003400047EA811742EA8312A7FB0201B6EB0B01D1
:1003500064EB00042B0D43EA0C335E1844EB1C5095
:10036000DA465146E7FB0201C5F313044FEA0B33AB
:1003700043EA14534FEA0432019C43EA0603A4F112
:100380000C040294009CCDE900B400F01BF903B00A
:10039000BDE8F08F00200146F9E72DE9F04D81EA34
:1003A000030404F0004B21F0004514464FF0000A0E
:1003B00023F0004150EA050220D054EA01021DD08A
:1003C000C5F30A570246C5F31303C1F31300C1F383
:1003D0000A5640F4801543F48013A7EB0608101B5F
:1003E000D64608F2FD3873EB050002D308F1010888
:1003F00001E092185B41B8F1000F03DA00200146DA
:10040000BDE8F08D00204FF48011064684460EE0D2
:10041000171B73EB050705D3121B63EB050306439C
:100420004CEA010C49084FEA300092185B4150EA4F
:100430000107EDD152EA030012D082EA040083EAF8
:100440000501084305D0101BAB4106D20122002351
:1004500006E000224FF0004302E06FF0010253106B
:100460001AEB06004CEB085110EB0A0041EB0B01B4
:10047000BDE8F04D00F097B80EB540F2334102915F
:100480000021CDE900110A460B4600F09BF803B0AD
:1004900000BD01F0004330B421F0004150EA0102F8
:1004A00006D00A0DA2F56072C1F31301002A02DC26
:1004B00030BC00207047440F44EAC104C100E0187A
:1004C00030BC00EBC25000F037B830B50B460146E7
:1004D00000202022012409E021FA02F59D4205D3E3
:1004E00003FA02F5491B04FA02F52844151EA2F18D
:1004F0000102F1DC30BD202A04DB203A00FA02F1CF
:10050000002070479140C2F1200320FA03F3194301
:1005100090407047202A06DBCB17203A41FA02F0C0
:1005200043EAE07306E041FA02F3D040C2F1200250
:1005300091400843194670470029A8BF7047401CE6
:10054000490008BF20F00100704710B4B0FA80FCE9
:1005500000FA0CF050EA010404BF10BC704749B126
:10056000CCF1200421FA04F411FA0CF118BF012196
:1005700021430843A3EB0C01CB1D4FEA00614FEA76
:10058000102042BF002010BC704700EBC350104445
:100590000029A4BF10BC7047401C490008BF20F0D0
:1005A000010010BC704710B5141E73F1000408DA86
:1005B000401C41F1000192185B411A4301D120F027
:1005C000010010BD2DE9F04D92469B4611B1B1FAE4
:1005D00081F202E0B0FA80F220329046FFF78BFF02
:1005E00004460F4640EA0A0041EA0B0153465A46C8
:1005F000084313D0114653EA010019D0C8F1400254
:100600005046FFF78FFD05460E4650465946424676
:10061000FFF771FF084305D0012004E0204639466A
:10062000BDE8F08D0020054346EAE0762C433743D1
:100630000A986305E40AA0EB08000022FD0A44EAD8
:1006400047540A3002D500200146E9E70105101998
:100650006941DDE9084500196941BDE8F04DA2E7AF
:10066000064C074D06E0E06840F0010394E80700FF
:1006700098471034AC42F6D3FFF73CFD282F000812
:10068000482F0008FEE70000014800F091B8000084
:1006900068020020014800F08BB80000240200200E
:1006A00030B590F840500124AC40C56B6C600468D4
:1006B00063604368102B036803D099600068C260D0
:1006C00030BD9A600068C16030BD704772B6FEE709
:1006D00010B590F821100022022905D00421816371
:1006E00080F82020012010BD01680B6823F00E0364
:1006F0000B6001680B6823F001030B6090F8403039
:10070000C46B012101FA03F3636080F8211080F8C3
:100710002020104610BD000010B590F821100024D4
:10072000022903D00421816301243DE001680A68A5
:1007300022F00E020A6001680A6822F001020A60D3
:100740001A4A0168914201D1012121E0174A14326D
:10075000914201D110211BE0144A2832914201D16B
:10076000891515E0114A3C32914201D189140FE0FC
:100770000E4A5032914202D14FF4803108E00B4AC8
:100780006432914202D14FF4801101E04FF0807148
:10079000064A083A5160012180F82110002180F8B2
:1007A0002010416B01B18847204610BD080002406F
:1007B0002DE9F05FC16B0C6801680B68D0F840C090
:1007C000042202FA0CF2494DDFF824A1494E4A4FA7
:1007D000DFF828B1DFF828E122422CD05A072AD5C9
:1007E0000A68920603D40A6822F004020A600168CB
:1007F000A94201D1042219E0514501D1402215E05E
:10080000B14202D14FF4806210E0B94202D14FF4FC
:1008100080420BE0594502D14FF4802206E0714539
:1008200002D14FF4800201E04FF080622F49083975
:100830004A60C16A3BE04FF0020808FA0CF818EA77
:10084000040F4FF000094FF0010235D05FEA8378C2
:1008500032D50B689B0605D40B6823F00A030B60A6
:1008600080F821200168A94201D1022219E05145F6
:1008700001D1202215E0B14202D14FF4007210E004
:10088000B94202D14FF400520BE0594502D14FF466
:10089000003206E0714502D14FF4001201E04FF042
:1008A0000072124908394A6080F82090816A002954
:1008B0001AD0BDE8F05F0847082505FA0CF5254277
:1008C00012D01B0710D50B6823F00E030B6090F8B5
:1008D0004010C36B02FA01F15960826380F8212055
:1008E00080F82090016BE2E7BDE8F09F080002402D
:1008F0001C00024030000240440002405800024008
:100900006C00024030B528B308C8134914221944BA
:10091000B1FBF2F18900C163104981630221417783
:100920001A6843F6F0718A43D0E900142143D0E9F4
:1009300002452C43214304692143446921438469CE
:10094000214311431960002141630122427701775D
:10095000084630BD012030BDF8FFFDBF0000024059
:1009600070B5044690F82000002501280CD0012025
:1009700084F8200094F821600020012E06D084F82D
:1009800020000225284670BD022070BD022684F892
:100990002160A0632068066826F0010606602046F4
:1009A000FFF77EFEE06A00282068016802D041F06F
:1009B0000E0106E021F0040101602068016841F0A9
:1009C0000A0101602068016841F001010160D9E776
:1009D00070B5044600F004F90546601C02D00448D6
:1009E0000078044400F0FCF8401BA042FAD370BD2C
:1009F000300000202DE9F84FDFF8B891002409F10C
:100A0000040A0AF1040B23460F270BF1040EC9E078
:100A10000125A5402A40AA427DD1674ED1F804C0E5
:100A2000ACEB0608B44532D014DCBCF1030F3AD06D
:100A300009DCBCF1000F2AD0BCF1010F1CD0BCF1C5
:100A4000020F31D11DE0BCF1110F17D0BCF1120F14
:100A50002AD119E0B8F5881F19D006DCB8F5803F17
:100A600015D0B8F5801F1FD111E0B8F5001F0ED0CA
:100A7000B8F5041F18D10AE0CB6815E0CB681B1D40
:100A800012E0CB6808330FE0CB680C330CE08B68C6
:100A90002BB1012B4FF0080303D0456104E0042380
:100AA00002E0056100E00023FF2A01D8064601E0CC
:100AB00000F104064FEA840501D9A5F12005D6F816
:100AC000008007FA05FC28EA0C0803FA05F548EA55
:100AD0000508C6F800804D68ED0062D5374DAE6957
:100AE00046F00106AE61AD6924F0030605F001058C
:100AF0000095334D06EB050CDCF80850A607360FC1
:100B000007FA06F825EA0805DFF8B880404503D162
:100B10004FF0000817E044E0DFF8AC80404502D118
:100B20004FF001080FE0DFF8A480404502D14FF0FC
:100B3000020808E0DFF89880404502D14FF0030832
:100B400001E04FF0040808FA06F848EA0508CCF876
:100B500008804D68D9F80060ED034D4601D5164375
:100B600000E096432E604D68DAF80060AD0355460C
:100B700001D5164300E096432E604D68DBF8006017
:100B8000ED025D4601D5164300E096432E604D68A8
:100B9000DEF80060AD02754601D5164300E09643CD
:100BA0002E60641C0D682A46E5407FF431AFBDE835
:100BB000F88F0000000401400000111000100240F6
:100BC0000000014000080140000C014000100140FD
:100BD000001401400AB1016170470904FBE70000FD
:100BE000014880687047000030000020024881689A
:100BF000027811448160704730000020074810B52A
:100C0000016841F010010160032000F075F80F2029
:100C100000F006F800F024F8002010BD002002408B
:100C200070B50D4D04464FF47A712878B1FBF0F0A1
:100C30000A490968B1FBF0F000F0ECFA48B9102C51
:100C400007D200222146501E00F036F800206C60CA
:100C500070BD012070BD0000300000203C0000206D
:100C60000C4808B5816941F001018161816901F099
:100C700001010091C16941F08051C161C06900F07A
:100C8000805000900448416821F0E06141F000711B
:100C9000416008BD0010024000000140002809DB4F
:100CA00000F01F02012191404009800000F1E02086
:100CB000C0F8001170470000F0B40E4B1B680C46E2
:100CC000C3F30223C3F10705042D00D90425191D20
:100CD000072901D2002300E0DB1E012606FA05F1F8
:100CE000491E214099409E40761E16403143F0BC7B
:100CF00001F090BF0CED00E0064900F00702086823
:100D00004FF6FF03184040EA0220034A10430860F0
:100D1000704700000CED00E00000FA052DE9F047F7
:100D20000F46050061D0434E306800F00700B8421E
:100D300009D2306820F0070038433060306800F096
:100D40000700B84251D128683B4C810712D54007B3
:100D500003D5606840F4E06060602878000703D540
:100D6000606840F4605060606068A96820F0F0003E
:100D7000084360602878C00728D06868012810D030
:100D80002168022810D0890700292EDA616821F035
:100D9000030101436160FFF723FF804641F2883978
:100DA0000DE021688903EFE78901EDE7FFF718FF00
:100DB000A0EB0801494502D90320BDE8F08760682F
:100DC000696800F00C00B0EB810FEFD1306800F0E3
:100DD0000700B8420BD9306820F007003843306074
:100DE000306800F00700B84201D00120E5E728781C
:100DF000400705D56068E96820F4E060084360605A
:100E00002878000706D56068296920F4605040EA18
:100E1000C100606000F038F86168084AC1F303114E
:100E2000515CC8400649086006480068FFF7F8FEB4
:100E30000020C2E70020024000100240102F0008EE
:100E40003C0000203400002004480549006849683F
:100E5000044AC1F30221515CC84070473C000020A5
:100E600000100240202F0008044805490068496826
:100E7000044AC1F3C221515CC84070473C000020C5
:100E800000100240202F000812A185B00FC98DE884
:100E90000F0014A0144A006804905168134801F030
:100EA0000C03042B10D0082B0ED1C1F38343C903CC
:100EB0001DF803000AD5516804AAC1F34041515CF2
:100EC0000A4A5043B0FBF1F005B070470849484367
:100ED000FAE7000002030405060708090A0B0C0DD7
:100EE0000E0F1010010200000010024000127A00E4
:100EF00000093D002DE9F84F040070D02078C04D66
:100F0000C00749D06868C0F38100012807D068682D
:100F1000C0F38100022809D16868C00306D528689B
:100F2000800339D560680028E7D035E06068B0F507
:100F3000803F0BD010B1B0F5A02F11D0286820F45D
:100F400080302860286820F4802002E0286840F47F
:100F500080302860606890B1FFF742FE06460AE0E4
:100F6000286840F480202860F0E700BFFFF738FED3
:100F7000801B642873D828688003F7D50CE0FFF73E
:100F80002FFE064605E000BFFFF72AFE801B6428FF
:100F9000F0D828688003F7D420789A4E80074FF065
:100FA00001094FF0000839D5686810F00C0F07D020
:100FB0006868C0F38100022809D16868C00306D4BC
:100FC0002868800714D52069012808D110E020691D
:100FD000B0B1C6F80090FFF703FE074605E00AE14E
:100FE000FFF7FEFDC01B0228C4D828688007F7D58C
:100FF0002868616920F0F80040EAC10028600DE02F
:10100000C6F80080FFF7ECFD074604E0FFF7E8FDB7
:10101000C01B022823D828688007F7D4207800074F
:101020002CD57948A169D9B1C0F80090FFF7D8FD57
:10103000074604E0FFF7D4FDC01B02280FD8686AFA
:101040008007F7D571484FF4FA510068B0FBF1F012
:10105000009000BF0098411E0091FAD20EE080E09F
:10106000C0F80080FFF7BCFD074604E0FFF7B8FDBD
:10107000C01B022875D8686A8007F7D4207840071B
:1010800060D5E8690027C00008D4E86940F08050C6
:10109000E861E869012700F0805000905C48016831
:1010A000C90513D40168834641F480710160FFF7DC
:1010B00097FD824606E000BFFFF792FDA0EB0A0015
:1010C00064284ED8DBF80000C005F5D5E06801289B
:1010D0000AD008B1052813D0286A20F00100286240
:1010E000286A20F0040002E0286A40F0010028622B
:1010F000E06841F2883B98B1FFF772FD82460BE051
:10110000286A40F004002862EEE700BFFFF768FDA0
:10111000A0EB0A0159455AD8286A8007F6D50CE099
:10112000FFF75EFD824605E0FFF75AFDA0EB0A01DE
:1011300059454CD8286A8007F6D41FB1E86920F0D9
:101140008050E861E06988B36968C1F381010229D0
:1011500044D00228C6F8608004D0FFF741FD044661
:1011600038E034E0FFF73CFD074604E0FFF738FDC8
:10117000C01B02282BD828688001F7D4206AB0F55C
:10118000803F05D16868A16820F40030084368609A
:10119000D4E908010843696821F4741108436860C0
:1011A000C6F86090FFF71CFD044606E025E000BF8E
:1011B000FFF716FD001B022809D828688001F7D523
:1011C0001BE000BFFFF70CFD001B022802D9032023
:1011D000BDE8F88F28688001F4D40EE00128F7D02C
:1011E0006868226A00F48031914204D1616A00F497
:1011F0007010884201D00120EAE70020E8E70000F3
:101200000010024000004242800442423C000020A4
:101210000070004010B5401EB0F1807F01D3012066
:1012200010BD4FF0E02460610F21601701F0F2FC67
:101230000020A06107202061002010BD704770478A
:1012400070B590F83C20012A26D0012480F83C405B
:10125000022280F83D2003685A689D6822F07006DB
:101260000A6832435A600D4B02689A4208D0B2F1C4
:10127000804F05D00A4B9A4202D00A4B9A4204D1C1
:10128000496825F080031943916080F83D400021B2
:1012900080F83C10084670BD022070BD002C014053
:1012A000000400400008004010B5040003D094F88A
:1012B0003D0010B107E0012010BD002084F83C0083
:1012C000204600F01FF8022084F83D00211D206810
:1012D00001F06EF9012084F8460084F83E0084F89D
:1012E0003F0084F8400084F8410084F8420084F80C
:1012F000430084F8440084F8450084F83D00002051
:1013000010BD000000B585B000210091019102914F
:10131000039101681748B1F1804F0CD0164A9142F1
:1013200007D1C16941F00201C161C06900F002004A
:10133000049005B000BDC16941F00101C161C169FE
:1013400001F001010491816941F00401816180692A
:10135000694600F004000490012000900748FFF760
:1013600049FB002211461C20FFF7A6FC1C20FFF7BA
:1013700095FCDEE700100240000400400008014038
:1013800090F83D10012901D001207047022180F81A
:101390003D1000680B49884208D0B0F1804F05D05D
:1013A0000949884202D00949884204D1816801F084
:1013B0000701062903D0016841F001010160002006
:1013C00070470000002C014000040040000800406D
:1013D00090F83D10012901D001207047022180F8CA
:1013E0003D100168CA6842F00102CA6000680B49FA
:1013F000884208D0B0F1804F05D00949884202D018
:101400000849884204D1816801F00701062903D008
:10141000016841F00101016000207047002C01408B
:10142000000400400008004070B5044690F83C00FD
:10143000012817D0012584F83C50022084F83D0093
:101440002068826822F0770222F47F428260086876
:10145000502830D00DDC20284DD005DC98B3102862
:101460003BD148E0022070BD302844D0402834D120
:1014700039E0602828D0702806D0B0F5805F2CD0E5
:10148000B0F5005F29D10AE0CB68D1E901212068DD
:1014900001F0D1F82068816841F0770109E0CB685C
:1014A000D1E90121206801F0C6F82068816841F483
:1014B0008041816011E0CA684968206801F070F9D4
:1014C0005021206807E016E0CA684968206801F0EA
:1014D000A5F96021206801F0B8F884F83D5000209B
:1014E00084F83C0070BDCA684968206801F058F96A
:1014F00040212068EFE7226801461046EBE7000034
:101500002DE9F84F544D0068296888427ED1534C2C
:10151000534E4FF00008207800286AD001287DD073
:10152000022873D10021284600F0EEFBB0600021B4
:10153000284600F0CBF9D6E90110401A617801EB9A
:10154000C10202EB011100EB81008146A0606068DE
:10155000FEF792FFDFF80CB182465A46424B0091EB
:10156000FEF7A9FEC4E9040106460F464846FEF709
:1015700083FF5A463C4BFEF79EFEC4E90601324605
:101580003B46FEF7F1FD8B4681464A465B4600200E
:101590003649FEF702FFC4E908014A465B46304679
:1015A0003946FEF7FAFE0022314BFEF784FEC4E90D
:1015B0000A0150462F4A304B0099FEF77CFEFEF799
:1015C00068FF2E49E060884201DA01F093FC84F85C
:1015D000008084F801802868016A21F00A01016214
:1015E0002868016A0162BDE8F84F00211A4800F03E
:1015F000FDB80021184800F087FB30602868016AB8
:1016000021F00A0101622868016A01E022E005E098
:1016100041F00201016284F8018018E000210E48C7
:1016200000F072FB70603168401A617801EBC10212
:1016300002EB011100EB8100606084F801802868F2
:10164000016A21F00A0101622868016A01622078BA
:10165000401C2070BDE8F88F5001002000000020E1
:1016600044000020FCA9F1D24D62503F00408F4061
:10167000000059409CC420B07268913F0000A04116
:101680002DE9F041054690F83C000C46012836D083
:10169000012085F83C008AB3042A42D02868082A31
:1016A00051D0D4E90023E168066A26F48056066228
:1016B000C669076A26F4407646EA03234FF6FF76AA
:1016C00006EA013123F4704319434FF4005627F41E
:1016D000005306EA02321A43C16102622868C169F6
:1016E00021F44061C1612868C169A26841EA022110
:1016F000C161002085F83C00BDE8F08101E00220D6
:10170000FAE7D4E90012E368286801F05BF828687A
:10171000816921F00C01816128688169A268114307
:101720000FE0D4E90012E368286801F089F828681E
:10173000816921F44061816128688169A26841EA78
:1017400002218161D5E7D4E90027267B016A21F4D3
:1017500080710162C169036A21F00301394321F0FC
:10176000F00731074FF4007647EA116123F4007364
:1017700006EA02221A43C16102622868C16921F0A7
:101780000C01C1612868C169A2681143B0E710B5B6
:10179000040003D094F83D0010B107E0012010BD13
:1017A000002084F83C00204600F01EF8022084F857
:1017B0003D00211D206800F0FBFE012084F846005A
:1017C00084F83E0084F83F0084F8400084F841002B
:1017D00084F8420084F8430084F8440084F845000B
:1017E00084F83D00002010BD7047000010B504468D
:1017F00051B104290DD0082910D094F8410094F873
:101800004520012811D10EE094F83E0094F84220C2
:10181000F7E794F83F0094F84320F2E794F840008B
:1018200094F84420EDE7012A01D0012010BD0220E8
:1018300051B1042911D0082918D084F8410084F846
:1018400045000C291BD136E084F83E0084F84200A4
:101850002068C26842F0020210E084F83F0084F879
:1018600043002068C26842F0040207E084F84000A8
:1018700084F844002068C26842F00802C260012275
:10188000206800F0CBFE0E492068884208D0B0F1F5
:10189000804F05D00B49884202D00B49884204D1C1
:1018A000816801F00701062903D0016841F00101B8
:1018B0000160002010BD2068C26842F01002DDE720
:1018C000002C0140000400400008004030B50446F0
:1018D00000680D0006D0042D08D0082D28D00C2D4E
:1018E00008D129E0C16821F0020102E0C16821F0BD
:1018F0000401C16000222946206800F08FFE2068A4
:10190000016A41F21112114207D1016A921011428B
:1019100003D1016821F001010160012085B1042D8E
:1019200011D0082D12D004F8410F2071002030BDD5
:10193000C16821F00801DCE7C16821F01001D8E797
:1019400004F83E0FF1E704F83F0FEEE704F8400F0C
:10195000EBE770B50446006801694FF00005C94324
:10196000890715D4C168C943890711D4E91E0161EB
:1019700001202077206880698007204602D0FFF789
:10198000BFFD04E000F0D0F8204600F05FF92577B5
:1019900020680169C943490717D4C168C943490789
:1019A00013D46FF004010161022020772068806960
:1019B00010F4407F204602D0FFF7A2FD04E000F0C3
:1019C000B3F8204600F042F9257720680169C94341
:1019D000090716D4C168C943090712D46FF008017A
:1019E0000161042020772068C0698007204602D06A
:1019F000FFF786FD04E000F097F8204600F026F996
:101A0000257720680169C943C90617D4C168C9434D
:101A1000C90613D46FF010010161082020772068F7
:101A2000C06910F4407F204602D0FFF769FD04E052
:101A300000F07AF8204600F009F92577206801695E
:101A4000C943C90708D1C168C943C90704D1891E60
:101A50000161204600F04AF920680169C94309067E
:101A600009D4C168C943090605D46FF0800101613A
:101A70002046FFF7E3FB20680169C943490609D402
:101A8000C168C943490605D46FF040010161204691
:101A900000F04FF920680169C94389060BD4C16879
:101AA000C943890607D46FF0200101612046BDE8D3
:101AB0007040FFF7C4BB70BD10B586B00021009127
:101AC00001910291039100681349884221D1134882
:101AD000816941F004018161816901F0040104918F
:101AE000816941F0080181618069022400F00800E9
:101AF0000490C020CDE90004694609480394FEF72C
:101B000079FF0320CDE90004694606480394FEF7F7
:101B100071FF06B010BD000000040040001002403C
:101B200000080140000C0140704770B5044690F871
:101B30003C000D4601280AD0012084F83C0042B147
:101B4000042A18D0082A2AD00C2A4DD139E00220C4
:101B500070BD206800F082FD2068816941F00801B5
:101B600081612068816921F00401816120688169B7
:101B70002A69114311E0206800F098FD206881690E
:101B800041F4006181612068816921F48061816193
:101B9000206881692A6941EA0221816124E0206884
:101BA00000F0B0FD2068C16941F00801C161206802
:101BB000C16921F00401C1612068C1692A6911432A
:101BC00011E0206800F0CAFD2068C16941F400619D
:101BD000C1612068C16921F48061C1612068C16967
:101BE0002A6941EA0221C161002084F83C0070BDED
:101BF00010B5040003D094F83D0010B107E00120B7
:101C000010BD002084F83C00204600F01EF80220A1
:101C100084F83D00211D206800F0CAFC012084F8F2
:101C2000460084F83E0084F83F0084F8400084F8C1
:101C3000410084F8420084F8430084F8440084F8AA
:101C4000450084F83D00002010BD7047704700003B
:101C500010B50446022249B104290ED0082913D038
:101C600094F84100012816D0012010BD94F83E00E0
:101C70000128F9D184F83E200FE094F83F000128B4
:101C8000F2D184F83F2008E094F840000128EBD11D
:101C900084F8402001E084F841200122206800F00F
:101CA000BDFC0F492068884203D1426C42F40042D7
:101CB00042642068884208D0B0F1804F05D00949BD
:101CC000884202D00849884204D1816801F00701A6
:101CD000062903D0016841F001010160002010BD18
:101CE000002C014000040040000800400449006846
:101CF0000968884203D103494878401C48707047FE
:101D000050010020000000200246002041B10429BB
:101D100009D008290AD00C2901D11068006C70473D
:101D20001068406B70471068806B70471068C06B1C
:101D300070477047704710B504460068416994F8D1
:101D40003D20C1F3C011212A0BD151B1416921F0CD
:101D500080014161606B08B1FEF7BAFC204600F0DB
:101D600009FE2068416994F83E20C1F38011222ABF
:101D70000BD151B1416921F040014161A06B08B123
:101D8000FEF7A6FC204600F0DDFD002010BD7047E8
:101D900010B50068214988423ED12148FFF7CBFFAA
:101DA000204800684068C0F1FF00C4B21E480078B7
:101DB0006C2813D004DC62280AD0662813D104E012
:101DC00072280ED073280ED105E001F009F80AE060
:101DD00000F0EAFF07E001F08DF804E001F020F8E0
:101DE00001E001F077F8214610A000F003FF4FF466
:101DF0007A7322460C490A4800F0E6F912A000F076
:101E0000F9FE21460848FEF7A4F9BDE81040FF227C
:101E10000549034800F0C0B910BD0000003801407A
:101E2000E00100202402002050000020526563657C
:101E30006976652044617461286C656E67746820FA
:101E40003D202564293A20000D0A0000F8B50268FB
:101E500004461068D168536910F00F0F4FF0000569
:101E600053D003F0010601F4907737435FD0C207E7
:101E700005D0CA0503D5226C42F001022264420754
:101E800005D5DA0703D0226C42F0020222648207F1
:101E900005D5DA0703D0226C42F00402226402075F
:101EA00007D501F02002324303D0226C42F0080231
:101EB0002264226C002A34D0800604D5880602D51C
:101EC000204600F060FD20684069216CC0F380105E
:101ED000090700D430B3204600F034FD2068416982
:101EE00049061BD5416921F040014161A06BA8B1B1
:101EF00058494163A06BFEF70FFC002811D0A06B7E
:101F0000416B01B0BDE8F040084783060FD58B0652
:101F10000DD52046BDE8F84000F035BD2046FFF75E
:101F200036FFF8BD2046FFF732FF2564F8BD266B6B
:101F30002023012E52D1C60650D5CE064ED51068AC
:101F400050680090506940062AD5A16B0868406827
:101F50000004000CEAD0A68D8642E7D9E0858869A6
:101F6000202818D0D06820F48070D06020684169A3
:101F700021F0010141612068416921F04001416186
:101F800084F83E3025632068C16821F01001C160EB
:101F9000A06BFEF79DFBA08DE18D401A81B219E088
:101FA000A08DE18D401A81B2E08D0028BED00029BD
:101FB000BCD0D06820F49070D0602068426922F0D4
:101FC0000102426184F83E3025632068C26822F035
:101FD0001002C2602046FFF7ADFEF8BD05062BD506
:101FE0000D0629D594F83D002128F6D1A068B0F55A
:101FF000805F01D12069B0B1206A411C2162216853
:1020000000784860E08C401E0004000CE084E4D1BD
:102010002068C16821F08001C1602068C16841F07A
:102020004001C160F8BD206A0088C0F3080050601C
:10203000206A801C2062E5E74006F3D54806F1D50A
:10204000D168204621F04001D16084F83D3000F095
:1020500014F9F8BD7728000870B5040004D094F88E
:102060003D00002510B106E0012070BD84F83C5011
:10207000204600F023F8242084F83D002068C16841
:1020800021F40051C160204600F0D8FC20680169AD
:1020900021F4904101612068416921F02A014161E8
:1020A0002068C16841F40051C1602564202084F893
:1020B0003D0084F83E00002070BD0000F0B585B002
:1020C00000240646009401940294039400682D496C
:1020D000884254D12C48816941F4804181618169F1
:1020E00001F480410491816941F0040181618069BA
:1020F000264D00F0040004904FF400700090022080
:1021000001900320039069462846FEF773FC2815CA
:10211000CDE90004694628460294FEF76BFC1D4D8C
:102120001B488027C5E90004C5E902472C616C61A2
:10213000AC612846EC61FEF7E5FB08B1FEF7C6FA94
:10214000B5636E62134D12484435143801C5102032
:1021500091C5104845F8104944306C61AC61EC61A0
:10216000FEF7D0FB08B1FEF7B1FA75630022114605
:1021700025206E62FEF7A0FD2520FEF78FFD05B03D
:10218000F0BD00000038014000100240000801408E
:10219000580002402402002090F83E30202B0ED13F
:1021A00059B152B190F83C30012B08D0012380F88E
:1021B0003C300023036300F09DBC012070470220E7
:1021C00070477047704700002DE9F843044690F8C7
:1021D0003D001F4616460D4620284CD1C5B1BEB164
:1021E00094F83C00012846D0012084F83C004FF0D0
:1021F0000008C4F84080212084F83D00FEF7F0FC80
:10220000A6848146E684A068B0F5805F03D004E030
:102210000120BDE8F883206928B12E465FF0000553
:1022200084F83C800EE00026FAE78021204600F08A
:1022300099FCA0B9AEB116F8010B21684860E08C9A
:10224000401EE084E08C4B464FF0000200970028CF
:10225000EBD14FF04001204600F084FC30B1032068
:10226000D7E735F8020BC0F30800E6E7202084F832
:102270003D000020CDE70220CBE7704710B50D4CA4
:10228000002202212046FEF7A5FC022000F09CFD62
:10229000012202212046FEF79DFC0C2000F094FD57
:1022A000002202212046FEF795FC6420FEF790FBF9
:1022B00010BD000000080140FEE700000D4808B511
:1022C000416941F0010141614069002200F00100D3
:1022D000009011460E20FEF7EFFC0E20FEF7DEFC0C
:1022E000002211460F20FEF7E7FCBDE808400F2052
:1022F000FEF7D4BC001002402DE9F04186B0002466
:1023000024480094019402940394816941F01001DF
:102310008161816901F010010491816941F020011E
:102320008161816901F020010491816941F004011A
:102330008161816901F004010491816941F0080122
:1023400081618069144F00F008004FF4005504903B
:10235000002229463846FEF73DFCDFF84080002287
:1023600002214046FEF736FC0126CDE90056022543
:1023700069463846CDE90245FEF73CFBCDE90056FB
:1023800069464046CDE90245FEF734FB06B0BDE89C
:10239000F0810000001002400010014000080140E0
:1023A00010B58AB00024224804940594069407943A
:1023B000089409940094019402944FF0804103948E
:1023C00001604721C0E901146321C0E903148021A1
:1023D0008161FEF769FF08B1FEF778F94FF480508C
:1023E000049004A91248FFF71FF808B1FEF76EF930
:1023F0000F48FFF7CCF908B1FEF768F9089408A96F
:102400000B480994FEF71CFF08B1FEF75FF90120A5
:10241000CDE9004002940022694605480394FFF785
:102420002FF9002801D0FEF751F90AB010BD0000C5
:102430005001002010B58EB0002407940894099430
:102440000A940B941C2168460C94FDF782FE2B48DD
:10245000294901604721C0E9011442F20F71C0E926
:10246000031480218161FEF71FFF08B1FEF72EF9EA
:102470004FF48050079007A92048FEF7D5FF08B118
:10248000FEF724F91D48FFF7B3FB08B1FEF71EF96C
:102490000B940BA919480C94FEF7D2FE08B1FEF775
:1024A00015F96020CDE90004029400226946134822
:1024B0000494FFF73AFB08B1FEF708F904226946D5
:1024C0000E48FFF732FB08B1FEF700F90822694613
:1024D0000A48FFF72AFB08B1FEF7F8F80C22694614
:1024E0000648FFF722FB08B1FEF7F0F80348FFF7B4
:1024F000E3FA0EB010BD0000000400409801002077
:102500000C4810B50A4901604FF416514160002192
:1025100081600C22C160C0E904128161C161FFF7D2
:102520009BFD002803D0BDE81040FEF7CFB810BDDA
:1025300000380140E0010020FEE7FEE770477047E9
:10254000FEF754BB30B58FB028216846FDF701FE79
:1025500014210AA8FDF7FDFD01210804CDE90010B2
:102560000024029402250491CDE907504FF4E010B5
:1025700009906846FEF7BEFC08B172B6FEE70F2070
:10258000CDE90A054FF48060CDE90C4002210AA88C
:102590000E94FEF7C3FB002801D072B6FEE70FB021
:1025A00030BD70470148FFF7D4B90000500100204A
:1025B000F0B50268164B174C174D4FF08047984204
:1025C00005D0B84203D0A04201D0A84203D122F0E6
:1025D00070064A683243984205D0B84203D0A04200
:1025E00001D0A84203D122F44074CA6822434C6946
:1025F00022F08002224302608A68C2620A68826214
:10260000984201D10969016301214161F0BD0000D7
:10261000002C0140000400400008004010B501F00B
:102620001F030121046A99408C430462016A9A40A5
:102630001143016210BD10B5846842EA032224F4FC
:102640007F440A432243826010BD826822F07002F8
:102650000A4342F0070181607047000030B5026A0A
:1026600022F001020262026A4368846924F0730561
:102670000C682C4322F002058A682A430A4DA842BE
:102680000BD122F00805CA6823F440732A434D6930
:1026900022F004021D438B692B4343608461496827
:1026A0004163026230BD0000002C014030B5026A77
:1026B00022F010020262026A436884690D6824F401
:1026C000E64444EA05248D6822F0200242EA05121D
:1026D0000B4DA8420ED1CD6822F0800242EA0512CD
:1026E0004D6923F4406343EA85038D6922F040027B
:1026F00043EA85034360846149688163026230BDB7
:10270000002C014030B5026A22F480720262036A32
:102710004268C46923F4007324F073050C682C43E9
:102720008D6843EA05230C4DA8420ED1CD6823F4F1
:10273000006343EA05234D6922F4405242EA051240
:102740008D6923F4806342EA05124260C4614968DE
:10275000C163036230BD0000002C014030B5026A45
:1027600022F480520262046A4268C3690D6823F44D
:10277000E64343EA05238D6824F4005444EA053413
:10278000064DA84204D14D6922F4804242EA8512E6
:102790004260C36149680164046230BD002C01409D
:1027A00010B5036A046A24F001040462846924F009
:1027B000F00444EA021423F00A020A43846102622C
:1027C00010BD000070B5046A24F00104046284693D
:1027D000056A0F4EB04208D0B0F1804F05D00D4EC3
:1027E000B04202D00C4EB04203D124F00304144393
:1027F00001E044F001041A0724F0F00444EA1262F4
:1028000025F00A0301F00A0119438261016270BDDB
:10281000002C0140000400400008004010B5036A8D
:1028200023F0100303628369046A23F4704343EACC
:10283000023224F0A00343EA01118261016210BD5B
:1028400030B5046A24F0100404628469056A24F433
:10285000407444EA022222F470444FF6FF7202EA06
:1028600003322243A02425F0A00304EA01111943F6
:102870008261016230BD10B5406A0021C185C1840A
:10288000FFF785FA10BD70B5446A2068406994F876
:102890003D10C0F3C0100025212904D118B1E584F2
:1028A000204600F067F82068406994F83E10C0F3B5
:1028B0008010222904D118B1E585204600F042F8A5
:1028C000206C40F0100020642046FFF760FA70BDD5
:1028D00010B50146406A0968096889061BD40021C1
:1028E000C1850168CA6822F48072CA6001684A69B9
:1028F00022F001024A6101684A6922F040024A61FD
:10290000202180F83E10016B012904D10168CA68BA
:1029100022F01002CA60016B012902D0FFF751FCBE
:1029200010BD818DFFF706FA10BD10B5406A016B2E
:10293000012902D0FFF746FC10BD818D4908FFF741
:10294000F9F910BD0168CA6822F49072CA60016882
:102950004A6922F001024A61016B012904D1016830
:10296000CA6822F01002CA60202180F83E100021BF
:10297000016370470168CA6822F0C002CA60202162
:1029800080F83D10704708B590F83E10222901D01C
:10299000022008BD82684FF480539A4201D1016938
:1029A00021B1816A9A421BD04AB10AE00268816A69
:1029B0005268C2F308020A80816A891C08E0026931
:1029C00072B10268526802F07F020A70816A491C83
:1029D0008162C18D491E0904090CC18503D019E02B
:1029E00002685268F1E70168CA6822F02002CA60F2
:1029F0000168CA6822F48072CA6001684A6922F0DC
:102A000001024A61202180F83E10016B012903D0A8
:102A1000FFF7D7FB002008BD002101630168CA68E9
:102A200022F01002CA6001680A68D20602D50A685C
:102A300049680091818DFFF77DF9EBE770B5044699
:102A400000680169E26821F4405111430161216984
:102A5000A0680843616908432168CA6841F20C63B1
:102A60009A430243CA6020684169A26921F4407117
:102A7000114341611E492068884202D1FEF7F4F9F2
:102A800001E0FEF7E1F900EBC00101EB0012606824
:102A900064218000B2FBF0F3B3FBF1F36FF0180692
:102AA0007343B2FBF0F5B2FBF0F605EB830532237E
:102AB00003EB0515B5FBF1F5B6FBF1F605F0F005F6
:102AC00005EB0615B2FBF0F6B2FBF0F0B0FBF1F04F
:102AD0006FF01802504306EB800003EB0010B0FBD0
:102AE000F1F0216800F00F002844886070BD0000FC
:102AF0000038014038B581628285002513460446BE
:102B00000564222084F83E00A26B13489062A26BF9
:102B10001248D062A26B12481063A06B0A4645634C
:102B20002168A06B091DFDF71BFF20680168416843
:102B3000009184F83C50C16841F48071C160206804
:102B4000416941F0010141612068416941F0400162
:102B50004161002038BD0000D12800082B29000861
:102B6000872800082DE9F041984617460E4604468E
:102B7000069D1DE0681C1BD02DB1FEF731F8A0EBBF
:102B80000800A84214D92068C16821F4D071C1603E
:102B90002068416921F001014161202084F83D0055
:102BA00084F83E00002084F83C000320BDE8F0815A
:102BB0002068006836EA000004D00020B842D9D06E
:102BC0000020F3E70120F9E7084808B5006801682C
:102BD000C943C90605D40168406800900348FFF75F
:102BE000D7F8BDE808400148FFF730B9E001002000
:102BF000FEE700000FB4054B10B503A9044A029884
:102C000000F028F810BC5DF814FB0000052E000849
:102C1000400000200907090E002804DB00F1E02035
:102C200080F80014704700F00F0000F1E02080F8F9
:102C3000141D704702E008C8121F08C1002AFAD10B
:102C400070477047002001E001C1121F002AFBD12C
:102C5000704700002DE9FF4F89B09B4604460025D0
:102C600006E025280BD05A460B999047641C6D1C32
:102C700020780028F5D10DB02846BDE8F08F002758
:102C8000B8460122474900E0074314F8013F203BC2
:102C900002FA03F00842F7D120782E2819D114F84F
:102CA000010F47F004072A280ED06FF02F0220787A
:102CB000A0F1300109290CD808EB880102EB410191
:102CC00000EB0108641CF2E70A98641C50F8048BBE
:102CD0000A9020780028CED0642808D0692806D031
:102CE00075281ED05A460B9990476D1C58E00A99DA
:102CF0004FF00A0901C90A91002802DA40422D2149
:102D000002E0390504D52B218DF82010012103E0C4
:102D1000F90704D02021F7E78A4608AE0DE000212C
:102D2000FAE70A994FF00A0901C90A91F7E74946FB
:102D3000FDF7CBFB303106F8011D0028F7D1ADEBD4
:102D4000060000F12009780701D44FF00108C845BA
:102D500002DDA8EB090000E000208046002706E025
:102D600008A85A46C05D0B9990476D1C7F1C5745BB
:102D7000F6DB04E030205A460B9990476D1CB8F101
:102D80000001A8F10108F5DC05E016F8010B5A4630
:102D90000B9990476D1CB9F10001A9F10109F4DC10
:102DA000641C65E709280100064800210268D16318
:102DB0000268516302684FF4FA619163006801642C
:102DC0007047000098010020044900220B685A62F5
:102DD00009684A6A8242FCD3704700005001002013
:102DE000074840F634010268516302684FF4FA6103
:102DF000D16302680021916300680164704700009C
:102E00009801002038B504468DF800000223012205
:102E100069460248FFF7D8F9204638BDE001002096
:102E2000074800210268116402685163026840F299
:102E30001451916300684FF4E161C1637047000071
:102E400098010020FDF7DAFEFFF77CFBFFF754FA4C
:102E5000FFF734FAFFF7A4FAFFF7ECFAFFF750FB9D
:102E60001848FEF7B5FA1848FEF78AFA17480068BE
:102E7000C16841F01001C160FF2215491348FFF7F6
:102E80008BF900211048FEF7E3FE04210E48FEF7FF
:102E9000DFFE08210C48FEF7DBFE0C210A48FEF796
:102EA000D7FE084801680A6A22F00A020A6200682E
:102EB000016A016200210348FEF798FCFFF7DEF982
:102EC000FCE700005001002098010020E0010020F4
:102ED0005000002006480021026891630268D16317
:102EE00003684FF4FA625A63006801647047000097
:102EF000980100200548002102685163026891632F
:102F00000268D163006801647047000098010020E6
:102F10000000000000000000010203040607080989
:102F20000000000001020304482F000800000020F8
:102F300044000000342C00088C2F000844000020BE
:102F40006C060000442C0008000000000000000097
:102F50000000000000000000000000000000000071
:102F60000000000000000000000000000000000061
:102F70000000000000000000010000001000000040
:0C2F8000000000000024F400000000002D
:04000005080000ED02
:00000001FF
