:020000040800F2
:1000000020060020A10100081B2700083922000853
:100010001927000825090008372E000800000000F5
:10002000000000000000000000000000A3280008FD
:10003000D909000800000000A1280008A528000830
:10004000BB010008BB010008BB010008BB010008A0
:10005000BB010008BB010008BB010008BB01000890
:10006000BB010008BB010008BB010008BB01000880
:10007000BB010008BB010008BB010008BB01000870
:10008000BB010008BB010008BB010008BB01000860
:10009000BB010008BB010008BB010008DB09000828
:1000A000BB010008752B0008BB010008BB0100085C
:1000B000BB010008BB010008BB010008BB01000830
:1000C000BB010008BB010008BB010008BB01000820
:1000D000BB010008BB010008BB010008BB01000810
:1000E000BB010008BB010008BB010008BB01000800
:1000F000BB010008BB010008BB010008BB010008F0
:10010000BB010008BB010008BB010008BB010008DF
:10011000BB010008BB010008BB010008BB010008CF
:1001200029090008BB010008BB010008BB01000849
:10013000BB010008BB010008BB010008BB010008AF
:10014000BB010008BB010008BB010008BB0100089F
:10015000BB010008BB010008BB010008BB0100088F
:10016000BB010008BB010008BB010008BB0100087F
:10017000BB010008BB010008BB0100080000000033
:10018000BB010008BB010008DFF810D000F0DCFA6A
:100190000048004721380008AFF300802006002007
:1001A0000648804706480047FEE7FEE7FEE7FEE711
:1001B000FEE7FEE7FEE7FEE7FEE7FEE73D29000873
:1001C000890100082DE9F05F0546002092469B4614
:1001D00088460646814640241BE02846414647465D
:1001E000224600F002FA53465A46C01A914110D3F3
:1001F00011461846224600F0E9F92D1A67EB01086E
:100200004F4622460120002100F0E0F917EB0009DB
:100210004E41201EA4F10104DFDC484631462A4647
:100220004346BDE8F09F40EA01039B0703D009E085
:1002300008C9121F08C0042AFAD203E011F8013BD2
:1002400000F8013B521EF9D27047D2B201E000F82B
:10025000012B491EFBD270470022F6E710B513466A
:100260000A4604461946FFF7F0FF204610BD2DE967
:10027000FE4F804681EA0300C00F0C46009021F03B
:10028000004123F00045B8EB0200A94105D24046E9
:10029000214690461C460B46024623F00040104380
:1002A00047D0270DC7F30A00C3F30A510290401A42
:1002B000019040286BDAC3F3130040F4801B0098D0
:1002C000924620B10023D2EB030A63EB0B0B01989B
:1002D0005946C0F14002504600F078F906460D46F6
:1002E00050465946019A00F090F910EB0800614120
:1002F000002487EA115284EAE7731A4340D0009A37
:1003000062B3019A012A4FEA075215DC001B61EB28
:1003100002014FF0004202EA0752CDE90042001C00
:1003200041F5801132462B4600F090F903B0BDE84C
:10033000F08F40462146F9E7001B61EB0201001CEB
:1003400041F5801300185B412018A2F5001747EB18
:10035000030140EAD570B6196D4111E06D084FEA0E
:10036000360645EAC0754FEA0752001B61EB0201F1
:10037000001C41F5801149084FEA30000019514135
:1003800032462B4603B0BDE8F04F00F050B900985C
:10039000012240000023D0EB020263EBE0730098DF
:1003A00021464FEAE074B8EB000061EB0401E9E795
:1003B00083F000435BE781F0004158E72DE9FE4FF1
:1003C00081EA030404F0004421F0004100944FF05E
:1003D000000B23F0004350EA01045ED052EA03040C
:1003E0005BD0C3F30A54C1F30A552C44A4F2F3348E
:1003F0000194A0FB0254C1F3130141F48011C3F333
:10040000130343F4801301FB024400FB034E840AF0
:10041000970A44EA815447EA8357A4FB0768029588
:100420008D0A05FB07854FEA932C04FB0C54270526
:10043000029D4FEA065847EA1637B5EB08056EEB02
:10044000070C870E920E47EA811742EA8312A7FB38
:100450000201B6EB0B0164EB00042B0D43EA0C33F5
:100460005E1844EB1C50DA465146E7FB0201C5F327
:1004700013044FEA0B3343EA14534FEA0432019C4E
:1004800043EA0603A4F10C040294009CCDE900B4F5
:1004900000F0DCF803B0BDE8F08F00200146F9E77A
:1004A0002DE9F04D81EA030404F0004B21F00045F2
:1004B00014464FF0000A23F0004150EA050220D014
:1004C00054EA01021DD0C5F30A570246C5F31303CF
:1004D000C1F31300C1F30A5640F4801543F48013AE
:1004E000A7EB0608101BD64608F2FD3873EB050093
:1004F00002D308F1010801E092185B41B8F1000F46
:1005000003DA00200146BDE8F08D00204FF4801191
:10051000064684460EE0171B73EB050705D3121B36
:1005200063EB050306434CEA010C49084FEA30002F
:1005300092185B4150EA0107EDD152EA030012D054
:1005400082EA040083EA0501084305D0101BAB4191
:1005500006D20122002306E000224FF0004302E011
:100560006FF0010253101AEB06004CEB085110EB30
:100570000A0041EB0B01BDE8F04D00F058B80EB594
:10058000C10F80EAE0700844CA07002140F23343FB
:100590008DE80E000A460B4600F058F803B000BD87
:1005A00030B50B46014600202022012409E021FA43
:1005B00002F59D4205D303FA02F5491B04FA02F540
:1005C0002844151EA2F10102F1DC30BD202A04DB13
:1005D000203A00FA02F1002070479140C2F1200356
:1005E00020FA03F3194390407047202A04DB203A95
:1005F00021FA02F00021704721FA02F3D040C2F143
:1006000020029140084319467047202A06DBCB1789
:10061000203A41FA02F043EAE07306E041FA02F3BD
:10062000D040C2F12002914008431946704710B5EE
:10063000141E73F1000408DA401C41F10001921805
:100640005B411A4301D120F0010010BD2DE9F04DAE
:1006500092469B4611B1B1FA81F202E0B0FA80F203
:1006600020329046FFF7B2FF04460F4640EA0A00E8
:1006700041EA0B0153465A46084313D0114653EA48
:10068000010019D0C8F140025046FFF7AEFF054601
:100690000E46504659464246FFF798FF084305D09C
:1006A000012004E020463946BDE8F08D00200543D6
:1006B00046EAE0762C4337430A986305E40AA0EB48
:1006C00008000022FD0A44EA47540A3002D50020FF
:1006D0000146E9E7010510196941DDE908450019FE
:1006E0006941BDE8F04DA2E7C1F30A52C1F313011D
:1006F00040F2FF3341F480119A4202DA00200146B1
:10070000704740F233439A42A2F2334202DC524233
:10071000FFF76BBFFFF75ABF30B5041E71F100043D
:1007200004DB4FF00044404264EB0101141E73F1FE
:10073000000405DB1C464FF00043524263EB040308
:10074000994208BF904230BD064C074D06E0E06874
:1007500040F0010394E8070098471034AC42F6D308
:10076000FFF716FD144200083442000810B5014698
:10077000806B026C12F0500F05D0026CD20626D5A9
:1007800000F0DAF910BD016C41F4007101640168F8
:100790008A6812F0405F17D1027EAAB9CA6A12F4C1
:1007A000700F02D08A6852050ED44A6822F02002E7
:1007B0004A60016C21F480710164016CC90403D4A6
:1007C000016C41F00101016400F0B4F910BD806BCF
:1007D000C26CBDE810400846104710B5806B402140
:1007E0000164416C41F00401416400F0A5F910BDC1
:1007F00010B5806B00F09FF910BD0000464910B5A0
:100800004A6822F440324A604A6843681A434A60A0
:1008100001684A6822F480724A6001684A68036984
:1008200042EA03224A6001684A6822F040724A6044
:1008300001684A6883681A434A6001688A6822F43A
:1008400000628A6001688A68C3681A438A60816AA4
:100850006FF07062D14201688A6822F070628A602B
:1008600001688A680CD0836A1A438A6001688A68C2
:1008700022F040528A6001688A68C36A1A4301E024
:1008800022F040528A6001688A6822F002028A607F
:1008900001688A68037E42EA43028A6090F8201069
:1008A000002901684A680FD042F400624A6001687A
:1008B0004A6822F460424A6001684A68174C436AF9
:1008C00004EB43331A4301E022F400624A600168FA
:1008D000CA6A22F47002CA620168CA6A838B104C29
:1008E00004EB03531A43CA6201688A6822F4007257
:1008F0008A6001688A6890F8303042EA43228A6050
:1009000001688A6822F480628A6001688A684069A6
:1009100042EA8020886010BD0023014000E0FFFF14
:100920000000F0FFFEE70000014800F027BA0000D9
:10093000E000002001681823CAB2103AB2FBF3F2BB
:10094000054B6FF30901032A9B5CC36500D9091DA0
:100950008165084670470000F441000810B5014663
:1009600000208B698A6A4FF0C07453B1B3F5005F01
:1009700015D072B1012A0CD0022A0AD0032A09D15B
:1009800004E01AB1012A06D0022A03D1C96AC901BA
:1009900000D5012010BDC96AA142FAD010BD002ABD
:1009A000F7D0012AF2D0022AF3D0032AF3D010BDE7
:1009B00030B50468256825F48025256004686360E7
:1009C0008368402B036803D099600068C26030BD23
:1009D0009A600068C16030BD70474FF4007000F04D
:1009E00061BB72B6FEE7000078B50024009490F871
:1009F0003C20012A19D0012280F83C200A680725F2
:100A00000368092A13D9DE680A3A02EB42029540CC
:100A1000AE43DE600A788B680A3A02EB42029340EA
:100A20000268D5682B43D36010E0022078BD1E69B0
:100A300002EB42029540AE431E610A788B6802EBDE
:100A400042029340026815692B4313614A681F25CF
:100A5000072A13D203685E6B521E02EB8202954096
:100A6000AE435E630A8893B20A79521E02EB820299
:100A700093400268556B2B43536327E003680D2AAC
:100A800012D21E6BD21F02EB82029540AE431E6350
:100A90000A8893B20A79D21F02EB8202934002685D
:100AA000156B2B43136311E0DE6A0D3A02EB8202F1
:100AB0009540AE43DE620A8893B20A790D3A02EBA2
:100AC000820293400268D56A2B43D362164B0568B5
:100AD000144A9D4206D10D68122D03D1556845F484
:100AE0008005556005689D4218D10B68102B01D018
:100AF000112B13D1536843F4000353600968102984
:100B00000CD10A490A4A0968B1FBF2F101EB8101F3
:100B1000490000E0491E00910029FBD180F83C40CB
:100B2000002078BD00230140002001403C0000204F
:100B300040420F0070477047704770B504004FF097
:100B4000000603D0206C002510B107E0012070BD25
:100B5000204600F01DF8656484F83C50206CC00607
:100B600010D4206C20F4885040F00200206420460D
:100B7000FFF744FE6564206C20F0020040F00100A5
:100B8000206400E0012684F83C50304670BD00002F
:100B900070B586B0064614216846FFF75DFB1D4917
:100BA0003068884234D11C480025016841F48071C6
:100BB0000160006800F480700590174814380168DF
:100BC00041F0010101600068694600F001000590F4
:100BD0001E2000900320CDE90105104800F06EFAB8
:100BE000104C0F48C4E900050015A560C4E9035086
:100BF000800060618000A0618011C4E90705204683
:100C0000656200F08BF908B1FFF7EBFEB463A663F1
:100C100006B070BD00200140443802400000024090
:100C200010640240E0000020F8B500230446009361
:100C300090F83C00012807D0012084F83C0020688F
:100C40008568ED0702D011E00220F8BD856845F007
:100C5000010585604048414D0068B0FBF5F000EBB0
:100C6000400000E0401E00900028FBD1206885680D
:100C7000ED0503D5856825F4807585602068856855
:100C8000ED075FD0256C40F20166B54345F48075F1
:100C900025644068400505D5206C20F4005040F4E0
:100CA00080502064206CC00404D5606C20F00600E5
:100CB000606400E0636484F83C30A36B2948284DED
:100CC000D863A36B28481864A36B2848D8642368AA
:100CD0006FF0220018602068436843F0806343602F
:100CE0002068836843F480738360134620680A4653
:100CF000A66B00F14C01304600F07AF968681C4997
:100D0000C006206806D0884224D1816811F0405F77
:100D100013D01FE08842F8D0164A904203D1D1F890
:100D20000423D206F1D0144A904213D1D1F804130F
:100D300001F01F011029E8D30CE0816841F08041E7
:100D4000816007E0206C40F010002064606C40F08F
:100D5000010060640020F8BD3C00002040420F000C
:100D6000002301406D070008F1070008DB070008B9
:100D70000020014000210140002201402DE9F843FC
:100D800004464FF00009CDF8009063484FF4165127
:100D9000A56D0068B0FBF1F72E6894F85C2008217F
:100DA00001FA02F030420FD02068026852070BD5DA
:100DB000026822F00402026094F85C008140A9609D
:100DC000606D40F00100606594F85C104FF0010820
:100DD00008FA01F0304208D021684969090604D5B3
:100DE000A860606D40F00200606594F85C1004201B
:100DF0008840304208D021680968890704D5A86076
:100E0000606D40F00400606594F85C10102088402C
:100E1000304218D021680968090714D5A8602068F5
:100E20000168490304D50068000308D5A16C07E0F8
:100E30000168C90503D4016821F008010160216C33
:100E400009B12046884794F85C1020208840304241
:100E500031D021680968C9062DD5A86094F83500FD
:100E600005282068016806D0490347D500680003BB
:100E70001DD4616C1CE021F01601016020684169FD
:100E800021F080014161206C08B9A06C20B120687C
:100E9000016821F00801016094F85C103F2088404F
:100EA000A86084F8358084F83490216D1FE0E16BF0
:100EB00009B120468847606D00282BD0606DC007BF
:100EC00014D0052084F835002068016821F0010164
:100ED00001600098401C0090B84203D82068006868
:100EE000C007F6D184F8358084F83490E16C00298D
:100EF00010D001B02046BDE8F04308470168C9059D
:100F0000D5D4016821F01001016084F8358084F89F
:100F10003490CCE7BDE8F8833C0000202DE9F04197
:100F2000044600F0B9F905465CB1022084F83500AA
:100F3000002684F834602068016821F00101016016
:100F40000DE00120BDE8F08100F0A6F9401B052866
:100F500005D920206065032084F83500F2E7206879
:100F60000068C007F0D121680A6820480240D4E92F
:100F700001031843D4E903352B431843636918432D
:100F8000A3691843E3691843236A18431043626A4C
:100F9000042A03D1D4E90B231A43104308602068C4
:100FA0004069656A20F0070128460D43012704289F
:100FB0000CD1A06A0543E06A40B12046FFF7CEFCA1
:100FC00020B14020606584F83570BAE7206845613B
:100FD0002046FFF7AFFC94F85C203F2191408160F0
:100FE000666584F835700020ACE700003F8010F0A3
:100FF0002DE9F0410446866D90F834000025012863
:101000000DD0012084F8340094F835700020012FB1
:1010100007D084F8340002252846BDE8F08102207C
:10102000FBE7022784F8357060652046FFF7C0FCB7
:1010300094F85C103F208840B0602068016841F05F
:1010400016010160206C20B12068016841F00801A0
:1010500001602068016841F001010160DCE70000E7
:1010600070B5044600F018F90546601C02D004482B
:101070000078044400F010F9401BA042FAD370BD80
:1010800030000020B0F5007F08D105490878401CE9
:10109000C0B20870012801D9002008707047000014
:1010A00020000020044910B50A68024202D00860FE
:1010B000FFF7E8FF10BD0000143C01402DE9F84F98
:1010C000DFF89C910022A9F1040B03274FF00F0CCD
:1010D00009F1040AABF1040E01250B6895402B4081
:1010E000AB426ED10C7904F00304012C01D0022C28
:1010F00015D18668540007FA04F826EA0806D1F8E4
:101100000C8008FA04F848EA0608C0F80880446829
:10111000AC430D79C5F300159540254345600C7926
:10112000E443A40708D0C568540007FA04F6B543A1
:101130008E68A6402E43C6600C7904F00304022C8E
:1011400011D1D40800EB8406356A5407E40E0CFA7A
:1011500004F825EA0805D1F8108008FA04F848EAEE
:101160000508C6F820800568540007FA04F6B54360
:101170000E7906F00306A6402E4306604C6814F470
:10118000403F66D0374C256845F48045256024688B
:1011900022F0030504F480440094334C05EB04086A
:1011A000D8F808589407260F0CFA06F4A5432F4CDC
:1011B000A04201D1002424E02D4CA04202D1012400
:1011C0001FE046E02B4CA04201D1022419E02A4C3A
:1011D000A04201D1032414E0284CA04201D10424F0
:1011E0000FE0274CA04201D105240AE0254CA04283
:1011F00001D1062405E0244CA04201D1072400E0DF
:101200000824B4402C43C8F80848D9F800404D469B
:101210004E689C43F60200D51C432C60DAF800406F
:1012200055464E689C43B60200D51C432C60DBF843
:1012300000405D464E689C43B60300D51C432C60BD
:10124000DEF8004075464E689C43F60300D51C430B
:101250002C60521C102AFFF43FAFBDE8F88F00004D
:10126000083C014044380240003001400000024088
:101270000004024000080240000C0240001002403E
:101280000014024000180240001C02400AB18161B3
:1012900070470904FBE700000148806870470000C0
:1012A0003000002070B5040025D094F83D000025E2
:1012B00020B984F83C50204600F050F9242084F8EE
:1012C0003D002068016821F001010160206801688B
:1012D00041F4004101602068016821F4004101608F
:1012E00000F0A4FA4D4B6168994201D84C4900E0E6
:1012F0004C49884201D2012070BD4B492268B0FBA5
:10130000F1F1566826F03F060E43566062689A4235
:1013100006D94FF4967251434FF47A72B1FBF2F151
:101320002268491C166A26F03F0631431162616843
:10133000994210D84900401EB0FBF1F2521CC2F392
:101340000B02042A01D2042022E0B0FBF1F0401C81
:10135000C0F30B001CE0A268F2B301EBC10303EB86
:101360000116431EB3FBF6F35B1C43F480431B05DD
:1013700049D092B301EBC10202EB0111401EB0FB58
:10138000F1F0401CC0F30B0040F4804040F40040FA
:101390002168CA694CF6FF739A431043C861D4E9C7
:1013A000071001432068026822F0C0021143016067
:1013B000D4E9030101432068826848F2FF339A436D
:1013C00011438160D4E9051001432068C26822F00E
:1013D000FF021143C16001E00EE016E020680168E1
:1013E00041F0010101602564202084F83D0025635F
:1013F00084F83E50002070BD01EB4106431EB3FB54
:10140000F6F35B1CB3E70120C2E701EB4101401E8C
:10141000B0FBF1F0401CC0F30B00B7E7A086010061
:1014200080841E0000093D0040420F002DE9FF4F5F
:1014300083B09A46DDE9119793460446DDF8408073
:10144000FFF72AFF054694F83D0020287FD1192395
:10145000012240492046009500F080FF002876D107
:1014600094F83C00012872D0012084F83C002068E8
:101470000168C90703D1016841F0010101602068DA
:10148000016821F400610160212084F83D004020C2
:1014900084F83E0000262664C4F82480A4F82A902C
:1014A000608D20852C48E062CDE9007553465A4690
:1014B0002046049900F0D8FE70B930E02A4639463B
:1014C000204600F0CBFF58B1206C042804D12068DE
:1014D000016841F400710160012007B0BDE8F08FA0
:1014E000606A216800780861626A521C6262208D1D
:1014F000401E80B22085618D491E618521684B693F
:10150000DB435B070BD468B110780861606A401C4C
:101510006062208D401E2085608D401E6085208D7C
:101520000028CBD12A463946204600F0F1FE00289B
:10153000CAD154F83D0B016841F4007101602020CC
:1015400004F81E09E67766770020C6E7FFE7022069
:10155000C3E70000020010000000FFFF10B586B0D6
:10156000044614216846FEF777FE13492068884236
:1015700020D11248016841F002010160006869460B
:1015800000F002000590C020009012200190012080
:10159000029003200390042004900948FFF78EFD79
:1015A00006481030016841F400110160006800F441
:1015B0000010059006B010BD0054004030380240C5
:1015C000000402400248816802781144816070473B
:1015D000300000200B4810B5016841F40071016033
:1015E000016841F480610160016841F4807101602B
:1015F000032000F06FF80F2000F006F800F024F848
:10160000002010BD003C024070B50D4D04464FF463
:101610007A712878B1FBF0F00A490968B1FBF0F063
:1016200000F002FB48B9102C07D200222146501EC0
:1016300000F030F800206C6070BD012070BD00002B
:10164000300000203C0000200A4808B5016841F441
:1016500080410160006800F4804000900548001F50
:10166000016841F080510160006800F080500090F6
:1016700008BD000044380240002809DB00F01F02CA
:10168000012191404009800000F1E020C0F80011E4
:1016900070470000F0B40E4B1B68C3F30223C3F184
:1016A0000704042C00D904241D1D072D01D200239A
:1016B00000E0DB1E012606FA04F56D1E0D409D407C
:1016C0009E40761E164045EA0601F0BC01F032BC91
:1016D0000CED00E0064A00F0070110684FF6FF032A
:1016E000184040EA01200349084310607047000099
:1016F0000CED00E00000FA052DE9F0470D4604006E
:1017000065D0DFF81491D9F80000EFB200F00700BF
:10171000A84207D289F80070D9F8000000F007004D
:10172000A84254D120683D4E810712D5400703D509
:10173000306840F4E05030602078000703D530680E
:1017400040F4604030603068A16820F0F000084349
:1017500030602078C0072DD03049606808390128F2
:1017600012D0022813D0032811D009688907002954
:101770002DDA316821F0030101433160FFF78CFD60
:10178000804641F2883A0EE009688903EFE709686C
:101790008901ECE7FFF780FDA0EB0801514502D974
:1017A0000320BDE8F0873068616800F00C00B0EB02
:1017B000810FEFD1D9F80010484601F00701A94286
:1017C00007D90770006800F00700A84201D0012087
:1017D000E7E72078400705D53068E16820F4E0505D
:1017E000084330602078000706D53068216920F46E
:1017F000604040EAC100306000F038F83168084AC3
:10180000C1F30311515CC8400649086006480068EE
:10181000FFF7FAFE0020C4E7003C0240083802400F
:10182000FC4100083C000020340000200448054929
:1018300000680968044AC1F38221515CC8407047BE
:101840003C000020083802400C42000804480549CA
:1018500000680968044AC1F34231515CC8407047CE
:101860003C000020083802400C420008154810B522
:10187000006810F00C01144813D0144B04290FD049
:1018800008290ED10F4C241F216801F03F02216866
:10189000490207D52068C0F38810A0FB030106E0C9
:1018A000184610BD2168C1F38811A1FB0001002377
:1018B000FEF788FC2168C1F30141491C4900B0FBD7
:1018C000F1F010BD083802400024F40040787D019A
:1018D0002DE9F84F040075D02078DFF838A3C00751
:1018E000AAF1040548D00AF104000168C1F381019E
:1018F000012908D00068C0F3810002280AD1DAF873
:101900000000400206D52868800335D560680028AD
:10191000E1D031E06068B0F5803F10D0B0F5A02F85
:10192000286810D020F480302860286820F48020B7
:1019300028606068A0B1FFF7AFFC06460CE028689D
:1019400040F48030F4E740F480202860F7E7FFF7A8
:10195000A3FC801B642871D828688003F7D50BE0AE
:10196000FFF79AFC064604E0FFF796FC801B64280C
:10197000F1D828688003F7D42078DFF89C9280079C
:101980004FF0000B3DD5A348001D016811F00C0F6E
:1019900008D00068C0F3810002280AD1DAF80000FC
:1019A000400206D42868800715D5E068012809D1CF
:1019B00011E0E068B8B10120C9F80000FFF76CFC45
:1019C000064605E022E1FFF767FC801B0228C2D82B
:1019D00028688007F7D52868216920F0F80040EAD8
:1019E000C10028600DE0C9F800B0FFF755FC0646BD
:1019F00004E0FFF751FC801B02281FD828688007ED
:101A0000F7D42078000722D5824F84486169703767
:101A100071B101210160FFF73FFC064604E0FFF7CA
:101A20003BFC801B022809D838688007F7D50EE0F8
:101A3000C0F800B0FFF730FC064605E082E0FFF793
:101A40002BFC801B02287DD838688007F7D42078CB
:101A5000400765D56F484FF000083C300068C00073
:101A60000BD46C483C30016841F080510160006843
:101A70004FF0010800F080500090694F3868C005B1
:101A80000FD4386840F480703860FFF705FC0646D4
:101A900004E0FFF701FC801B022853D83868C0051A
:101AA000F7D55C4FA0686C3701280FD0052838683F
:101AB00010D020F001003860386820F00400386051
:101AC000A068B0B1FFF7E8FB06460EE0386840F0CA
:101AD0000100F4E740F004003860F7E7FFF7DCFBB3
:101AE000811B41F28830814263D838688007F5D580
:101AF0000DE0FFF7D1FB064606E0FFF7CDFB811BAB
:101B000041F28830814254D838688007F5D4B8F162
:101B1000000F05D03F483C30016821F08051016042
:101B2000A069B8B33B49091D0968C1F381010229C5
:101B300046D00228584606D0C9F86000FFF7ACFB33
:101B4000044639E035E04F46C9F86000FFF7A4FBD2
:101B5000064604E0FFF7A0FB801B022829D828686E
:101B60008001F7D4D4E907010843A16A2D4A490846
:101B700002EB0141626A41EA8211084394F82C1099
:101B800040EA0161CAF8001001203866FFF784FBC3
:101B9000044605E03CE0FFF77FFB001B022808D865
:101BA00028688001F7D533E0FFF776FB001B022899
:101BB00002D90320BDE8F88F28688001F4D427E01B
:101BC0000128F7D0DAF80000E26900F480019142C0
:101BD0001CD1226A00F03F01914217D147F6C07133
:101BE000626A0140B1EB821F10D1A26A4FF0FF334D
:101BF00000F4403103EB5202B1EB024F06D194F8EE
:101C00002C1000F07060B0EB016F01D00120D1E723
:101C10000020CFE70438024000004742800E4742D0
:101C2000007000400000FFFF10B5401EB0F1807F43
:101C300001D3012010BD4FF0E02460610F21601737
:101C400001F078F90020A06107202061002010BD7C
:101C50007047704770B590F83C20012A32D00125BA
:101C600080F83C50022280F83D2002685368946856
:101C700023F070060B6833435360134B02689A429B
:101C800014D0B2F1804F11D0104B9A420ED0104BAD
:101C90009A420BD00F4B9A4208D00F4B9A4205D074
:101CA0000E4B9A4202D00E4B9A4204D1496824F05E
:101CB00080031943916080F83D50002180F83C106A
:101CC000084670BD022070BD0000014000040040C5
:101CD00000080040000C00400004014000400140AA
:101CE0000018004010B5040003D094F83D0010B176
:101CF00007E0012010BD002084F83C00204600F0E1
:101D00001FF8022084F83D00211D206800F038FFF4
:101D1000012084F8460084F83E0084F83F0084F8EF
:101D2000400084F8410084F8420084F8430084F8BD
:101D3000440084F8450084F83D00002010BD0000F8
:101D400008B500680B49884212D10B48016841F080
:101D5000010101600068002200F0010000901146BE
:101D60001920FFF797FCBDE808401920FFF784BC55
:101D700008BD0000000001404438024090F83D10CA
:101D8000012901D001207047022180F83D1001682F
:101D9000CA6842F00102CA6000681149884214D042
:101DA000B0F1804F11D00F4988420ED00E498842C1
:101DB0000BD00E49884208D00D49884205D00D4904
:101DC000884202D00C49884204D1816801F00701A1
:101DD000062903D0016841F001010160002070472D
:101DE000000001400004004000080040000C0040DA
:101DF00000040140004001400018004070B5044656
:101E000090F83C000025012817D0012684F83C609A
:101E1000022084F83D002068826822F0770222F4D4
:101E20007F4282600868502838D00DDC20284FD0CF
:101E300005DC90B3102811D14AE0022070BD302893
:101E400046D040280AD13BE060282FD070280DD022
:101E5000B0F5805F03D0B0F5005F12D0012584F8A3
:101E60003D60002084F83C00284670BDCB68D1E975
:101E70000121206800F0E8FE2068816841F07701C8
:101E800009E0CB68D1E90121206800F0DDFE20687F
:101E9000816841F480418160E1E719E0CA684968DE
:101EA000206800F0E3FE5021206806E0CA68496817
:101EB000206800F0ECFE6021206800F0CFFECEE745
:101EC000CA684968206800F0D1FE40212068F4E724
:101ED000226801461046F0E7704770B50446006876
:101EE00001694FF00005C943890715D4C168C9438A
:101EF000890711D4E91E01610120207720688069DB
:101F00008007204602D0FFF7E7FF04E000F098F8D2
:101F1000204600F096F8257720680169C9434907F3
:101F200017D4C168C943490713D46FF00401016194
:101F3000022020772068806910F4407F204602D07C
:101F4000FFF7CAFF04E000F07BF8204600F079F8C4
:101F5000257720680169C943090716D4C168C943B8
:101F6000090712D46FF0080101610420207720686E
:101F7000C0698007204602D0FFF7AEFF04E000F002
:101F80005FF8204600F05DF8257720680169C943B5
:101F9000C90617D4C168C943C90613D46FF010012C
:101FA0000161082020772068C06910F4407F204636
:101FB00002D0FFF791FF04E000F042F8204600F065
:101FC00040F8257720680169C943C90708D1C1686D
:101FD000C943C90704D1891E0161204600F032F8C7
:101FE00020680169C943090609D4C168C9430906C3
:101FF00005D46FF0800101612046FFF729FE2068BB
:102000000169C943490609D4C168C943490605D4D1
:102010006FF040010161204600F04EF82068016930
:10202000C94389060BD4C168C943890607D46FF038
:10203000200101612046BDE87040FFF70ABE70BD77
:1020400070477047F0B500681449884225D1144D97
:10205000144940F6AC562C68D1E902030122B4427F
:1020600002D9114C27798FB16C68B44202D90F4C58
:1020700027795FB1AC68B44202D90D4C27792FB1F2
:10208000EC68B44204D90B4C25790DB9227120605B
:10209000401C43F10002C1E90202F0BD0000014012
:1020A0008800002020000020000000200800002000
:1020B0001000002018000020704770B5040004D004
:1020C00094F83D00002510B106E0012070BD84F8B1
:1020D0003C50204600F022F8242084F83D0020687F
:1020E000C16821F40051C160204600F0E3FD206882
:1020F000016921F4904101612068416921F02A01C0
:1021000041612068C16841F40051C160256420200C
:1021100084F83D0084F83E00002070BD10B586B004
:10212000044614216846FEF797F81449206888424F
:1021300021D113480021026842F0100202600068B9
:1021400000F0100005900E481438026842F00102B9
:102150000260006800F0010005904FF4C06000903C
:102160000220CDE901010320039007200490694675
:102170000448FEF7A3FF06B010BD000000100140A8
:1021800044380240000002402DE9F843044690F82C
:102190003D001F4615460E4620284BD1C6B1BDB1A5
:1021A00094F83C00012845D0012084F83C004FF011
:1021B0000008C4F84080212084F83D00FFF76CF847
:1021C000A5848146E584A068B0F5805F03D004E073
:1021D0000120BDE8F883206920B13546002684F847
:1021E0003C800EE00025FAE78021204600F0E8FD63
:1021F000A0B9ADB115F8010B21684860E08C401E14
:10220000E084E08C4B464FF0000200970028EBD1B1
:102210004FF04001204600F0D3FD30B10320D8E755
:1022200036F8020BC0F30800E6E7202084F83D00F2
:102230000020CEE70220CCE7FEE701684A69D243DE
:1022400052050FD46FF480624A61002140F8301FBC
:10225000202242738173026942F004020261017319
:1022600001207047002070472DE9F84304460068BC
:102270000D46DDE9089701689846164641F48071DD
:1022800001604B4600224FF001112046009700F0FC
:1022900065F848B120680068C00502D54FF40070A9
:1022A00020640320BDE8F883216805F0FE00086182
:1022B0003B464A461549204600F084F888B9206814
:1022C0004169806900903A464946204600F0C6F8C8
:1022D00048B1206C042804D12068016841F40071E1
:1022E00001600120DEE7F5B2B8F1010F09D02168E5
:1022F000300A08613A464946204600F0AFF8002807
:10230000E7D1206805610020CCE700000200010051
:1023100070B516460D4604460DE02046FFF78DFFCA
:1023200008B1012070BD681C05D0FEF7B5FF801B09
:10233000A84207D835B120684069C0434007ECD4B3
:10234000002070BD002044F8300F20216173A0737D
:10235000216941F0200121612073E2E72DE9F04776
:102360001D4690460E460446C1F30747DDF820900F
:1023700008E0681C06D0FEF78FFFA0EB0900A8421A
:102380000FD875B12068012F18D0806926EA0000A7
:102390000004000C14D000204045EAD00020BDE825
:1023A000F087002044F8300F20216173A073216969
:1023B00041F02001216120730120F0E74069E5E749
:1023C0000120E9E72DE9F047984615460E460446F8
:1023D0004FF000094FF0200AC1F3074723E02068BF
:1023E0004069C043400515D42068016841F400717C
:1023F000016021686FF480604861C4F8309084F80F
:102400003DA084F83E90216C41F00401216484F8E1
:102410003C901EE0681C06D0FEF73EFFA0EB0800D3
:10242000A8420AD84DB12068012F15D0806926EA4C
:1024300000000004000C0DD0D1E744F8309F84F870
:102440000DA084F80E90216941F02001216184F8EB
:102450000C900120BDE8F0874069E8E770B51646AA
:102460000D4604460DE02046FFF7E7FE08B10120C7
:1024700070BD681C05D0FEF70FFF801BA84207D86F
:1024800035B120684069C0430006ECD4002070BD1F
:10249000002044F8300F20216173A073216941F0BE
:1024A000200121612073E2E70649002008600871DD
:1024B0000831086008710831086008710831086047
:1024C00008717047000000207FB50021244800916A
:1024D00001910291214A0391026001244FF40032DC
:1024E0000461C0E90121047680F820101D4AC0E98A
:1024F0000A210425C561C16080F830404461FEF7BF
:102500001CFB08B1FEF76DFA0094019402246946A1
:1025100013480294FEF768FA08B1FEF762FA0094D5
:1025200069460F480194FEF75FFA08B1FEF759FAC1
:1025300003200090019069460948FEF755FA08B15A
:10254000FEF74FFA0095694605480195FEF74CFAEB
:10255000002801D0FEF745FA7FBD000000200140B1
:10256000980000200100000F094808B5016841F4F7
:10257000800101600068002200F480000090114694
:102580003820FFF787F8BDE808403820FFF774B817
:1025900030380240F0B587B014216846FDF75CFE84
:1025A00022480026016841F020010160016801F025
:1025B00020010591016841F080010160016801F08E
:1025C00080010591016841F001010160016801F09D
:1025D00001010591016841F0020101600068144F9A
:1025E00000F002004FF4007505900022294638469D
:1025F000FEF74CFE01240095CDE9014669463846B8
:102600000396FEF75BFD4FF404100095CDE901043D
:1026100069460848FEF752FD00220E211720FFF7F9
:1026200039F81720FFF728F807B0F0BD303802401E
:1026300000140240000402400D4810B50B4901602F
:102640000C49416000214FF480428160C0E90312CF
:1026500041618161C1610162FEF724FE002803D05F
:10266000BDE81040FEF7BDB910BD000000540040A9
:1026700040010020A086010010B586B00024174854
:102680000094019402940394049413490594016006
:10269000A721C0E901140921C0E903148021C0E980
:1026A0000541FFF71FFB08B1FEF79BF94FF480507F
:1026B000009069460948FFF7A1FB08B1FEF791F9C0
:1026C000049404A905480594FFF7C4FA002801D032
:1026D000FEF787F906B010BD00000140940100200C
:1026E0000C4810B50A4901604FF4E1314160002106
:1026F00081600C22C160C0E904128161C161FFF7F1
:10270000DCFC002803D0BDE81040FEF76AB910BD1C
:1027100000100140DC010020FEE7FEE770B5002557
:1027200005F1B000C0B200F097F8002000F094F876
:10273000102000F091F80024002000F09FF8641CA5
:10274000E4B2802CF8D36D1CEDB2082DE8D370BD37
:1027500010B58D2000F080F8142000F07DF8BDE861
:102760001040AF2000F078B810B54FF4FA70FEF7C3
:1027700077FCBDE8104000F05FBB10B50446B031F7
:10278000C8B200F069F8102040EA141000F064F8B4
:1027900004F00F00BDE8104000F05EB82DE9F041F4
:1027A000203A00240F468046D5B27F2803D9002066
:1027B0008F1C8046FFB2102B39461DD8FFF7DDFF76
:1027C000154E04EB0510305C00F058F8641CE4B2C0
:1027D000082CF6D37F1CF9B24046FFF7CEFF002449
:1027E00004EB05103044007A00F048F8641CE4B2B1
:1027F000082CF5D3BDE8F081FFF7BFFF074905EBD3
:10280000450001EB4005285D00F038F8641CE4B297
:10281000062CF8D3EEE70000043C0008DC39000881
:102820002DE9F041984617460E46044600250DE076
:10283000434631462046FFF7B1FF0834E4B2782C16
:1028400002D90024B61CF6B26D1CEDB27A5D002AE6
:10285000EED1BDE8F081000001B584B001214FF454
:10286000807204A88DE807000B46002278210248F8
:10287000FEF7DCFD05B000BD4001002001B584B0CD
:1028800001214FF4807204A88DE807000B46402216
:1028900078210248FEF7CAFD05B000BD40010020C6
:1028A00070477047FEF78EBE30B593B03021684652
:1028B000FDF7D2FC14210CA8FDF7CEFC1D48002525
:1028C000016841F080510160006800F08050119073
:1028D0001948016841F4804101600068022400F455
:1028E00080401190012003901020049000940694E1
:1028F0000820CDE90750A820CDE9090404200B9059
:102900006846FEF7E5FF08B172B6FEE70CA90F2096
:1029100081E831004FF4A0500F904FF48050109098
:1029200005210CA8FEF7E8FE002801D072B6FEE7EC
:1029300013B030BD403802400070004002480168CA
:1029400041F470010160704788ED00E02DE9F04727
:102950002DED0C8B04466048016860480568481BF3
:10296000FDF70DFE9FED5E9B53EC192BFDF726FD49
:1029700041EC180B5C4884ED048B0068401BFDF7AC
:10298000FEFD53EC192BFDF719FD41EC1A0B5748CE
:1029900084ED06AB0068401BFDF7F1FD53EC192BED
:1029A000FDF70CFD41EC190B51EC180B84ED089B65
:1029B00053EC192BFDF75BFC53EC1A2BFDF7F8FCDD
:1029C00041EC1C0B53EC192B51EC190BFDF7F6FCE9
:1029D0008A4606464AEC1B0B53EC182B51EC180B9D
:1029E000FDF7ECFC8846074648EC1D0B53EC1A2B10
:1029F00051EC1A0BFDF7E2FC53EC1D2BFDF7D8FC54
:102A000053EC1B2BFDF7D4FC53EC1C2BFDF748FDBE
:102A100041EC1A0B9FED361B84ED0AAB94ED0E0BC7
:102A200053EC112B51EC100BFDF7C8FC894648EC18
:102A3000107B054649EC1B0B53EC182B51EC100B8B
:102A4000FDF715FC53EC1A2BFDF7B2FC53EC1B2BD6
:102A5000FDF726FD4AEC106BC4E9000149EC1B5B55
:102A600053EC192B51EC100BFDF701FC53EC1A2B16
:102A7000FDF79EFC53EC1B2BFDF712FDC4E9020190
:102A800053EC182B1CA000F031FA94ED060B1DA09E
:102A900053EC102B00F02AFA94ED080B1CA053EC19
:102AA000102B00F023FA94ED0A0B1CA053EC102B12
:102AB00000F01CFA94ED000B1BA053EC102B00F05F
:102AC00015FA94ED020B1AA0BDEC0C8B53EC102BF5
:102AD000BDE8F04700F00ABA08000020000000201E
:102AE000C3F5285C8FC2D53F1000002018000020DD
:102AF00000000000000010407232313A256C660D73
:102B00000A0000007233313A256C660D0A0000009D
:102B10007234313A256C660D0A00000061313A25A5
:102B20006C660D0A00000000783A256C660D0A00FC
:102B3000793A256C660D0A009FED0A0B80ED0E0BAD
:102B40009FED0A0B80ED0A0B80ED040B80ED060B68
:102B500080ED080B80ED000B80ED020B80ED0C0B7F
:102B60007047000000000000008056400000000098
:102B7000000000000148FFF7B0B9000094010020F8
:102B8000F0B50268254D264E264FDFF89CC0274B36
:102B90004FF0804EA84209D0704507D0B04205D012
:102BA000B84203D0604501D0984203D122F07004AE
:102BB0004A682243A8421BD0704519D0B04217D0B2
:102BC000B84215D0604513D0984211D0184CA0429D
:102BD0000ED0184CA0420BD0174CA04208D0174C76
:102BE000A04205D0164CA04202D0164CA04203D100
:102BF00022F44074CA6822434C6922F080022243C6
:102C000002608A68C2620A688262A84201D0984261
:102C100001D10969016301214161F0BD000001405A
:102C20000004004000080040000C00400004014087
:102C300000400140004401400048014000180040AD
:102C4000001C00400020004010B5846842EA0322C6
:102C500024F47F440A432243826010BD826822F03C
:102C600070020A4342F007018160704710B5046AA0
:102C7000036A23F001030362836923F0F00343EA4C
:102C8000021324F00A020A438361026210BD10B5E8
:102C9000036A23F0100303628469036A24F4704416
:102CA00044EA023223F0A00343EA01118261016287
:102CB00010BD000070B5044600680169E26821F4A7
:102CC000405111430161A1682069E26901436069D3
:102CD000104301432068C26849F20C639A430A43D7
:102CE000C26020684169A26921F4407111434161C9
:102CF00031492068884202D03049884202D1FEF72B
:102D0000A5FD01E0FEF792FDE2690023192164258B
:102D10003226B2F5004F626828D0A0FB0101930F64
:102D20009200FDF74FFA0146B0FBF5F06FF0180284
:102D3000504301EB800006EB0010B0FBF5F000F013
:102D4000F002B1FBF5F002EB0012B1FBF5F06FF011
:102D50001803584301EB800006EB0010B0FBF5F0C0
:102D600000F00F0021681044886070BDA0FB0101D5
:102D700092185B41FDF726FA0146B0FBF5F002011F
:102D8000B1FBF5F06FF01803584301EB800006EB40
:102D9000C000B0FBF5F000F0F80002EB4002B1FB20
:102DA000F5F0584301EB800006EBC000B0FBF5F0F6
:102DB00000F00700D6E700000010014000140140B9
:102DC0002DE9F0411E46174688460446069D26E03A
:102DD000681C24D025B1FEF75FFA801BA8421ED9DB
:102DE00020680C3050E8001F21F4D07140E8001238
:102DF000002AF5D12068143050E8001F21F00101AD
:102E000040E80012002AF5D1202084F83D0084F823
:102E10003E00002084F83C000320BDE8F0812068DB
:102E2000016838EA010004D00020B842D0D0002068
:102E3000F3E70120F9E7FEE710B5AE20FFF70CFD40
:102E40000020FFF709FD1020FFF706FD4020FFF7E7
:102E500003FD8120FFF700FDCF20FFF7FDFCA1203F
:102E6000FFF7FAFCC820FFF7F7FCA620FFF7F4FCF9
:102E7000A820FFF7F1FC3F20FFF7EEFCD320FFF77F
:102E8000EBFC0020FFF7E8FCD520FFF7E5FC8020F5
:102E9000FFF7E2FCD920FFF7DFFCF120FFF7DCFCB5
:102EA000DA20FFF7D9FC1220FFF7D6FCDB20FFF772
:102EB000D3FC4020FFF7D0FC2020FFF7CDFC022000
:102EC000FFF7CAFC8D20FFF7C7FC1420FFF7C4FCF6
:102ED000A420FFF7C1FCA620FFF7BEFCFFF71EFCF5
:102EE000BDE81040AF20FFF7B7BC00000FB4054BA2
:102EF00010B503A9044A029800F0FEF810BC5DF872
:102F000014FB000009380008400000200FB4084BF3
:102F100010B504A902AA039800F0EEF8044602A92D
:102F2000002000F06CFC204610BC5DF814FB000093
:102F3000FF3700080907090E002804DB00F1E02034
:102F400080F80014704700F00F0000F1E02080F8D6
:102F5000141D704702E008C8121F08C1002AFAD1E8
:102F600070477047002001E001C1121F002AFBD109
:102F7000704700002DE9FF5F82B00021DDE90430D9
:102F8000020DDDF840B0034318D044F61050A2F211
:102F9000FF3242431514119801281FD0A5EB0B00F6
:102FA000401C5FEA000A4FF000064E4FDFF83891F0
:102FB000B046504615D5CAF1000413E0119801241B
:102FC0004AA3012801D16FEA0B010298119AC0E9C6
:102FD0000031C0E9024206B0BDE8F09FCBF100002D
:102FE000DFE704460021404A491842EB0450CDE98E
:102FF000001012E0E00707D032463B464046494603
:10300000FDF7DCF98046894632463B4610461946B4
:10301000FDF7D4F906460F466410002CEAD1DDE92D
:103020000401DDE90023BAF1000F06DAFDF7C6F965
:1030300042464B46FDF7C2F905E0FDF731FA42463C
:103040004B46FDF72DFA04460E460022284BFDF7AD
:1030500063FB03D84FF0FF30014607E00022254B09
:1030600020463146FDF703F9FDF73EFB102409E049
:10307000002C0ADB0A220023FDF7A4F8039B303260
:103080001A55641E50EA0102F2D1641C039AC4F17D
:1030900011031444119A012A03D0012208430DD1CF
:1030A0000AE0084304D000204FF0110B119072E7A2
:1030B000A3EB0B056D1E0DE05B4504DD4FF0000238
:1030C00005F1010504E003DA4FF00002A5F1010566
:1030D000002AECD002981199C0E90231C0E90045FC
:1030E00079E70000000014400000F03F30000000CD
:1030F0000000F0430000E03F2DE9FF4F95B09A46F5
:10310000884606460025EEE1252877D1002427468B
:10311000F94A0121039400E0044316F8013F203BE3
:1031200001FA03F01042F7D130782A2811D06FF05D
:103130002F033078A0F13002092A16D8039A44F000
:10314000020402EB820203EB42021044761C03905D
:10315000EFE758F8042B0392002A03DA504244F4B4
:103160000054039044F00204761C30782E2816D1C7
:1031700016F8010F44F004042A280DD06FF02F0236
:103180003078A0F13003092B09D807EB870302EB55
:103190004303C718761CF3E758F8047B761C307895
:1031A0006C280FD006DC4C2817D068280DD06A2870
:1031B00014D104E0742810D07A280FD10DE044F423
:1031C00000140AE044F4801401E044F440147278DE
:1031D000824202D104F58014761C761C3078662871
:1031E0000BD013DC582877D009DC002875D045288F
:1031F000F6D04628F4D047281AD193E118E0632886
:1032000035D0642879D0652812D18BE1702873D02D
:1032100008DC6728F1D069286FD06E280DD06F28A0
:1032200006D1ACE073282CD0752874D0782853D000
:103230005246179990476D1C54E1C4F3025002287E
:1032400009D003280DD0D8F8001004280DD00D6047
:1032500008F1040846E1D8F80010EA17C1E9005265
:10326000F6E7D8F800100D80F2E70D70F0E718F8D7
:10327000041B8DF8001000208DF80100EB460120A2
:1032800003E058F804BB4FF0FF3061074FF0000136
:1032900002D40DE009F101018946B9420FDA8145F6
:1032A000F8DB1BF809100029F4D108E009F101014D
:1032B00089468142FADB1BF809100029F6D10398F0
:1032C0005346A0EB090721463846179A00F080FACA
:1032D000284400EB090507E044E008E10DE01BF895
:1032E000010B524617999047B9F10109F7D253469D
:1032F00021463846179AF2E039E00A21C4F3025217
:103300004FF0000B0091022A06D058F8040BC117A9
:10331000032A09D00AE023E008F1070020F00702A1
:10332000F2E80201904605E000B2C117042A01D17B
:1033300040B2C117002906DA0A460021404261EB7B
:1033400002012D2202E0220504D52B228DF8042053
:10335000012203E0E20701D02022F7E7914657E07F
:103360000A2100E010214FF0000B00910BE010212A
:103370004FF0000B44F004040827009103E00820FC
:103380004FF0000B0090C4F30252022A05D058F807
:10339000040B0021032A08D008E008F1070020F000
:1033A0000702F2E80201904603E080B2042A00D14D
:1033B000C0B24FF0000922072AD53278702A07D010
:1033C000DDF800C08CF0100C5CEA0B0C05D00EE0B0
:1033D00040228DF80420012208E050EA010306D0C3
:1033E00030238DF804308DF8052002229146009B91
:1033F00083F0080353EA0B030AD150EA010201D11A
:10340000620705D530228DF804204FF001097F1E98
:103410003278582A04D039A20C920CAA02920BE0FE
:103420003BA2F9E75B46009AFCF7CCFE0C9B9B5C49
:10343000029A521E0292137050EA0102F2D10298CF
:1034400004A9081A00F1200B600702D524F4803487
:1034500000E001275F4502DDA7EB0B0000E0002044
:1034600000EB0B01009003984944401A0390E003DD
:1034700006D453462146179A039800F0A9F905444B
:10348000002706E001A85246C05D179990476D1CC1
:103490007F1C4F45F6DBE0030CD553462146179AB7
:1034A000039800F095F9054404E03020524617993E
:1034B00090476D1C0099481E00900029F5DC08E03B
:1034C0000298029952460078491C02911799904738
:1034D0006D1CBBF10001ABF1010BF1DC5BE100F015
:1034E00065F90544761C307800287FF40DAE19B0DC
:1034F0002846BDE8F08F0000092801003031323342
:10350000343536373839616263646566000000001F
:103510003031323334353637383941424344454609
:1035200000000000600700D4062708F1070020F023
:103530000700F0E80223804603F0004C5FEA0C002D
:1035400001D097A009E0200501D596A005E0E0078D
:1035500001D095A001E0AFF24C001390307823F039
:10356000004365280CD006DC452809D046281DD02C
:1035700047287FD13BE0662818D067287AD136E00B
:103580000021112F01DB112000E0781CCDE90001A2
:1035900004A90CA8FFF7EEFCDDE90D010C9A4FF031
:1035A000000B07F10109109200914EE04FF000402E
:1035B0000097CDE9011004A90CA8FFF7DBFCDDE9B9
:1035C0000D020C9B0F994FF0000B91461093009247
:1035D00011B9791C00EB0109B7EB090003D4C0F164
:1035E000FF3B07F10109A9EB0700019042E0012F21
:1035F00000DA01270021112F01DD112000E03846FB
:10360000CDE9000104A90CA8FFF7B4FCDDE90D0128
:103610000C9A00914FF0000BB946109221070FD47D
:10362000009A4A4503DA914601E0A9F10109B9F18E
:10363000010F05DD109AA9F10101515C3029F4D088
:10364000B84202DA10F1040F03DA0121CDE90110CA
:1036500010E0002803DC8344A9EB000102E0411CD8
:10366000494500DD8946A0EB0B00401C01904FF05E
:1036700000400290200705D40198484502DB4FF036
:10368000FF30019000208DF84B0002980DF14B07A0
:10369000B0F1004F25D002200C902B200D90029805
:1036A00000280CDA404202902D200D9007E00A21FC
:1036B0000298FCF775FF3031029007F8011D0C9954
:1036C000481E0C900029F2DC02980028EFD1791EE8
:1036D0000D980870307800F0200040F0450007F8A1
:1036E000020D11A8C01BC01D02901398007800B1F4
:1036F000012000EB0901019801EBE07102980144FF
:103700000398401A401E0390E00306D45346214616
:10371000179A039800F05CF805441398007818B1E4
:103720005246179990476D1CE00323D55346214616
:10373000179A039800F04CF805441BE0BBF1000F0A
:1037400007DB0098584504DD1098179910F80B0016
:1037500001E0179930205246904701980BF1010B78
:10376000401E05F10105019004D12E205246179903
:1037700090476D1CB9F10001A9F10109DEDC05E0FB
:1037800017F8010B5246179990476D1C0299481E75
:1037900002900029F4DC53462146179A03989EE6CE
:1037A0002D0000002B000000200000002DE9F0415A
:1037B000044600251E461746880404D405E0394611
:1037C0002020B0476D1C641EF9D52846BDE8F08165
:1037D0002DE9F041044600251E469046C80301D558
:1037E000302700E02027880404D505E0414638460C
:1037F000B0476D1C641EF9D52846BDE8F0810A6803
:10380000531C0B601070704713B54FF6FF73012205
:1038100069460248FEF7B8FC00981CBDDC01002098
:103820008AB0FDF7D7FEFFF73FF8FEF7B3FEFEF7CD
:103830009BFEFEF701FFFEF753FFFEF71DFFFEF7AD
:1038400043FE5248FFF778F95148FEF797FA0422F1
:1038500050495148FDF7E8F9FEF726FEC820FDF76C
:10386000FFFB4EA01422006806904DA04DA10068F9
:1038700007906846FCF7D7FC4FA0006808904FA05F
:1038800000680590FEF764FFFEF748FFFEF76CFF47
:103890000021032306AA0846FEF7C2FF032307AA56
:1038A00006210020FEF7BCFF11236A4604210020F8
:1038B000FEF7B6FF022308AA00213C20FEF7B0FF66
:1038C000022305AA01213C20FEF7AAFF022305AA34
:1038D00019463C20FEF7A4FF022305AA03213C2041
:1038E000FEF79EFF022305AA04213C20FEF798FF65
:1038F000022305AA05213C20FEF792FF022305AA18
:1039000006213C20FEF78CFF4FF4FA794846FDF77C
:10391000A7FB2B4C2B4D2C4E2C4F20790028FCD094
:1039200028790028F9D030790028F6D03879002895
:10393000F3D01648FFF70AF8DFF8508024A1684654
:1039400098ED000B53EC102BFFF7E0FA98ED020B0B
:103950001FA153EC102B05A8FFF7D8FA10236A46D5
:1039600000215020FEF75CFF102305AA06215020FD
:10397000FEF756FF4846FDF773FB17480021C0E9E4
:1039800002112171297131713971C6E74800002097
:10399000940100208800002098000020783A000060
:1039A000793A00002D2D2D2D2D2D2D2D2D2D2D2D48
:1039B0002D2D2D3E000000005E0000007C00000068
:1039C0000000002008000020100000201800002047
:1039D00025342E326C66000020000020000000001C
:1039E00000000000002F0000000007000700001486
:1039F0007F147F1400242A7F2A1200626408132394
:103A000000364955225000000503000000001C222A
:103A10004100000041221C000014083E0814000868
:103A2000083E0808000000A0600000080808080818
:103A3000000060600000002010080402003E5149B0
:103A4000453E0000427F400000426151494600214E
:103A500041454B31001814127F1000274545453968
:103A6000003C4A49493000017109050300364949C3
:103A7000493600064949291E00003636000000007C
:103A800056360000000814224100001414141414C7
:103A90000000412214080002015109060032495970
:103AA000513E007C1211127C007F49494936003E8C
:103AB00041414122007F4141221C007F4949494147
:103AC000007F09090901003E4149497A007F080841
:103AD000087F0000417F4100002040413F01007FFE
:103AE00008142241007F40404040007F020C027FCA
:103AF000007F0408107F003E4141413E007F0909DC
:103B00000906003E4151215E007F09192946004601
:103B1000494949310001017F0101003F4040403FD8
:103B2000001F2040201F003F4038403F0063140822
:103B300014630007087008070061514945430000FD
:103B40007F41410000552A552A55000041417F0020
:103B50000004020102040040404040400000010215
:103B60000400002054545478007F484444380038FE
:103B70004444442000384444487F00385454541886
:103B800000087E0901020018A4A4A47C007F080498
:103B900004780000447D4000004080847D00007F68
:103BA000102844000000417F4000007C0418047885
:103BB000007C0804047800384444443800FC242481
:103BC00024180018242418FC007C08040408004869
:103BD0005454542000043F444020003C4040207C8A
:103BE000001C2040201C003C4030403C0044281079
:103BF0002844001CA0A0A07C004464544C4414142D
:103C00001414141400000000000000000000000064
:103C100000000000000000F8000000000000003379
:103C20003000000000100C06100C06000000000020
:103C30000000000040C07840C0784000043F040409
:103C40003F040400007088FC08300000001820FFCA
:103C5000211E0000F008F000E018000000211C0305
:103C60001E211E0000F00888700000001E21232481
:103C70001927211010160E0000000000000000009F
:103C800000000000000000E018040200000000072F
:103C90001820400000020418E00000000040201836
:103CA00007000000404080F0804040000202010F09
:103CB00001020200000000F0000000000101011FED
:103CC00001010100000000000000000080B0700051
:103CD00000000000000000000000000000010101E1
:103CE0000101010100000000000000000030300070
:103CF000000000000000000080601804006018064A
:103D00000100000000E010080810E000000F102083
:103D100020100F00001010F8000000000020203FCD
:103D20002020000000700808088870000030282457
:103D300022213000003008888848300000182020F8
:103D400020110E000000C02010F80000000704241D
:103D5000243F240000F80888880808000019212062
:103D600020110E0000E0108888180000000F1120BC
:103D700020110E0000380808C83808000000003F75
:103D8000000000000070880808887000001C2221D4
:103D900021221C0000E010080810E0000000312281
:103DA00022110F00000000C0C00000000000003021
:103DB0003000000000000080000000000000806073
:103DC00000000000000080402010080000010204F4
:103DD00008102000404040404040400004040404DB
:103DE0000404040000081020408000000020100897
:103DF00004020100007048080808F00000000030CC
:103E000036010000C030C828E810E0000718272459
:103E100023140B000000C038E0000000203C230207
:103E20000227382008F8888888700000203F20206A
:103E300020110E00C030080808083800071820209C
:103E40002010080008F808080810E000203F202093
:103E500020100F0008F88888E8081000203F202074
:103E60002320180008F88888E8081000203F200068
:103E700003000000C03008080838000007182020A0
:103E8000221E020008F808000008F808203F21015F
:103E900001213F20000808F8080800000020203F0A
:103EA0002020000000000808F8080800C08080807A
:103EB0007F00000008F888C028180800203F200173
:103EC0002638200008F8080000000000203F2020CD
:103ED0002020300008F8F800F8F80800203F003FE4
:103EE000003F200008F830C00008F808203F2000FC
:103EF00007183F00E01008080810E0000F1020200D
:103F000020100F0008F808080808F000203F2101E1
:103F100001010000E01008080810E0000F18242438
:103F200038504F0008F8888888887000203F2000AB
:103F3000030C302000708808080838000038202161
:103F400021221C00180808F8080818000000203F6B
:103F50002000000008F808000008F808001F2020D2
:103F600020201F000878880000C8380800000738A3
:103F70000E010000F80800F80008F800033C0700F4
:103F8000073C0300081868808068180820302C035C
:103F9000032C30200838C800C83808000000203F33
:103FA0002000000010080808C83808002038262122
:103FB00020201800000000FE020202000000007F26
:103FC00040404000000C30C0000000000000000134
:103FD0000638C00000020202FE000000004040401F
:103FE0007F00000000000402020204000000000044
:103FF00000000000000000000000000080808080C1
:1040000080808080000202040000000000000000A8
:104010000000000000008080808000000019242241
:1040200022223F2008F8008080000000003F11207D
:1040300020110E000000008080800000000E112082
:1040400020201100000000808088F800000E112060
:1040500020103F200000808080800000001F22226E
:1040600022221300008080F0888888180020203FDA
:10407000202000000000808080808000006B9494ED
:104080009493600008F8008080800000203F2100A9
:1040900000203F2000809898000000000020203F72
:1040A00020200000000000809898000000C0808060
:1040B000807F000008F8000080808000203F2402FC
:1040C0002D302000000808F8000000000020203FEC
:1040D000202000008080808080808000203F2000A1
:1040E0003F20003F8080008080800000203F210032
:1040F00000203F200000808080800000001F2020E2
:1041000020201F00808000808000000080FFA12010
:1041100020110E000000008080808000000E112021
:1041200020A0FF80808080008080800020203F21B0
:104130002000010000008080808080000033242463
:1041400024241900008080E0808000000000001F0F
:10415000202000008080000000808000001F2020C0
:1041600020103F20808080000080808000010E3081
:104170000806010080800080008080800F300C03E2
:104180000C300F0000808000808080000020312EE5
:104190000E312000808080000080808080818E70C1
:1041A0001806010000808080808080000021302C73
:1041B0002221300000000000807C0202000000008C
:1041C000003F404000000000FF0000000000000031
:1041D000FF0000000002027C800000000040403F21
:1041E00000000000000601010202040400000000BB
:1041F0000000000000061016000610160000000067
:104200000000000001020304060708090000000086
:1042100001020304344200080000002044000000B2
:10422000542F00087842000844000020DC050000FC
:10423000642F0008000000000000000000000000E3
:10424000000000000000000000000000000000006E
:10425000000000000000000000000000000000005E
:10426000000000000100000010000000000000003D
:084270000024F400000000002E
:040000050800018965
:00000001FF
