:020000040800F2
:100000001006002001010008931D00084119000896
:10001000911D0008DD0700086D27000800000000A2
:100020000000000000000000000000001F1F00088A
:10003000DF070008000000001D1F0008211F000846
:100040001B0100081B0100081B0100081B01000820
:100050001B0100081B010008E1070008EF0700086A
:100060001B010008F50700081B0100081B01000820
:100070001B0100081B0100081B0100081B010008F0
:100080001B0100081B0100081B0100081B010008E0
:100090001B0100081B0100081B0100081B010008D0
:1000A0001B0100081B0100081B0100081B010008C0
:1000B0006D2500081B0100081B0100081B0100083A
:1000C0001B0100081B0100081B0100081B010008A0
:1000D0001B0100081B0100081B0100081B01000890
:1000E000E70700081B0100081B010008DFF80CD01F
:1000F00000F062FB00480047513200081006002063
:100100000648804706480047FEE7FEE7FEE7FEE7B1
:10011000FEE7FEE7FEE7FEE7FEE7FEE7831F0008D7
:10012000ED000008202A04DB203A21FA02F0002129
:10013000704721FA02F3D040C2F1200291400843F7
:1001400019467047D2B201E000F8012B491EFBD2DC
:1001500070470022F6E710B513460A4604461946D2
:10016000FFF7F0FF204610BD2DE9FE4F804681EAE3
:100170000300C00F0C46009021F0004123F0004521
:10018000B8EB0200A94105D24046214690461C46E4
:100190000B46024623F00040104347D0270DC7F31B
:1001A0000A00C3F30A510290401A019040286BDA0A
:1001B000C3F3130040F4801B0098924620B1002343
:1001C000D2EB030A63EB0B0B01985946C0F14002D6
:1001D000504600F00AFA06460D4650465946019A26
:1001E00000F012FA10EB08006141002487EA115276
:1001F00084EAE7731A4340D0009A62B3019A012A55
:100200004FEA075215DC001B61EB02014FF0004280
:1002100002EA0752CDE90042001C41F58011324646
:100220002B4600F012FA03B0BDE8F08F404621469D
:10023000F9E7001B61EB0201001C41F58013001877
:100240005B412018A2F5001747EB030140EAD57087
:10025000B6196D4111E06D084FEA360645EAC075E2
:100260004FEA0752001B61EB0201001C41F58011AF
:1002700049084FEA30000019514132462B4603B07D
:10028000BDE8F04F00F0D2B90098012240000023F1
:10029000D0EB020263EBE073009821464FEAE07472
:1002A000B8EB000061EB0401E9E783F000435BE792
:1002B00081F0004158E72DE9FE4F81EA030404F084
:1002C000004421F0004100944FF0000B23F0004364
:1002D00050EA01045ED052EA03045BD0C3F30A542F
:1002E000C1F30A552C44A4F2F3340194A0FB025448
:1002F000C1F3130141F48011C3F3130343F48013DA
:1003000001FB024400FB034E840A970A44EA81542D
:1003100047EA8357A4FB076802958D0A05FB07850A
:100320004FEA932C04FB0C542705029D4FEA065814
:1003300047EA1637B5EB08056EEB070C870E920EF1
:1003400047EA811742EA8312A7FB0201B6EB0B01D1
:1003500064EB00042B0D43EA0C335E1844EB1C5095
:10036000DA465146E7FB0201C5F313044FEA0B33AB
:1003700043EA14534FEA0432019C43EA0603A4F112
:100380000C040294009CCDE900B400F05EF903B0C7
:10039000BDE8F08F00200146F9E72DE9F04D81EA34
:1003A000030404F0004B21F0004514464FF0000A0E
:1003B00023F0004150EA050220D054EA01021DD08A
:1003C000C5F30A570246C5F31303C1F31300C1F383
:1003D0000A5640F4801543F48013A7EB0608101B5F
:1003E000D64608F2FD3873EB050002D308F1010888
:1003F00001E092185B41B8F1000F03DA00200146DA
:10040000BDE8F08D00204FF48011064684460EE0D2
:10041000171B73EB050705D3121B63EB050306439C
:100420004CEA010C49084FEA300092185B4150EA4F
:100430000107EDD152EA030012D082EA040083EAF8
:100440000501084305D0101BAB4106D20122002351
:1004500006E000224FF0004302E06FF0010253106B
:100460001AEB06004CEB085110EB0A0041EB0B01B4
:10047000BDE8F04D00F0DAB870B521F00043034359
:100480000CD0C1F30A550024D5EB040564EB04033A
:10049000D617AD1AB34102DB0020014670BD20180B
:1004A00041EB025170BD0EB5C10F80EAE070084407
:1004B000CA07002140F233438DE80E000A460B467E
:1004C00000F0C3F803B000BDC1F30A5210B5C1F388
:1004D000130140F2FF3341F480119A4201DA002007
:1004E00010BD40F233439A42A2F2334203DC52423F
:1004F000FFF718FE10BD904010BD000030B5041E7F
:1005000071F1000404DB4FF00044404264EB010150
:10051000141E73F1000405DB1C464FF000435242E9
:1005200063EB04038B4208BF824230BD30B5041E2A
:1005300071F1000404DB4FF00044404264EB010120
:10054000141E73F1000405DB1C464FF000435242B9
:1005500063EB0403994208BF904230BD30B50B46AF
:10056000014600202022012409E021FA02F59D42E3
:1005700005D303FA02F5491B04FA02F52844151EB7
:10058000A2F10102F1DC30BD2DE9F05F054600204B
:1005900092469B4688460646814640241BE02846F4
:1005A000414647462246FFF7BDFD53465A46C01A0C
:1005B000914110D311461846224600F016F82D1A24
:1005C00067EB01084F4622460120002100F00DF89C
:1005D00017EB00094E41201EA4F10104DFDC484660
:1005E00031462A464346BDE8F09F202A04DB203AE4
:1005F00000FA02F1002070479140C2F1200320FA76
:1006000003F3194390407047202A06DBCB17203AAA
:1006100041FA02F043EAE07306E041FA02F3D04007
:10062000C2F12002914008431946704710B5141ECC
:1006300073F1000408DA401C41F1000192185B419B
:100640001A4301D120F0010010BD2DE9F04D924672
:100650009B4611B1B1FA81F202E0B0FA80F2203289
:100660009046FFF7C2FF04460F4640EA0A0041EAFF
:100670000B0153465A46084313D0114653EA010072
:1006800019D0C8F140025046FFF74CFD05460E4612
:10069000504659464246FFF7A8FF084305D00120BF
:1006A00004E020463946BDE8F08D0020054346EAC7
:1006B000E0762C4337430A986305E40AA0EB080070
:1006C0000022FD0A44EA47540A3002D500200146C0
:1006D000E9E7010510196941DDE90845001969419B
:1006E000BDE8F04DA2E72DE9F04D00231A461B1A94
:1006F0008A4103DB00200146BDE8F08DC1F30A52B8
:10070000C1F3130141F480154FF0000BD10702D162
:1007100000186D41521E0027044640F2FF11384672
:1007200001EB620A3E468046024600204FF48011EB
:10073000FFF7F8FCC2197141BB1846EB0100B4EB9E
:10074000030C75EB000C04D3E41A65EB00051746A7
:100750000E46241908F101006D4180463428E3DD7E
:10076000F91946EB0600091BA84103D24FF0FF32EE
:10077000134601E0002213461BEB070046EB0A512B
:10078000BDE8F04DFFF752BFC1F30A52C1F31301A8
:1007900040F2FF3341F480119A4202DA0020014610
:1007A000704740F233439A42A2F2334202DC524293
:1007B000FFF7B8BCFFF719BF064C074D06E0E0682D
:1007C00040F0010394E8070098471034AC42F6D398
:1007D000FFF790FCD0450008F0450008FEE77047A1
:1007E000012000F053B84FF4006000F04FB8022031
:1007F00000F04CB8082000F049B872B6FEE70000DF
:1008000070B5044600F044F90546601C02D0044867
:100810000078044400F03CF9401BA042FAD370BDBC
:100820005000002017494A6A012A02D100220A60BA
:100830004A620123144A01280ED0022813D0082846
:1008400018D0B0F5006F06D108680B620861106817
:1008500020F400601060704708684B6148601068C1
:1008600020F00100F6E708688B618860106820F0CE
:100870000200EFE70868CB61C860106820F008004C
:10088000E8E700000000002000040140044910B522
:100890000A68024202D00860FFF7C4FF10BD0000E2
:1008A000140401402DE9F84FDFF8B891002409F154
:1008B000040A0AF1040B23460F270BF1040EC9E0CA
:1008C0000125A5402A40AA427DD1674ED1F804C037
:1008D000ACEB0608B44532D014DCBCF1030F3AD0BF
:1008E00009DCBCF1000F2AD0BCF1010F1CD0BCF117
:1008F000020F31D11DE0BCF1110F17D0BCF1120F66
:100900002AD119E0B8F5881F19D006DCB8F5803F68
:1009100015D0B8F5801F1FD111E0B8F5001F0ED01B
:10092000B8F5041F18D10AE0CB6815E0CB681B1D91
:1009300012E0CB6808330FE0CB680C330CE08B6817
:100940002BB1012B4FF0080303D0456104E00423D1
:1009500002E0056100E00023FF2A01D8064601E01D
:1009600000F104064FEA840501D9A5F12005D6F867
:10097000008007FA05FC28EA0C0803FA05F548EAA6
:100980000508C6F800804D68ED0062D5374DAE69A8
:1009900046F00106AE61AD6924F0030605F00105DD
:1009A0000095334D06EB050CDCF80850A607360F12
:1009B00007FA06F825EA0805DFF8B880404503D1B4
:1009C0004FF0000817E044E0DFF8AC80404502D16A
:1009D0004FF001080FE0DFF8A480404502D14FF04E
:1009E000020808E0DFF89880404502D14FF0030884
:1009F00001E04FF0040808FA06F848EA0508CCF8C8
:100A000008804D68D9F80060ED034D4601D51643C6
:100A100000E096432E604D68DAF80060AD0355465D
:100A200001D5164300E096432E604D68DBF8006068
:100A3000ED025D4601D5164300E096432E604D68F9
:100A4000DEF80060AD02754601D5164300E096431E
:100A50002E60641C0D682A46E5407FF431AFBDE886
:100A6000F88F000000040140000011100010024047
:100A70000000014000080140000C0140001001404E
:100A8000001401400AB1016170470904FBE700004E
:100A900001488068704700005000002070B50400D5
:100AA00025D094F83D00002520B984F83C5020461C
:100AB00000F050F9242084F83D002068016821F0FE
:100AC000010101602068016841F400410160206873
:100AD000016821F40041016000F098FA4D4A616814
:100AE000914201D84C4900E04C49884201D2012092
:100AF00070BD4B492368B0FBF1F15E6826F03F06FC
:100B00000E435E606368934206D94FF4967359436F
:100B10004FF47A73B1FBF3F12368491C1E6A26F087
:100B20003F06314319626168914210D84900401E66
:100B3000B0FBF1F2521CC2F30B02042A01D20420D2
:100B400022E0B0FBF1F0401CC0F30B001CE0A268F7
:100B5000F2B301EBC10303EB0116431EB3FBF6F343
:100B60005B1C43F480431B0549D092B301EBC102E7
:100B700002EB0111401EB0FBF1F0401CC0F30B0072
:100B800040F4804040F400402168CA694CF6FF738D
:100B90009A431043C861D4E90710014320680268F2
:100BA00022F0C00211430160D4E90301014320682F
:100BB000826848F2FF339A4311438160D4E905010A
:100BC00008432168CA6822F0FF021043C86001E0B0
:100BD0000EE016E02068016841F001010160256423
:100BE000202084F83D00256384F83E50002070BD2D
:100BF00001EB4106431EB3FBF6F35B1CB3E7012098
:100C0000C2E701EB4101401EB0FBF1F0401CC0F314
:100C10000B00B7E7A086010080841E0000093D009C
:100C200040420F002DE9FF4F83B09A46DDE911974E
:100C300093460446DDF84080FFF72AFF054694F806
:100C40003D0020287FD119230122404920460095EC
:100C500000F01AFF002876D194F83C00012872D0E9
:100C6000012084F83C0020680168C90703D10168AD
:100C700041F0010101602068016821F40061016018
:100C8000212084F83D00402084F83E0000262664A0
:100C9000C4F82480A4F82A90608D20852C48E06256
:100CA000CDE9007553465A462046049900F072FE7D
:100CB00070B930E02A463946204600F064FF58B14A
:100CC000206C042804D12068016841F4007101609F
:100CD000012007B0BDE8F08F606A216800780861E4
:100CE000606A401C6062218D491E89B22185628D37
:100CF000521E628522685369DB435B070BD469B1DE
:100D000000781061606A401C6062208D401E208562
:100D1000608D401E6085208D0028CBD12A46394643
:100D2000204600F08BFE0028CAD154F83D0B016824
:100D300041F400710160202004F81E09E67766770F
:100D40000020C6E7FFE70220C3E700000200100012
:100D50000000FFFF10B586B00021009101910291C3
:100D6000039100680F4988421AD10F4CA06940F0E6
:100D70000800A061A069694600F008000490C02046
:100D8000009012200190032003900848FFF78AFD8D
:100D9000E06940F40010E061E06900F400100490A4
:100DA00006B010BD0054004000100240000C01408D
:100DB0000248816802781144816070475000002029
:100DC000074810B5016841F010010160032000F0F0
:100DD00075F80F2000F006F800F024F8002010BD90
:100DE0000020024070B50D4D04464FF47A7128780A
:100DF000B1FBF0F00A490968B1FBF0F000F0ECFA41
:100E000048B9102C07D200222146501E00F036F8B7
:100E100000206C6070BD012070BD000050000020FB
:100E20005C0000200C4808B5816941F00101816136
:100E3000816901F001010091C16941F08051C161F6
:100E4000C06900F0805000900448416821F0E061E2
:100E500041F00071416008BD0010024000000140F7
:100E6000002809DB00F01F020121914040098000A9
:100E700000F1E020C0F8001170470000F0B40E4B04
:100E80001B680C46C3F30223C3F10705042D00D9E8
:100E90000425191D072901D2002300E0DB1E0126CD
:100EA00006FA05F1491E214099409E40761E1640E3
:100EB0003143F0BC01F0D8BC0CED00E0064900F075
:100EC000070208684FF6FF03184040EA0220034A71
:100ED00010430860704700000CED00E00000FA05C8
:100EE0002DE9F0470F46050061D0434E306800F011
:100EF0000700B84209D2306820F00700384330605C
:100F0000306800F00700B84251D128683B4C810797
:100F100012D5400703D5606840F4E060606028782F
:100F2000000703D5606840F4605060606068A9689D
:100F300020F0F000084360602878C00728D0686877
:100F4000012810D02168022810D0890700292EDA44
:100F5000616821F0030101436160FFF799FD80465C
:100F600041F288390DE021688903EFE78901EDE757
:100F7000FFF78EFDA0EB0801494502D90320BDE82B
:100F8000F0876068696800F00C00B0EB810FEFD16A
:100F9000306800F00700B8420BD9306820F0070035
:100FA00038433060306800F00700B84201D00120BB
:100FB000E5E72878400705D56068E96820F4E06037
:100FC000084360602878000706D56068296920F426
:100FD000605040EAC100606000F038F86168084A7B
:100FE000C1F30311515CC840064908600648006817
:100FF000FFF7F8FE0020C2E7002002400010024088
:10100000244500085C0000205400002004480549E5
:1010100000684968044AC1F30221515CC840704726
:101020005C000020001002403445000804480549D7
:1010300000684968044AC1F3C221515CC840704746
:101040005C000020001002403445000812A185B069
:101050000FC98DE80F0014A0144A0068049051686D
:10106000134801F00C03042B10D0082B0ED1C1F350
:101070008343C9031DF803000AD5516804AAC1F3CC
:101080004041515C0A4A5043B0FBF1F005B0704753
:1010900008494843FAE70000020304050607080967
:1010A0000A0B0C0D0E0F1010010200000010024080
:1010B00000127A0000093D002DE9F84F040070D0BD
:1010C0002078C04DC00749D06868C0F3810001286E
:1010D00007D06868C0F38100022809D16868C0039E
:1010E00006D52868800339D560680028E7D035E048
:1010F0006068B0F5803F0BD010B1B0F5A02F11D0D3
:10110000286820F480302860286820F4802002E0DD
:10111000286840F480302860606890B1FFF7B8FC20
:1011200006460AE0286840F480202860F0E700BF07
:10113000FFF7AEFC801B642873D828688003F7D5BE
:101140000CE0FFF7A5FC064605E000BFFFF7A0FC9A
:10115000801B6428F0D828688003F7D420789A4E42
:1011600080074FF001094FF0000839D5686810F08A
:101170000C0F07D06868C0F38100022809D16868A5
:10118000C00306D42868800714D52069012808D137
:1011900010E02069B0B1C6F80090FFF779FC07466F
:1011A00005E00AE1FFF774FCC01B0228C4D82868D8
:1011B0008007F7D52868616920F0F80040EAC1008F
:1011C00028600DE0C6F80080FFF762FC074604E0E7
:1011D000FFF75EFCC01B022823D828688007F7D4DD
:1011E000207800072CD57948A169D9B1C0F80090C2
:1011F000FFF74EFC074604E0FFF74AFCC01B02283D
:101200000FD8686A8007F7D571484FF4FA51006823
:10121000B0FBF1F0009000BF0098411E0091FAD29F
:101220000EE080E0C0F80080FFF732FC074604E0E3
:10123000FFF72EFCC01B022875D8686A8007F7D418
:101240002078400760D5E8690027C00008D4E86925
:1012500040F08050E861E869012700F0805000907C
:101260005C480168C90513D40168834641F4807164
:101270000160FFF70DFC824606E000BFFFF708FCA7
:10128000A0EB0A0064284ED8DBF80000C005F5D5B5
:10129000E06801280AD008B1052813D0286A20F098
:1012A00001002862286A20F0040002E0286A40F069
:1012B00001002862E06841F2883B98B1FFF7E8FB43
:1012C00082460BE0286A40F004002862EEE700BF87
:1012D000FFF7DEFBA0EB0A0159455AD8286A8007C0
:1012E000F6D50CE0FFF7D4FB824605E0FFF7D0FB14
:1012F000A0EB0A0159454CD8286A8007F6D41FB1E3
:10130000E86920F08050E861E06988B36968C1F35A
:101310008101022944D00228C6F8608004D0FFF77A
:10132000B7FB044638E034E0FFF7B2FB074604E0C1
:10133000FFF7AEFBC01B02282BD828688001F7D42A
:10134000206AB0F5803F05D16868A16820F40030BC
:1013500008436860D4E908010843696821F47411FE
:1013600008436860C6F86090FFF792FB044606E009
:1013700025E000BFFFF78CFB001B022809D8286876
:101380008001F7D51BE000BFFFF782FB001B02289E
:1013900002D90320BDE8F88F28688001F4D40EE05C
:1013A0000128F7D06868226A00F48031914204D1A4
:1013B000616A00F47010884201D00120EAE7002041
:1013C000E8E7000000100240000042428004424270
:1013D0005C0000200070004010B5401EB0F1807F1E
:1013E00001D3012010BD4FF0E02460610F21601790
:1013F00001F03AFA0020A06107202061002010BD12
:101400007047704770B590F83C20012A26D001241F
:1014100080F83C40022280F83D2003685A689D68AD
:1014200022F070060A6832435A600D4B02689A42F5
:1014300008D0B2F1804F05D00A4B9A4202D00A4B35
:101440009A4204D1496825F080031943916080F8DD
:101450003D40002180F83C10084670BD022070BD60
:10146000002C0140000400400008004010B50400BA
:1014700003D094F83D0010B107E0012010BD00201A
:1014800084F83C00204600F01FF8022084F83D005C
:10149000211D206801F070F8012084F8460084F8CE
:1014A0003E0084F83F0084F8400084F8410084F84E
:1014B000420084F8430084F8440084F8450084F82E
:1014C0003D00002010BD000008B50068B0F1804F5D
:1014D00012D10A48C16941F00101C161C06900220D
:1014E00000F00100009001211C20FFF7C7FCBDE8BF
:1014F00008401C20FFF7B4BC08BD000000100240EB
:1015000090F83D10012901D001207047022180F898
:101510003D100168CA6842F00102CA6000680B49C8
:10152000884208D0B0F1804F05D00949884202D0E6
:101530000849884204D1816801F00701062903D0D7
:10154000016841F00101016000207047002C01405A
:10155000000400400008004070B5044690F83C00CC
:10156000012817D0012584F83C50022084F83D0062
:101570002068826822F0770222F47F428260086845
:10158000502830D00DDC20284DD005DC98B3102831
:101590003BD148E0022070BD302844D0402834D1EF
:1015A00039E0602828D0702806D0B0F5805F2CD0B4
:1015B000B0F5005F29D10AE0CB68D1E901212068AC
:1015C00001F010F82068816841F0770109E0CB68EC
:1015D000D1E90121206801F005F82068816841F413
:1015E0008041816011E0CA684968206801F00CF808
:1015F0005021206807E016E0CA684968206801F0B9
:1016000014F86021206800F0F7FF84F83D500020B6
:1016100084F83C0070BDCA684968206800F0F4FF97
:1016200040212068EFE7226801461046EBE770474B
:1016300070B50446006801694FF00005C943890789
:1016400015D4C168C943890711D4E91E016101207D
:101650002077206880698007204602D0FFF7E7FFE7
:1016600004E000F098F8204600F096F8257720680E
:101670000169C943490717D4C168C943490713D44D
:101680006FF004010161022020772068806910F466
:10169000407F204602D0FFF7CAFF04E000F07BF84D
:1016A000204600F079F8257720680169C9430907C9
:1016B00016D4C168C943090712D46FF0080101614B
:1016C000042020772068C0698007204602D0FFF7F9
:1016D000AEFF04E000F05FF8204600F05DF82577EB
:1016E00020680169C943C90617D4C168C943C9063E
:1016F00013D46FF010010161082020772068C069C1
:1017000010F4407F204602D0FFF791FF04E000F084
:1017100042F8204600F040F8257720680169C94367
:10172000C90708D1C168C943C90704D1891E01612D
:10173000204600F033F820680169C943090609D43E
:10174000C168C943090605D46FF0800101612046D4
:10175000FFF756FE20680169C943490609D4C168EC
:10176000C943490605D46FF040010161204600F0ED
:1017700023F820680169C94389060BD4C168C943AD
:10178000890607D46FF0200101612046BDE8704052
:10179000FFF737BE70BD704770470000044900680E
:1017A0000968884203D103480168491C01607047F9
:1017B000BC00002000000020704770B5040004D079
:1017C00094F83D00002510B106E0012070BD84F8BA
:1017D0003C50204600F022F8242084F83D00206888
:1017E000C16821F40051C160204600F031FF20683B
:1017F000016921F4904101612068416921F02A01C9
:1018000041612068C16841F40051C1602564202015
:1018100084F83D0084F83E00002070BD30B585B0EE
:1018200000240094019402940394006814498842AF
:1018300024D11448816941F480418161816901F4B6
:1018400080410491816941F00401816180690E4DFC
:1018500000F0040004904FF400700090022001900A
:101860000320039069462846FFF71CF82815CDE9A8
:101870000004694628460294FFF714F805B030BD0D
:101880000038014000100240000801402DE9F843F3
:10189000044690F83D001F4616460D4620284CD1C0
:1018A000C5B1BEB194F83C00012846D0012084F8AF
:1018B0003C004FF00008C4F84080212084F83D002F
:1018C000FFF7E6F8A6848146E684A068B0F5805F5D
:1018D00003D004E00120BDE8F883206928B12E463A
:1018E0005FF0000584F83C800EE00026FAE78021D6
:1018F000204600F009FFA0B9AEB116F8010B21682F
:101900004860E08C401EE084E08C4B464FF00002C3
:1019100000970028EBD14FF04001204600F0F4FE84
:1019200030B10320D7E735F8020BC0F30800E6E733
:10193000202084F83D000020CDE70220CBE7000006
:1019400072B6BFF34F8F05480168054A01F4E061A4
:1019500011430160BFF34F8F00BFFDE70CED00E0C6
:101960000400FA0501684A69D24352050FD46FF4A6
:1019700080624A61002140F8301F20224273817347
:10198000026942F0040202610173012070470020E5
:10199000704700002DE9F843044600680D46DDE974
:1019A000089701689846164641F4807101604B46DD
:1019B00000224FF001112046009700F065F848B171
:1019C00020680068C00502D54FF400702064032031
:1019D000BDE8F883216805F0FE0008613B464A46F1
:1019E0001549204600F084F888B92068416980696B
:1019F00000903A464946204600F0C5F848B1206CB0
:101A0000042804D12068016841F4007101600120BC
:101A1000DEE7F5B2B8F1010F09D02168300A08619C
:101A20003A464946204600F0AEF80028E7D1206843
:101A300005610020CCE700000200010070B51646E9
:101A40000D4604460DE02046FFF78CFF08B101204B
:101A500070BD681C05D0FFF71BF8801BA84207D893
:101A600035B120684069C0434007ECD4002070BD08
:101A7000002044F8300F20216173A073216941F0E8
:101A8000200121612073E2E72DE9F0471E469046D0
:101A90000D460446C1F30747DDF8209008E0701CAE
:101AA00006D0FEF7F5FFA0EB0900B0420FD876B1E3
:101AB0002068012F18D0806925EA00000004000C7E
:101AC00014D000214145EAD00020BDE8F087002075
:101AD00044F8300F20216173A073216941F0200187
:101AE000216120730120F0E74069E5E70121E9E782
:101AF0002DE9F0479A4691460E46044600254FF0E0
:101B00002008C1F3074725E020684069C04340052D
:101B100014D42068016841F40071016021686FF4F9
:101B200080604861256384F83D8084F83E50206CD5
:101B300040F00400206484F83C501FE0B9F1FF3FFE
:101B400008D0FEF7A5FFA0EB0A0149450CD8B9F172
:101B5000000F09D02068012F13D0806926EA000009
:101B60000004000C0BD0CFE744F8305F84F80D8000
:101B7000A573206940F02000206125730120BDE895
:101B8000F0874069EAE770B516460D4604460DE059
:101B90002046FFF7E7FE08B1012070BD681C05D0A4
:101BA000FEF776FF801BA84207D835B12068406950
:101BB000C0430006ECD4002070BD002044F8300F74
:101BC00020216173A073216941F0200121612073FC
:101BD000E2E7000030B585B000200090019002904F
:101BE00003903048816941F010018161816901F001
:101BF00010010491816941F020018161816901F046
:101C000020010491816941F008018161816901F03D
:101C100008010491816941F0040181618069224DCC
:101C200000F004004FF4005404900022214628469E
:101C3000FEF728FF01210320CDE90210CDE9004184
:101C400069462846FEF72EFE40F60B000090174826
:101C500001900220029069461548FEF723FE0022FB
:101C600011460620FFF70AF90620FFF7F9F80022CF
:101C700011460720FFF702F90720FFF7F1F80022CD
:101C800011460920FFF7FAF80920FFF7E9F80022CA
:101C900011462820FFF7F2F82820FFF7E1F805B0F9
:101CA00030BD000000100240001001400000111083
:101CB000000C01400D4810B50B4901600C49416012
:101CC00000214FF480428160C0E9031241618161CB
:101CD000C1610162FEF7E2FE002803D0BDE81040BA
:101CE000FEF78BBD10BD00000054004068000020CE
:101CF000A086010010B586B0002416480094019417
:101D00000294039404944FF08041059401604721AC
:101D1000C0E901140921C0E9031480218161FFF7A2
:101D2000A5FB08B1FEF769FD4FF4805000906946AD
:101D30000848FFF711FC08B1FEF75FFD049404A901
:101D400004480594FFF75EFB002801D0FEF755FD1F
:101D500006B010BDBC0000200C4810B50A49016057
:101D60004FF4E1314160002181600C22C160C0E983
:101D700004128161C161FFF720FD002803D0BDE896
:101D80001040FEF73ABD10BD0038014004010020AC
:101D9000FEE7FEE770B5002404F1B000C0B200F029
:101DA00099F8002000F096F8102000F093F8002534
:101DB000002000F0A1F86D1CEDB2802DF8D3641C5A
:101DC000E4B2082CE8D370BD10B58D2000F082F885
:101DD000142000F07FF8BDE81040AF2000F07AB882
:101DE00010B54FF4FA70FEF70BFDBDE8104000F09F
:101DF000BEBC10B50446B031C8B200F06BF810207C
:101E000040EA141000F066F804F00F00BDE810403E
:101E100000F060B82DE9F041203A00240D468046DC
:101E2000D6B27F2803D900208D1C8046EDB2102B3E
:101E300029461FD8FFF7DDFF164F00BF04EB061041
:101E4000385C00F059F8641CE4B2082CF6D36D1C21
:101E5000E9B24046FFF7CDFF5FF0000404EB061047
:101E60003844007A00F048F8641CE4B2082CF5D33A
:101E7000BDE8F081FFF7BDFF074906EB460001EB27
:101E80004005285D00F038F8641CE4B2062CF8D355
:101E9000EEE70000343F00080C3D00082DE9F0415A
:101EA000984617460E46044600250DE04346314647
:101EB0002046FFF7AFFF0834E4B2782C02D90024A3
:101EC000B61CF6B26D1CEDB27A5D002AEED1BDE80B
:101ED000F081000001B584B001214FF4807204A8A4
:101EE0008DE807000B46002278210248FEF79AFE93
:101EF00005B000BD6800002001B584B001214FF499
:101F0000807204A88DE807000B4640227821024821
:101F1000FEF788FE05B000BD6800002070477047DE
:101F2000FEF746BF30B58FB028216846FEF711F99D
:101F300014210AA8FEF70DF901210804CDE90010CB
:101F40000024029402250491CDE907504FF4E010DB
:101F500009906846FFF7B0F808B172B6FEE70F20A7
:101F6000CDE90A054FF48060CDE90C4002210AA8B2
:101F70000E94FEF7B5FF002801D072B6FEE70FB051
:101F800030BD70472DE9F05FDFF8E8A3FA49044659
:101F9000DAF800800F68A8EB0700FEF784FAF74A2A
:101FA000F74BFEF788F9DFF8DC93C4E90401283425
:101FB000D9F80060F01BFEF776FAF04AF04BFEF716
:101FC0007AF9DFF8C4B344E90401DBF80050E81BF8
:101FD000FEF769FAE94AEA4BFEF76DF944E90201B6
:101FE000A5EB0800FEF75FFAE44AE54BFEF763F95C
:101FF000C4E90A01A7EB0800FEF755FADF4AE04BF7
:10200000FEF759F9C4E90001B81BFEF74CFADB4AA8
:10201000DB4BFEF750F9C4E90201781BFEF743FAE7
:10202000D64AD74BFEF747F9C4E90401A8EB0500EF
:10203000FEF739FAD14AD24BFEF73DF9C4E90C015B
:10204000A8EB0600FEF72FFACC4ACD4BFEF733F98A
:10205000C4E90801A6EB0800FEF725FAC74AC84BF9
:10206000FEF729F9C4E90601701BFEF71CFAC34A02
:10207000C34BFEF720F9C4E91001A81BFEF713FAC1
:10208000BE4ABF4BFEF717F9C04DC4E90E0100224E
:102090002B4610464FF0804101F026F9BC4E00223D
:1020A0003346FEF708F9C4E9180100222B46104612
:1020B000F10301F019F900223346FEF7FCF8C4E9F8
:1020C0001A01AD49D9F800000968401AFEF7EBF98A
:1020D000AA4AAB4BFEF7EFF84FF0FF384246FEF747
:1020E000CBF921F00041C4E9120106460F46DBF8A6
:1020F0000010DAF80000081AFEF7D5F99F4AA04B45
:10210000FEF7D9F84246FEF7B7F921F00041C4E9DD
:10211000140100224FF080433046394601F0E4F8C4
:1021200006460F46D4E9180100224FF0804301F023
:10213000DBF832463B46FEF7B8F800222B4601F0AA
:10214000D3F8C4E91C01D4E9140100224FF0804304
:1021500001F0CAF806460F46D4E91A0100224FF0F2
:10216000804301F0C1F832463B46FEF79EF800225C
:102170002B4601F0B9F8C4E91E01D4E9140100228C
:102180004FF0804301F0B0F806460F46D4E9120143
:1021900000224FF0804301F0A7F832463B46FEF79D
:1021A0008AF880468946D4E91E0100224FF0804318
:1021B00001F09AF806460F46D4E91C0100224FF0C0
:1021C000804301F091F832463B46FEF774F84246F0
:1021D0004B46FEF76AF880468946D4E91C01002286
:1021E0004FF0804301F080F806460F46D4E9140111
:1021F00000224FF0804301F077F832463B46FDF76E
:10220000B3FF82468B46D4E91E0100224FF0804383
:1022100001F06AF806460F46D4E9120100224FF099
:10222000804301F061F832463B46FEF744F85246DF
:102230005B46FEF740F842464B46FEF7AEF8C4E96F
:102240002001D4E9140100224FF0804301F04CF842
:1022500006460F46D4E9120100224FF0804301F0F8
:1022600043F832463B46FEF726F881460F46D4E94E
:102270001E0100224FF0804301F036F806468846E2
:10228000D4E91C0100224FF0804301F02DF83246C2
:102290004346FEF710F84A463B46FEF706F88146ED
:1022A0008A46D4E91E0100224FF0804301F01CF859
:1022B00006460F46D4E9120100224FF0804301F098
:1022C00013F832463B46FDF74FFF07468846D4E9F0
:1022D0001C0100224FF0804301F006F806468B46B1
:1022E000D4E9140100224FF0804300F0FDFF324694
:1022F0005B46FDF7E0FF3A464346FDF7DCFF4A4602
:102300005346FEF74AF8C4E9220154E904010022C9
:102310001346283CFEF70AF90DD2D4E91401002235
:102320001346FEF703F906D2F4E92A0100222B46F0
:1023300000F0DAFF15E0D4E9060100221346FEF7AB
:10234000DDF827D2D4E9140100221346FEF7EEF897
:1023500020D2F4E92A0100222B4600F0C5FF81F0CB
:102360000041C4E90001D4E9020100222B4600F03B
:10237000BBFF2DE00800002004000020C3F5285C0E
:102380008FC2D53F0C000020100000200000E03F6D
:1023900000805640D4E9060100221346FEF7C6F835
:1023A0001AD2D4E9140100221346FEF7A7F813D27B
:1023B000F4E92A0100222B4600F096FFC4E900014F
:1023C000D4E9020100222B4600F08EFF81F000418B
:1023D000C4E90201A83C22E0D4E906010022134628
:1023E000FEF78CF81BD2D4E9140100221346FEF745
:1023F00085F814D2D4E92C0100222B46A83400F031
:1024000073FF81F00041C4E90201D4E90001002218
:102410002B4600F069FF81F0004164E82A01703426
:1024200094E80F00FDF747FF283406460F4694E86E
:102430000F00983CFDF73FFF32463B46FEF776F82B
:1024400031D2A83494E80F00703CFDF78DFE0646AB
:102450000F4600224FF08048A9462B4610464146C1
:1024600000F042FF4FF0FF352A46FEF705F83246EE
:102470003B46FDF720FF44E90C0104F170000FC852
:10248000FDF713FF06460F4600224B461046414615
:1024900000F02AFF2A46FDF7EFFF32463B46FDF7E4
:1024A0000AFF64E90E0113A0D4E9002300F0B8F993
:1024B000D4E9022312A000F0B3F9D4E90001FEF739
:1024C00003F812490870D4E90201FDF7FDFF104935
:1024D0000870FFF75FFC002103230C4A0846FFF752
:1024E000DDFCBDE8F05F03230021094A3220FFF73D
:1024F000D5BC0000783A252E326C660D0A0000002B
:10250000793A252E326C660D0A0000004800002042
:102510004B000020144A0021C0E92012C0E9061136
:10252000C0E91411C0E90C11C0E91611C0E910117D
:10253000C0E91211C0E90E11C0E90811C0E90A1181
:10254000E0E90411C0E91611C0E91411C0E91E1137
:10255000C0E92011C0E92211C0E92411C0E9181115
:10256000C0E91A1170470000008056400148FFF78B
:102570005FB80000BC000020F0B50268164B174C95
:10258000174D4FF08047984205D0B84203D0A04283
:1025900001D0A84203D122F070064A683243984223
:1025A00005D0B84203D0A04201D0A84203D122F402
:1025B0004074CA6822434C6922F0800222430260C0
:1025C0008A68C2620A688262984201D1096901631D
:1025D00001214161F0BD0000002C014000040040D9
:1025E0000008004010B5846842EA032224F47F44C6
:1025F0000A432243826010BD826822F070020A43BF
:1026000042F007018160704710B5036A046A24F044
:1026100001040462846924F0F00444EA021423F003
:102620000A020A438461026210BD10B5036A23F0F6
:10263000100303628369046A23F4704343EA02329D
:1026400024F0A00343EA01118261016210BD000081
:1026500070B5044600680169E26821F440511143F5
:1026600001612169A0680843616908432168CA685B
:1026700041F20C639A430243CA6020684169A2692F
:1026800021F44071114341611E492068884202D102
:10269000FEF7CCFC01E0FEF7B9FC00EBC00101EB5A
:1026A0000012606864218000B2FBF0F3B3FBF1F329
:1026B0006FF018067343B2FBF0F5B2FBF0F605EBD2
:1026C0008305322303EB0515B5FBF1F5B6FBF1F6F7
:1026D00005F0F00505EB0615B2FBF0F6B2FBF0F0E5
:1026E000B0FBF1F06FF01802504306EB800003EBF3
:1026F0000010B0FBF1F0216800F00F002844886062
:1027000070BD0000003801402DE9F04198461746A1
:102710000E460446069D1DE0681C1BD02DB1FEF739
:10272000B7F9A0EB0800A84214D92068C16821F4C9
:10273000D071C1602068416921F001014161202010
:1027400084F83D0084F83E00002084F83C0003201B
:10275000BDE8F0812068006836EA000004D000205F
:10276000B842D9D00020F3E70120F9E7FEE710B521
:10277000AE20FFF7AFFB0020FFF7ACFB1020FFF708
:10278000A9FB4020FFF7A6FB8120FFF7A3FBCF208A
:10279000FFF7A0FBA120FFF79DFBC820FFF79AFBE6
:1027A000A620FFF797FBA820FFF794FB3F20FFF739
:1027B00091FBD320FFF78EFB0020FFF78BFBD5208A
:1027C000FFF788FB8020FFF785FBD920FFF782FB0E
:1027D000F120FFF77FFBDA20FFF77CFB1220FFF7E9
:1027E00079FBDB20FFF776FB4020FFF773FB20200F
:1027F000FFF770FB0220FFF76DFB8D20FFF76AFBF0
:102800001420FFF767FBA420FFF764FBA620FFF767
:1028100061FBFFF7BFFABDE81040AF20FFF75ABBDE
:102820000FB4054B10B503A9044A029800F06AF9E9
:1028300010BC5DF814FB0000353200086000002079
:10284000490050EAC12018BF04204A0D18BF40F0CB
:10285000010040F2FF72B2EB515F08BF40F002008E
:10286000012808BF052070470907090E002804DB6E
:1028700000F1E02080F80014704700F00F0000F134
:10288000E02080F8141D70472DE9F0414F1E00EB49
:10289000C7010446D1E9000115461E4637F006027D
:1028A0000DD02A463346FDF706FD7F1E04EBC70315
:1028B000D3E90023FDF758FC37F00602F1D1022FCF
:1028C00025D0042F13D0062F18BFBDE8F0812A466B
:1028D0003346FDF7F0FCD4E90A23FDF745FC2A4610
:1028E0003346FDF7E8FCD4E90823FDF73DFC2A4612
:1028F0003346FDF7E0FCD4E90623FDF735FC2A4614
:102900003346FDF7D8FCD4E90423FDF72DFC2A4615
:102910003346FDF7D0FCD4E90223FDF725FC2A4617
:102920003346FDF7C8FCD4E90023BDE8F041FDF7CC
:102930001BBC00000022134610460149FDF72DBDC7
:102940000000F03FFDF710BC002213461046114670
:10295000FDF723BD40F2013200204FF0E041FDF7CA
:102960008BBD0000024A00201107FDF785BD000065
:1029700001FDFFFF02E008C8121F08C1002AFAD1BA
:1029800070477047002001E001C1121F002AFBD1EF
:102990007047000001490860704700006400002093
:1029A0002DE9FF5FDDE90220010DDDF838B00243BB
:1029B00018D044F61050A1F2FF3141430D140F9886
:1029C000012820D0A5EB0B00401C5FEA000A4FF065
:1029D0000004474EDFF81C91A046504616D5CAF1B8
:1029E000000728E00F98012443A2012808D0002105
:1029F00000980F9BC0E90021C0E90243BDE8FF9F9A
:102A00006FEA0B01F4E7CBF10000DEE7074612E0C6
:102A1000F80707D02246334640464946FDF74BFCAF
:102A2000804689462246334610461946FDF743FC48
:102A300004460E467F10002FEAD1DDE90201BAF10B
:102A4000000F42464B4602DAFDF735FC01E0FDF788
:102A5000A4FC04460E460022284BFDF767FD03D870
:102A60004FF0FF30014607E00022254B204631465B
:102A7000FDF77AFBFDF788FE102409E0002C0ADB45
:102A80000A220023FDF780FD019B30321A55641E97
:102A900050EA0102F2D1641C019AC4F111031444FA
:102AA0000F9A012A03D0012208430DD10AE00843FE
:102AB00004D000204FF0110B0F9080E7A3EB0B0523
:102AC0006D1E0DE05B4504DD4FF0000205F10105D0
:102AD00004E003DA4FF00002A5F10105002AECD072
:102AE00000980F99C0E90231C0E9004586E700006F
:102AF000000024400000F03F300000000000F043E0
:102B00000000E03F2DE9FF4F95B09B468946064601
:102B100000250FE2252877D100242746F84A012115
:102B2000059400E0044316F8013F203B01FA03F04E
:102B30001042F7D130782A2811D06FF02F03307867
:102B4000A0F13002092A16D8059A44F0020402EBDB
:102B5000820203EB42021044761C0590EFE759F81D
:102B6000042B0592002A03DA504244F400540590E5
:102B700044F00204761C30782E2816D116F8010F86
:102B800044F004042A280DD06FF02F023078A0F111
:102B90003003092B09D807EB870302EB4303C7185F
:102BA000761CF3E759F8047B761C30786C280FD03C
:102BB00006DC4C2817D068280DD06A2814D104E010
:102BC000742810D07A280FD10DE044F400140AE0E4
:102BD00044F4801401E044F440147278824202D13B
:102BE00004F58014761C761C307866280BD013DC34
:102BF000582877D009DC002875D04528F6D046281B
:102C0000F4D047281AD19DE118E0632835D0642814
:102C100079D0652812D195E1702873D008DC672837
:102C2000F1D069286FD06E280DD06F2806D1B5E09D
:102C300073282CD0752875D0782874D05A461799E7
:102C400090476D1C75E1C4F30250022809D0032897
:102C50000DD0D9F8001004280DD00D6009F1040939
:102C600067E1D9F80010EA17C1E90052F6E7D9F890
:102C700000100D80F2E70D70F0E719F8041B8DF8D5
:102C8000001000208DF80100EA46012003E059F809
:102C900004AB4FF0FF3061074FF0000102D40DE0AC
:102CA00008F101018846B9420FDA8045F8DB1AF8CD
:102CB00008100029F4D108E008F10101884681429A
:102CC000FADB1AF808100029F6D105985B46A0EB4C
:102CD000080721463846179A00F094FA284400EB7A
:102CE000080507E04DE029E10DE01AF8010B5A460E
:102CF00017999047B8F10108F7D25B46214638464C
:102D0000179A13E142E00A220092C4F302524FF0F4
:102D1000000A022A08D059F804CB032A4FEAEC71C2
:102D20000AD00DE029E02AE009F1070121F00702AD
:102D3000F2E802C1914609E00FFA8CFC4FEAEC710F
:102D4000042A03D14FFA8CFC4FEAEC71002907DA10
:102D50000A460021DCF1000C61EB02012D2202E0A9
:102D6000220504D52B228DF80420012203E0E2077E
:102D700001D02022F7E7904659E00A2102E0102214
:102D80000DE010214FF0000A00910BE010224FF0EF
:102D9000000A44F004040827009203E008224FF0E0
:102DA000000A0092C4F30252022A05D059F804CB5B
:102DB0000021032A08D009E009F1070121F00702E8
:102DC000F2E802C1914605E01FFA8CFC042A01D109
:102DD0000CF0FF0C4FF00008220728D5702806D011
:102DE000009B83F0100353EA0A0305D00EE0402253
:102DF0008DF80420012208E05CEA010206D03022AE
:102E00008DF804208DF8050002229046009B83F087
:102E1000080353EA0A030AD15CEA010201D16207FE
:102E200005D530228DF804204FF001087F1E582868
:102E300004D034A003900EA802900DE036A0F9E76C
:102E400053466046009AFDF79FFB84460398825CD8
:102E50000298401E029002705CEA0100F0D10298D4
:102E600006A9081A00F1200A600702D524F480346C
:102E700000E00127574502DDA7EB0A0000E0002033
:102E800000EB0A01009005984144401A0590E003C8
:102E900006D45B462146179A059800F0B3F905441D
:102EA000002706E001A85A46C05D179990476D1C9F
:102EB0007F1C4745F6DBE0030CD55B462146179A9D
:102EC000059800F09FF9054404E030205A46179910
:102ED00090476D1C0099481E00900029F5DC08E021
:102EE000029802995A460078491C02911799904716
:102EF0006D1CBAF10001AAF1010AF1DC65E10000E4
:102F000009280100303132333435363738396162BF
:102F10006364656600000000303132333435363783
:102F200038394142434445460000000000F058F95A
:102F30000544761C307800287FF4ECAD19B02846A3
:102F4000BDE8F08F620700D4062709F1070222F0DE
:102F5000070CFCE80223E14603F000485FEA080C96
:102F600002D00FF2702C0DE05FEA045C02D50FF284
:102F7000682C07E05FEAC47C02D00FF2602C01E00D
:102F8000AFF2700C4FF0FF3823F00043CDF850C083
:102F900065280CD006DC452809D046281DD04728D6
:102FA0003DD13DE0662818D067287ED138E0002169
:102FB000112F01DB112000E0781CCDE9000106A9EA
:102FC0000EA8FFF7EDFCDDE90F010E9A0391002139
:102FD000009207F1010A04914DE04FF00040009784
:102FE000CDE9011006A90EA8FFF7DAFCDDE90F0212
:102FF00003920E9B11990022DDF80CA0009304921D
:1030000011B9791C00EB010AB7EB0A0004D4C0F136
:10301000FF3007F1010A0490AAEB0700019044E099
:10302000012F00DA01270021112F01DD112000E01E
:103030003846CDE9000106A90EA8FFF7B1FCDDE98D
:103040000F010E9A0391002104910092BA462107C4
:103050000CD40399514500DA8A46BAF1010F05DD17
:10306000009AAAF10101515C302908D0B84202DA75
:1030700010F1040F06DA0121CDE9011015E0AAF1E3
:103080000101E9E7002805DC049901440491AAEB59
:10309000000102E0411C514500DD8A460499401AB6
:1030A000401C01904FF000400290200704D401988A
:1030B000504501DBCDF8048000208DF84F000298C8
:1030C0000DF14F07B0F1004F25D02B200E90029844
:1030D0004FF0020800280CDA404202902D200E909A
:1030E00007E00A210298FDF739FA3031029007F81B
:1030F000011DB8F10001A8F10108F2DC02980028D6
:10310000EFD1791E0E980870307800F0200040F062
:10311000450007F8020D12A8C01B00F1070814981B
:10312000007800B1012000EB0A01019801EBE07189
:1031300005984144401A401E0590E00306D45B46C2
:103140002146179A059800F05DF805441498007818
:1031500018B15A46179990476D1CE00324D55B4679
:103160002146179A059800F04DF805441CE0049894
:10317000002807DBDDE90301884203DD0098405C9D
:10318000179901E0179930205A469047049805F1A5
:103190000105401C04900198401E019004D12E208E
:1031A0005A46179990476D1CBAF10001AAF1010A1D
:1031B000DDDC05E017F8010B5A46179990476D1CA6
:1031C000B8F10001A8F10108F4DC5B462146179A2A
:1031D0000598ABE62D0000002B0000002000000049
:1031E0002DE9F041044600251E461746880404D404
:1031F00005E039462020B0476D1C641EF9D52846ED
:10320000BDE8F0812DE9F041044600251E469046B8
:10321000C80301D5302700E02027880404D505E045
:1032200041463846B0476D1C641EF9D52846BDE8B6
:10323000F081000038B504468DF800000223012219
:1032400069460248FEF722FB204638BD04010020F3
:10325000FDF7B6FDFEF766FEFEF7BCFCFEF77CFD53
:10326000FEF748FDFEF726FD1B48FFF753F91B4804
:10327000FEF746F9FEF7B4FDFEF7A6FD184C6069AF
:103280000028FCD0A0690028F9D0E0690028F6D019
:10329000206A0028F3D01048FEF774FE4FF44870FF
:1032A000FDF7AEFA0F48016841F0010101600168C5
:1032B00041F002010160016841F00801016001680C
:1032C00041F40061016000206061A061E061206262
:1032D00001206062D3E7000048010020BC0000200C
:1032E00000000020000401402DE9F04D1D460C4671
:1032F00098B0174621F0004123F00043002814BF86
:103300004FF0010C4FF0000C0CEB440CFE4A0CEBA0
:1033100002064FEA620C66452BD33E0018BF012619
:1033200006EB45061644F94A964222D3F84A53EA78
:10333000070C02D0944205D148B918B000201146BC
:10334000BDE8F08D002808BF4FF0000C01D04FF011
:10335000010C0CEB440212F5001F0AD8002F14BF19
:103360004FF0010C4FF0000C0CEB450212F5001F62
:1033700007D918B03A462B462146BDE8F04DFFF775
:10338000E1BA0022DFF88CA3002CB8BF534526DA3F
:10339000DFF884C36345A8BF022220DADFF870C3D8
:1033A0009C451CDCDFF874C30CEB235CBCF1140FF0
:1033B00008DDCCF1340627FA06FC0CFA06F6BE420C
:1033C0000DD108E05FB9CCF1140623FA06FC0CFA23
:1033D00006F69E4203D10CF00102C2F1020251EA4C
:1033E000000C19D1002D17DA002C18BF022A01D0C9
:1033F000012A07D00220FFF7CDFA18B0BDE8F04D42
:10340000FFF798BA0220FFF7C5FAFFF793FA18B052
:1034100081F00041BDE8F08DB7F1000C6CD153454F
:1034200025D104F1804212F5801201BF002800204E
:10343000B74918B008BFBDE8F08DB548884207DC31
:10344000002DA1BF6046294618B0BDE8F08D07E009
:10345000281E05DA80F0004118B06046BDE8F08D06
:10346000AF497944D1E9000118B0BDE8F08DDFF82B
:10347000A0C2634525D1002D1FDA19B1514512D1E3
:10348000D8B909E0002840F0EC82A24A214618B0E1
:1034900062F31E01BDE8F08D0020214618B060F3F4
:1034A0001E01BDE8F08D08DA18B02346BDE8F04DE6
:1034B000024600206146FCF770BF18B02146BDE807
:1034C000F08D514518DAB5F1804F0DD0A5F1005CB3
:1034D000BCF1FF5C10D1B4F1000C0DDB18B06146FB
:1034E000BDE8F04D00F0ECBB234618B00246BDE845
:1034F000F04D1946FCF7DFBE060024F0004C3BD12E
:10350000D9B1514533D1002C06DD002DA1BF0020DB
:10351000514618B0BDE8F08D002C01DD002D1BDBFD
:10352000002C13DA002D11DB012A4FF0000014BF2C
:1035300078497C4918B0BDE8F08D022A18BF002CEC
:103540000AD0012A08D1002C06DA0AE0002CB8BF04
:10355000002D11DA012A04D0002018B00146BDE880
:10356000F08D18B000204FF00041BDE8F08DA1F1C2
:103570004050B0F17F601AD0012000EBE47050EAB7
:10358000020421D0624C521E4FF0000B104304BFC6
:103590004FF0000B644C654883427CDD644A65480B
:1035A00093421FDD884217DB002D25DB37E0002C1E
:1035B00000DA4AB1022A0CBF01204FF0FF3018B0E8
:1035C000BDE8F04DFCF76FBF0120FFF7E3F918B03D
:1035D000BDE8F04DFFF7B8B94D4A8A4202DC002D34
:1035E0000ADC1CE0814202DA002D18DA04E0484BC4
:1035F000994220DD002D12DD0220FFF7CBF9FFF705
:10360000A9F905460E460022534658462146FCF7C6
:1036100052FE18B066F31E012846BDE8F08D022068
:10362000FFF7B8F9FFF79EF90A46214618B062F392
:103630001E01BDE8F08D002230466146FCF735FEE4
:1036400080460E466FF00102FCF716FF4FF0553230
:10365000394BFCF72DFE42463346FCF72CFE002288
:10366000364BFCF725FE824642463346049110460F
:103670001946FCF720FE5246049BFCF71CFE8A46C6
:1036800000904FF0C0422E4B40463146FCF713FEEF
:103690002C4A2B4B00E027E0CDE90601514600986B
:1036A000FCF709FE82460191274A284B40463146E5
:1036B000FCF701FE5246019BFCF7F7FD82460B46E4
:1036C00002460591DDE90601FCF74EFDDDE9062322
:1036D000002688463046FCF7E8FD5246059BFCF77D
:1036E000E7FD024600F07EB90020B1F5801F07DA41
:1036F000352230466146FCF7BFFE06466FF03400C7
:1037000000EB215024E00000FFFF1F00FFFF0F002F
:103710000000F03F0000F07F0000404301FCFFFF8D
:10372000621100000000F0FF0000F0BF0000E04167
:103730000000F043FFFFEF3F5555D53F0000E03F4D
:103740004715F73FFE822B6544DF5DF80BAE543E14
:10375000A0F2FF300190C1F3130040F07F6141F00F
:1037600040510291FE498842D8BF002004DDFD4946
:103770008142C8BF012001DD0D9008E000200D90BE
:103780000198401C01900298A0F5801002900299C7
:10379000F54878440B910D9900EBC100D0E9002366
:1037A0000F9330460A920B99FCF77FFDCDE9060195
:1037B000DDE90A2130460F9BFCF7D6FC02460B469A
:1037C0000020EA49FCF7E9FD059102460B4600900E
:1037D000DDE90601FCF76FFD1490E5488A464FF0DD
:1037E000000878440299006812904FF0005040EAB7
:1037F00061010D980F9B01EB804000F500210991BC
:103800000A9A1298FCF751FD32460B9BFCF750FDCB
:1038100042465346FCF74FFD06460291404651464C
:10382000099B129AFCF747FDDDE90623FCF740FDF2
:103830003246029BFCF739FD059B009AFCF73BFDE5
:103840000091149A0490534610461946FCF733FD34
:1038500006460246C7480B46029106217844FFF708
:1038600013F8CDE90510029B324610461946FCF7C5
:1038700022FDDDE90532FCF71EFD059106465346A3
:1038800040461946149AFCF76FFC009B049AFCF71B
:1038900012FD3246059BFCF767FCCDE90510424658
:1038A000534610461946FCF706FD0022B24B029122
:1038B0000A90FCF759FCDDE90532FCF755FC0E4691
:1038C0004246AD4B4046FCF7F0FC029B0A9AFCF7DF
:1038D000ECFCDDE90532FCF7EBFC424602910A9074
:1038E000334610465146FCF7E6FCCDE90601534647
:1038F000149A02990A98FCF7DEFC8A460290334635
:10390000424600990498FCF7D6FC5346029AFCF70D
:103910002BFC82460B4602460591DDE90601FCF7C9
:1039200023FCDDE90623002088460646FCF7BDFCA3
:103930005246059BFCF7BCFC824609914FF0604261
:103940008E4B30464146FCF7B6FC049006918C4AFB
:103950008A4B50460999FCF7AEFC82460291894A8F
:10396000894B30464146FCF7A6FC5246029BFCF7C9
:10397000FBFB864B7B440D9A03EBC203D3E9002388
:10398000FCF7F2FB0E9007910198FCF78CFD059176
:10399000DDE9061382460E9A0498FCF7E5FB7C4AA3
:1039A0007A440D9B02EBC303D3E9002300930292F8
:1039B000FCF7DAFB5246059BFCF7D6FB002688464F
:1039C00052463046059BFCF770FC009B029AFCF7C0
:1039D0006CFC069B049AFCF768FC079B0E9AFCF7AC
:1039E00067FC024600200B46029038462946FCF749
:1039F00062FC824601912B4638461946029AFCF732
:103A000054FC32464346FCF756FC5246019BFCF7F9
:103A1000ABFB07468A463246434629460298FCF7E6
:103A20004AFC05460E463A465346FCF79DFB594A6A
:103A30008846914221DBA8EB020353EA000210D131
:103A40002A463346FCF731FCCDE90401524A534B78
:103A500038465146FCF788FBDDE90423FCF766FD98
:103A600021D20220FEF796FFFEF774FF0A46214698
:103A700018B062F31E01BDE8F08D494B28F00042FA
:103A80009A4210D3474A08EB020353EA00027FF43C
:103A9000C6AD2A463346FCF708FC3A465346FCF7C7
:103AA00045FD7FF6BCAD0022019228F000403E4962
:103AB0003E4A01EB2051824223DA481C4FF4801128
:103AC00021FA00F040443A4AC0F30A517A44394B93
:103AD000A1F2FF31CB4020EA0303C0F3130040F40E
:103AE0008010C1F11401C84012680190B8F1000FB4
:103AF000BCBF4042019028463146FCF7D6FB054644
:103B00000E462A46334638465146FCF72DFB4FF009
:103B100000084246284B40460591FCF7CCFBCDE916
:103B20000601264A264B40460599FCF7C4FB009146
:103B300002902A46334640460599FCF7B6FB3A46C2
:103B40005346FCF7B5FB1F4A1F4BFCF7B4FB009B29
:103B5000029AFCF709FB0746884602460B4635E009
:103B60008E9803007AB60B00AA0D00000000F03F0B
:103B7000E20D0000100D00000000084009C7EE3FF4
:103B8000FD033ADCF5015B14E02F3EBEE80B0000BC
:103B9000AC0B000000009040FE822B654715973C5F
:103BA00000CC904000346F3F01FCFFFF0000E03F7D
:103BB000F80A0000FFFF0F00432EE63F396CA80C07
:103BC000615C20BEEF39FAFE422EE63FDDE90601D8
:103BD000FCF7CAFADDE9062305460E46FCF765FB4D
:103BE0003A464346FCF764FB0F462A4633460090AC
:103BF00010461946FCF75FFB824602462E4888466F
:103C00000B4605217844FEF73FFE52464346FCF73B
:103C100052FB2A463346FCF74BFB80468A463B461E
:103C200028463146009AFCF746FB3B46009AFCF7D3
:103C30009BFA0691009000224FF080434046514687
:103C4000FCF733FB0F460C9042465346284631465C
:103C5000FCF731FB3B460C9AFCF79FFB069B009A56
:103C6000FCF723FB2A463346FCF71FFB0022134BCD
:103C7000FCF71EFB054601980E4601EB00510815A6
:103C8000002810DC28463146019AFCF7F5FBFEF7C8
:103C9000D7FD042808BFFEF765FE28463146019A85
:103CA000FCF7EAFB05460B4618B02A465846214663
:103CB000BDE8F04DFCF7FFBA980900000000F03FA6
:103CC0002DE9F04106460F46FCF70DFD041E0D469A
:103CD00018BF0120284320F00040C0F17F6000F1B0
:103CE000E040C00F0ED0301C18BF0120384320F038
:103CF0000040C0F17F6000F1E040C00F04BF012030
:103D0000FEF748FE20462946BDE8F081000000008D
:103D100000000000002F0000000007000700001452
:103D20007F147F1400242A7F2A1200626408132360
:103D300000364955225000000503000000001C22F7
:103D40004100000041221C000014083E0814000835
:103D5000083E0808000000A06000000808080808E5
:103D6000000060600000002010080402003E51497D
:103D7000453E0000427F400000426151494600211B
:103D800041454B31001814127F1000274545453935
:103D9000003C4A4949300001710905030036494990
:103DA000493600064949291E000036360000000049
:103DB0005636000000081422410000141414141494
:103DC000000041221408000201510906003249593D
:103DD000513E007C1211127C007F49494936003E59
:103DE00041414122007F4141221C007F4949494114
:103DF000007F09090901003E4149497A007F08080E
:103E0000087F0000417F4100002040413F01007FCA
:103E100008142241007F40404040007F020C027F96
:103E2000007F0408107F003E4141413E007F0909A8
:103E30000906003E4151215E007F091929460046CE
:103E4000494949310001017F0101003F4040403FA5
:103E5000001F2040201F003F4038403F00631408EF
:103E600014630007087008070061514945430000CA
:103E70007F41410000552A552A55000041417F00ED
:103E800000040201020400404040404000000102E2
:103E90000400002054545478007F484444380038CB
:103EA0004444442000384444487F00385454541853
:103EB00000087E0901020018A4A4A47C007F080465
:103EC00004780000447D4000004080847D00007F35
:103ED000102844000000417F4000007C0418047852
:103EE000007C0804047800384444443800FC24244E
:103EF00024180018242418FC007C08040408004836
:103F00005454542000043F444020003C4040207C56
:103F1000001C2040201C003C4030403C0044281045
:103F20002844001CA0A0A07C004464544C441414F9
:103F30001414141400000000000000000000000031
:103F400000000000000000F8000000000000003346
:103F50003000000000100C06100C060000000000ED
:103F60000000000040C07840C0784000043F0404D6
:103F70003F040400007088FC08300000001820FF97
:103F8000211E0000F008F000E018000000211C03D2
:103F90001E211E0000F00888700000001E2123244E
:103FA0001927211010160E0000000000000000006C
:103FB00000000000000000E01804020000000007FC
:103FC0001820400000020418E00000000040201803
:103FD00007000000404080F0804040000202010FD6
:103FE00001020200000000F0000000000101011FBA
:103FF00001010100000000000000000080B070001E
:1040000000000000000000000000000000010101AD
:10401000010101010000000000000000003030003C
:104020000000000000000000806018040060180616
:104030000100000000E010080810E000000F102050
:1040400020100F00001010F8000000000020203F9A
:104050002020000000700808088870000030282424
:1040600022213000003008888848300000182020C5
:1040700020110E000000C02010F8000000070424EA
:10408000243F240000F8088888080800001921202F
:1040900020110E0000E0108888180000000F112089
:1040A00020110E0000380808C83808000000003F42
:1040B000000000000070880808887000001C2221A1
:1040C00021221C0000E010080810E000000031224E
:1040D00022110F00000000C0C000000000000030EE
:1040E0003000000000000080000000000000806040
:1040F00000000000000080402010080000010204C1
:1041000008102000404040404040400004040404A7
:104110000404040000081020408000000020100863
:1041200004020100007048080808F0000000003098
:1041300036010000C030C828E810E0000718272426
:1041400023140B000000C038E0000000203C2302D4
:104150000227382008F8888888700000203F202037
:1041600020110E00C0300808080838000718202069
:104170002010080008F808080810E000203F202060
:1041800020100F0008F88888E8081000203F202041
:104190002320180008F88888E8081000203F200035
:1041A00003000000C030080808380000071820206D
:1041B000221E020008F808000008F808203F21012C
:1041C00001213F20000808F8080800000020203FD7
:1041D0002020000000000808F8080800C080808047
:1041E0007F00000008F888C028180800203F200140
:1041F0002638200008F8080000000000203F20209A
:104200002020300008F8F800F8F80800203F003FB0
:10421000003F200008F830C00008F808203F2000C8
:1042200007183F00E01008080810E0000F102020D9
:1042300020100F0008F808080808F000203F2101AE
:1042400001010000E01008080810E0000F18242405
:1042500038504F0008F8888888887000203F200078
:10426000030C30200070880808083800003820212E
:1042700021221C00180808F8080818000000203F38
:104280002000000008F808000008F808001F20209F
:1042900020201F000878880000C838080000073870
:1042A0000E010000F80800F80008F800033C0700C1
:1042B000073C0300081868808068180820302C0329
:1042C000032C30200838C800C83808000000203F00
:1042D0002000000010080808C838080020382621EF
:1042E00020201800000000FE020202000000007FF3
:1042F00040404000000C30C0000000000000000101
:104300000638C00000020202FE00000000404040EB
:104310007F00000000000402020204000000000010
:10432000000000000000000000000000808080808D
:104330008080808000020204000000000000000075
:10434000000000000000808080800000001924220E
:1043500022223F2008F8008080000000003F11204A
:1043600020110E000000008080800000000E11204F
:1043700020201100000000808088F800000E11202D
:1043800020103F200000808080800000001F22223B
:1043900022221300008080F0888888180020203FA7
:1043A000202000000000808080808000006B9494BA
:1043B0009493600008F8008080800000203F210076
:1043C00000203F2000809898000000000020203F3F
:1043D00020200000000000809898000000C080802D
:1043E000807F000008F8000080808000203F2402C9
:1043F0002D302000000808F8000000000020203FB9
:10440000202000008080808080808000203F20006D
:104410003F20003F8080008080800000203F2100FE
:1044200000203F200000808080800000001F2020AE
:1044300020201F00808000808000000080FFA120DD
:1044400020110E000000008080808000000E1120EE
:1044500020A0FF80808080008080800020203F217D
:104460002000010000008080808080000033242430
:1044700024241900008080E0808000000000001FDC
:10448000202000008080000000808000001F20208D
:1044900020103F20808080000080808000010E304E
:1044A0000806010080800080008080800F300C03AF
:1044B0000C300F0000808000808080000020312EB2
:1044C0000E312000808080000080808080818E708E
:1044D0001806010000808080808080000021302C40
:1044E0002221300000000000807C02020000000059
:1044F000003F404000000000FF00000000000000FE
:10450000FF0000000002027C800000000040403FED
:104510000000000000060101020204040000000087
:104520000000000000000000000000000102030481
:104530000607080900000000010203040000000053
:10454000000000000000F03F000000000000F83F05
:1045500000000000000000000000004003B8E23F3F
:10456000000000000000000006D0CF43EBFD4C3EF1
:10457000033333333333E33FFFAB6FDBB66DDB3FE6
:104580004D268F515555D53F01411DA96074D13F2E
:1045900065DBC9934A86CD3FEF4E454A287ECA3F28
:1045A0003E5555555555C53F93BDBE166CC166BFAA
:1045B0002CDE25AF6A56113FF16BD2C541BDBBBEA3
:1045C000D0A4BE726937663E000000000000000003
:1045D000F045000800000020680000007429000871
:1045E0005846000868000020A8050000842900083B
:1045F00000000000000000000000000000000000BB
:1046000000000000000000000000000000000000AA
:104610000000000001000000000000000000000099
:10462000000000000000000000000000000000008A
:10463000000000000000000000000000000000007A
:104640000100000010000000000000000024F40041
:08465000000000000000000062
:04000005080000ED02
:00000001FF
